:100000000C942A000C94E40E0C94170F0C944A0FD5
:100010000C9447000C9447000C94300B0C94470050
:100020000C9447000C94FD0A0C94730D0C940A0D6B
:100030000C9447000C9447000C9447000C94470024
:100040000C9447000C9447000C9447000C94470014
:100050000C94470011241FBECFE5D8E0DEBFCDBF12
:1000600011E0A0E6B0E0EAE1FFE602C005900D92E3
:10007000A439B107D9F711E0A4E9B1E001C01D929C
:10008000A73CB107E1F70E943E360C948B370C94E5
:100090000000EF92FF920F931F937B018C0120E0F1
:1000A00030E040E05FE40E94F50388238CF0C80153
:1000B000B70120E030E040E05FE40E94C1010E940F
:1000C00055049B01AC01205030404040504806C0D0
:1000D000C801B7010E9455049B01AC01B901CA01D6
:1000E0001F910F91FF90EF900895A0E0B0E0EBE733
:1000F000F0E00C94D836DC012B01FA019C9192308F
:1001000008F439C1EB018881823008F433C194309E
:1001100069F4843009F02FC111969C91119789815F
:10012000981709F428C1A7E6B0E025C1843009F486
:1001300021C18230A9F4923009F01DC19A01AD01AC
:1001400088E0EA010990AE01E90109929E0181501F
:10015000C1F7E201898111969C918923818308C1AD
:10016000923009F407C112962D903C901397EB0141
:100170008A819B811496AD90BD90CD90DC901797AD
:10018000EC80FD800E811F819101281B390BB90184
:1001900037FF04C066277727621B730B6032710537
:1001A0000CF061C0121613066CF537014801062EDB
:1001B00004C096948794779467940A94D2F721E0C8
:1001C00030E040E050E004C0220F331F441F551FB1
:1001D0006A95D2F721503040404050402E213F21B7
:1001E00040235123211531054105510521F021E01E
:1001F00030E040E050E079018A01E628F72808293C
:1002000019293CC0232BD1F1260E371E350146019A
:10021000062E04C096948794779467940A94D2F734
:1002200021E030E040E050E004C0220F331F441FC3
:10023000551F6A95D2F721503040404050402A2146
:100240003B214C215D21211531054105510521F04E
:1002500021E030E040E050E059016A01A628B728CB
:10026000C828D9280BC0821593052CF01C01AA249C
:10027000BB24650103C0EE24FF24870111969C91E5
:10028000D20111968C91981709F445C0992339F041
:10029000A80197012A193B094C095D0906C0A6016E
:1002A00095012E193F09400B510B57FD08C01182D3
:1002B0003382228224833583468357831DC081E0A5
:1002C00081833382228288279927DC01821B930B4A
:1002D000A40BB50B84839583A683B7830DC0220F2F
:1002E000331F441F551F24833583468357838281E0
:1002F000938101979383828324813581468157813D
:10030000DA01C9010197A109B1098F5F9F4FAF4F72
:10031000BF4328F30BC0918333822282EA0CFB1C7B
:100320000C1D1D1DE482F5820683178383E0808304
:10033000248135814681578157FF1AC0C901AA27F8
:1003400097FDA095BA2F81709070A070B0705695EF
:10035000479537952795822B932BA42BB52B848318
:100360009583A683B7838281938101969383828349
:10037000DF0101C0D201CD01CDB7DEB7E2E10C94BF
:10038000F436A0E2B0E0E7ECF1E00C94E4366983E7
:100390007A838B839C832D833E834F835887E9E048
:1003A000EE2EF12CEC0EFD1ECE010196B7010E943F
:1003B00046068E010F5E1F4FCE010596B8010E94C2
:1003C00046068A8991E089278A8BC701B801AE0168
:1003D000475E5F4F0E9475000E947105A096E6E09F
:1003E0000C940037A0E2B0E0E8EFF1E00C94E436C2
:1003F00069837A838B839C832D833E834F835887C5
:10040000F9E0EF2EF12CEC0EFD1ECE010196B701A6
:100410000E9446068E010F5E1F4FCE010596B80161
:100420000E944606C701B801AE01475E5F4F0E94B9
:1004300075000E947105A096E6E00C940037A0E2DA
:10044000B0E0E5E2F2E00C94D83669837A838B83DE
:100450009C832D833E834F835887CE010196BE0136
:10046000675F7F4F0E944606CE010596BE016F5E14
:100470007F4F0E9446069985923088F089898230A4
:10048000C8F0943019F4823051F404C0843029F457
:10049000923081F487E690E0C6C0923049F420E0C3
:1004A0009A858A89981321E02A87CE010996BBC0D4
:1004B000823049F420E09A858A89981321E02A8BBA
:1004C000CE014196B0C02D843E844F8458886D88FB
:1004D0007E888F88988CEE24FF248701AA24BB2471
:1004E000650140E050E060E070E0E0E0F0E0C10174
:1004F00081709070892BE9F0E60CF71C081D191D1E
:100500009A01AB012A0D3B1D4C1D5D1D80E090E062
:10051000A0E0B0E0E614F7040805190520F481E036
:1005200090E0A0E0B0E0BA01A901480F591F6A1F8E
:100530007B1FAA0CBB1CCC1CDD1C97FE08C081E0F5
:1005400090E0A0E0B0E0A82AB92ACA2ADB2A3196B6
:10055000E032F10549F0660C771C881C991C569412
:10056000479437942794C3CFFA85EA892B893C892D
:100570008B859C85280F391F2E5F3F4F17C0CA01FE
:1005800081709070892B61F016950795F794E79428
:1005900080E090E0A0E0B0E8E82AF92A0A2B1B2BC3
:1005A00076956795579547952F5F3F4F77FDE7CF36
:1005B0000CC0440F551F661F771F17FD4160EE0CDE
:1005C000FF1C001F111F21503040403090E05907A0
:1005D00090E0690790E4790760F32B8F3C8FDB0193
:1005E000CA018F779070A070B07080349105A1051A
:1005F000B10561F447FD0AC0E114F10401051105DC
:1006000029F0405C5F4F6F4F7F4F40781A8EFE1786
:1006100011F081E08A8F4D8F5E8F6F8F78A383E01A
:10062000898FCE0149960E947105A096E2E10C9453
:10063000F436A8E1B0E0EFE1F3E00C94E036698332
:100640007A838B839C832D833E834F835887B9E0C5
:10065000EB2EF12CEC0EFD1ECE010196B7010E948F
:1006600046068E010F5E1F4FCE010596B8010E940F
:1006700046062985223008F47EC03989323010F4CC
:10068000B8017CC08A859A8989278A87243011F02D
:10069000223031F4231709F06EC067E670E06EC0B7
:1006A000343039F41D861E861F86188A1C861B86E8
:1006B00004C0323021F484E08987B7015FC02B8504
:1006C0003C858B899C89281B390B3C872B87ED84C3
:1006D000FE840F851889AD88BE88CF88D88CEA142F
:1006E000FB040C051D0540F4EE0CFF1C001F111F40
:1006F000215030403C872B8720E030E040E050E044
:1007000080E090E0A0E0B0E460E070E0EA14FB0478
:100710000C051D0540F0282B392B4A2B5B2BEA18C2
:10072000FB080C091D09B695A79597958795EE0CC2
:10073000FF1C001F111F6F5F7F4F6F31710531F775
:10074000DA01C9018F779070A070B0708034910584
:10075000A105B10561F427FD0AC0E114F10401050A
:10076000110529F0205C3F4F4F4F5F4F20782D87B8
:100770003E874F87588BBE01675F7F4FCB010E943A
:1007800071056896EAE00C94FC36A8E1B0E0EBEC69
:10079000F3E00C94E43669837A838B839C832D8306
:1007A0003E834F83588789E0E82EF12CEC0EFD1E26
:1007B000CE010196B7010E9446068E010F5E1F4FC3
:1007C000CE010596B8010E9446068985823040F028
:1007D0008989823028F0C701B8010E94BE0601C095
:1007E0008FEF6896E6E00C940037A8E1B0E0EBEFFD
:1007F000F3E00C94E43669837A838B839C832D83A6
:100800003E834F83588789E0E82EF12CEC0EFD1EC5
:10081000CE010196B7010E9446068E010F5E1F4F62
:10082000CE010596B8010E9446068985823040F0C7
:100830008989823028F0C701B8010E94BE0601C034
:100840008FEF6896E6E00C940037A8E1B0E0EBE2A9
:10085000F4E00C94E43669837A838B839C832D8344
:100860003E834F83588789E0E82EF12CEC0EFD1E65
:10087000CE010196B7010E9446068E010F5E1F4F02
:10088000CE010596B8010E9446068985823040F067
:100890008989823028F0C701B8010E94BE0601C0D4
:1008A00081E06896E6E00C940037ACE0B0E0EBE560
:1008B000F4E00C94E83669837A838B839C83CE01C1
:1008C0000196BE016B5F7F4F0E9446068D8182308C
:1008D00061F1823050F1843021F48E81882351F10E
:1008E0002EC02F81388537FD20C06E812F31310514
:1008F0001CF06623F9F023C08EE190E0821B930B7D
:1009000029853A854B855C8504C056954795379572
:1009100027958A95D2F76623B1F05095409530958A
:1009200021953F4F4F4F5F4F0EC020E030E040E039
:1009300050E009C02FEF3FEF4FEF5FE704C020E02A
:1009400030E040E050E8B901CA012C96E2E00C9496
:100950000437A8E0B0E0EFEAF4E00C94E0367B0165
:100960008C01611571058105910519F482E0898377
:1009700060C083E089838EE1C82ED12CDC82CB82DB
:10098000ED82FE820F831887C801B7010E942205FD
:10099000FC013197F7FF3BC0222733272E1B3F0B6B
:1009A00057016801022E04C0D694C794B794A79447
:1009B0000A94D2F740E050E060E070E081E090E01F
:1009C000A0E0B0E004C0880F991FAA1FBB1F2A95A2
:1009D000D2F70197A109B1098E219F21A023B1234C
:1009E0000097A105B10521F041E050E060E070E022
:1009F0004A295B296C297D294D835E836F83788723
:100A00008EE190E08E1B9F0B9C838B8312C03097EE
:100A100081F00E2E04C0EE0CFF1C001F111F0A9463
:100A2000D2F7ED82FE820F831887CE1ADF0ADC82AE
:100A3000CB821A82CE0101960E9471052896EAE0C7
:100A40000C94FC36EF92FF920F931F937B018C0165
:100A500080E0E81680E0F80681E0080780E01807EB
:100A600088F48FEFE816F1040105110531F028F044
:100A700088E090E0A0E0B0E017C080E090E0A0E067
:100A8000B0E012C080E0E81680E0F80680E00807D9
:100A900081E0180728F088E190E0A0E0B0E004C011
:100AA00080E190E0A0E0B0E020E230E040E050E003
:100AB000281B390B4A0B5B0B04C016950795F7945E
:100AC000E7948A95D2F7F701E159FF4F8081281BFF
:100AD000310941095109C9011F910F91FF90EF9010
:100AE0000895DF92EF92FF920F931F93FC01E48031
:100AF000F58006811781D1808081823048F480E0C2
:100B000090E0A0E1B0E0E82AF92A0A2B1B2BA5C04F
:100B1000843009F49FC0823021F4EE24FF24870141
:100B200005C0E114F1040105110519F4E0E0F0E05D
:100B300096C0628173819FEF623879070CF05BC0C9
:100B400022E83FEF261B370B2A3131052CF020E03D
:100B500030E040E050E02AC0B801A701022E04C0F6
:100B600076956795579547950A94D2F781E090E07E
:100B7000A0E0B0E004C0880F991FAA1FBB1F2A95F0
:100B8000D2F70197A109B1098E219F21A023B1239A
:100B90000097A105B10521F081E090E0A0E0B0E070
:100BA0009A01AB01282B392B4A2B5B2BDA01C901A7
:100BB0008F779070A070B07080349105A105B10559
:100BC00039F427FF09C0205C3F4F4F4F5F4F04C0EF
:100BD000215C3F4F4F4F5F4FE0E0F0E02030A0E05E
:100BE0003A07A0E04A07A0E45A0710F0E1E0F0E07D
:100BF00079018A0127C06038710564F5FB01E1586D
:100C0000FF4FD801C7018F779070A070B07080340B
:100C10009105A105B10539F4E7FE0DC080E490E02F
:100C2000A0E0B0E004C08FE390E0A0E0B0E0E80E08
:100C3000F91E0A1F1B1F17FF05C016950795F7948D
:100C4000E794319687E016950795F794E7948A958F
:100C5000D1F705C0EE24FF248701EFEFF0E06E2FFF
:100C6000679566276795902F9F77D794DD24D79453
:100C70008E2F8695492F462B582F5D29B701CA0123
:100C80001F910F91FF90EF90DF900895FC01DB0121
:100C9000408151812281622F6F7770E0221F2227CD
:100CA000221F9381892F880F822B282F30E0991FD4
:100CB0009927991F11969C93119721153105A9F534
:100CC000411551056105710511F482E037C082E8D4
:100CD0009FEF13969C938E9312979A01AB0167E056
:100CE000220F331F441F551F6A95D1F783E08C9361
:100CF0000DC0220F331F441F551F12968D919C91DA
:100D00001397019713969C938E931297203080E04F
:100D1000380780E0480780E4580758F314962D936D
:100D20003D934D935C93179708952F3F310579F4C8
:100D3000411551056105710519F484E08C930895FE
:100D400064FF03C081E08C9312C01C9210C02F5727
:100D5000304013963C932E93129783E08C9387E058
:100D6000440F551F661F771F8A95D1F7706414963C
:100D70004D935D936D937C93179708951F93DC01BA
:100D8000FB019C91923008F447C08081823008F4C6
:100D900043C0943051F411961C91843099F58181AF
:100DA000682F70E0611B71093FC0843021F09230E0
:100DB00031F48230B9F18181882389F12DC01196F7
:100DC0001C9111978230F1F081811817D9F4129695
:100DD0002D913C911397828193818217930794F010
:100DE00028173907BCF014968D919D910D90BC91F8
:100DF000A02D2481358146815781281739074A075C
:100E00005B0718F4112341F00AC082179307A40767
:100E1000B50740F4112319F061E070E005C06FEFF1
:100E20007FEF02C060E070E0CB011F910895DF9377
:100E3000CF93CDB7DEB7A1E4B0E0E1E4F0E080818C
:100E400080618C9382E0CF91DF910895DF93CF93FF
:100E5000CDB7DEB7A1E4B0E0E1E4F0E080818861E5
:100E60008C93E1E4F0E0108282E0CF91DF9108956D
:100E7000DF93CF9300D0CDB7DEB78A8382E089833A
:100E80008A81883080F4A1E4B0E0E1E4F0E0808180
:100E9000887F8C93A1E4B0E0E1E4F0E090818A8166
:100EA000892B8C9301C0198289810F900F90CF916B
:100EB000DF910895DF93CF93CDB7DEB7A89582E099
:100EC000CF91DF910895DF93CF93CDB7DEB7A0E444
:100ED000B0E0E0E4F0E08081897F8C93A0E4B0E0B2
:100EE000E0E4F0E0808186608C93A0E4B0E0E0E490
:100EF000F0E080818F7C8C93A0E4B0E0E0E4F0E04F
:100F000080818C93A0E4B0E0E0E4F0E08081877F12
:100F10008C93A0E4B0E0E0E4F0E080818F778C93E4
:100F2000E9E2F0E087E68083AAE2B0E0EAE2F0E0FE
:100F3000808188608C93AAE2B0E0EAE2F0E08081F0
:100F400080618C9382E0CF91DF910895DF93CF93FE
:100F50000F92CDB7DEB78983EBE2F0E08081829516
:100F600086958770882F90E0817090700097A1F32C
:100F7000ECE2F0E089818083EBE2F0E08081829511
:100F8000869586958370882F90E081709070009789
:100F900099F3ABE2B0E0EBE2F0E0808180648C9307
:100FA00082E00F90CF91DF910895DF93CF9300D02F
:100FB00000D0CDB7DEB79C838B8382E08A83198211
:100FC0008B819C810097D9F00EC08981282F30E059
:100FD0008B819C81FC01E20FF31F80810E94A60798
:100FE00089818F5F89838981282F30E08B819C8163
:100FF000FC01E20FF31F8081882339F702C081E0F2
:101000008A838A810F900F900F900F90CF91DF917C
:101010000895DF93CF9300D00F92CDB7DEB79B83B7
:101020008A8382E089838A819B81009761F0EBE269
:10103000F0E080818823DCF7ECE2F0E08081EA8157
:10104000FB81808302C081E0898389810F900F90AA
:101050000F90CF91DF910895DF93CF9300D0CDB75C
:10106000DEB78A8382E089838A818530B8F08A81FD
:101070008830A0F4ABE2B0E0EBE2F0E08081482FF2
:101080008A81282F30E081E090E0022E02C0880F94
:10109000991F0A94E2F7842B8C9301C019828981ED
:1010A0000F900F90CF91DF910895DF93CF9300D0F1
:1010B000CDB7DEB78A8382E089838A818530C0F02C
:1010C0008A818830A8F4ABE2B0E0EBE2F0E0808106
:1010D000482F8A81282F30E081E090E0022E02C064
:1010E000880F991F0A94E2F7809584238C9301C09E
:1010F000198289810F900F90CF91DF910895DF932E
:10110000CF9300D000D0CDB7DEB78A837C836B83CA
:1011100082E089838B819C81009741F18A8185508F
:101120008A838A81282F30E0EB81FC8143815481BE
:10113000C901880F991F880F991F820F931FFC0107
:10114000E956FE4F518340838A81282F30E0EB819E
:10115000FC814281C901880F991F880F991F820F56
:10116000931FFC01EA56FE4F408302C081E0898351
:1011700089810F900F900F900F90CF91DF9108957C
:10118000DF93CF93CDB7DEB780919701909198010F
:10119000009729F0ECE2F0E0809196018083E091E5
:1011A0009701F09198010995CF91DF910895DF9310
:1011B000CF93CDB7DEB780919C0190919D010097B0
:1011C00039F0ABE2B0E0EBE2F0E0808180648C9338
:1011D000E0919C01F0919D010995CF91DF910895D7
:1011E000DF93CF93CDB7DEB78091A1019091A2019B
:1011F000009749F0ECE2F0E08081882F90E0909336
:101200009F0180939E01E091A101F091A2010995B7
:10121000CF91DF910895DF93CF93CDB7DEB7A1E2F1
:10122000B0E0E1E2F0E080818E7F8C93A1E2B0E05B
:10123000E1E2F0E080818D7F8C93E0E2F0E08CE0F1
:101240008083A6E5B0E0E6E5F0E0808184608C93E1
:1012500082E0CF91DF910895DF93CF93CDB7DEB7D2
:10126000E6E5F0E084EA8083E6E5F0E0808188232B
:10127000DCF782E0CF91DF910895DF93CF93CDB774
:10128000DEB7E6E5F0E084E9808382E0CF91DF918C
:101290000895DF93CF930F92CDB7DEB78983E3E252
:1012A000F0E089818083E6E5F0E084E88083E6E58C
:1012B000F0E080818823DCF782E00F90CF91DF910E
:1012C0000895DF93CF9300D00F92CDB7DEB79B8305
:1012D0008A8382E089838A819B81009719F481E067
:1012E00089830FC0E6E5F0E084EC8083E6E5F0E07A
:1012F00080818823DCF7E3E2F0E08081EA81FB81F2
:10130000808389810F900F900F90CF91DF91089586
:10131000DF93CF9300D00F92CDB7DEB79B838A8344
:1013200082E089838A819B81009719F481E0898317
:101330000FC0E6E5F0E084E88083E6E5F0E0808138
:101340008823DCF7E3E2F0E08081EA81FB8180839F
:1013500089810F900F900F90CF91DF910895DF93C7
:10136000CF9300D00F92CDB7DEB79B838A8382E004
:1013700089838A819B81009719F481E0898307C062
:10138000E1E2F0E08081887FEA81FB8180838981CE
:101390000F900F900F90CF91DF910895DF93CF932F
:1013A000CDB7DEB7ECE4F0E011821082AFE4B0E03C
:1013B000EFE4F0E080818E7F8C93AFE4B0E0EFE467
:1013C000F0E080818D7F8C93AEE4B0E0EEE4F0E05D
:1013D0008081877F8C93AEE4B0E0EEE4F0E0808122
:1013E0008F7E8C9382E0CF91DF910895DF93CF932E
:1013F000CDB7DEB7AEE4B0E0EEE4F0E08081887F08
:101400008C93AEE4B0E0EEE4F0E0808185608C93F4
:1014100082E0CF91DF910895DF93CF93CDB7DEB710
:10142000AEE4B0E0EEE4F0E08081887F8C9382E06F
:10143000CF91DF910895DF93CF93CDB7DEB781E0F1
:101440000E94CC0A82E0CF91DF910895DF93CF9381
:1014500000D000D0CDB7DEB78A8382E089838A814D
:10146000282F30E03C832B838B819C81009769F08F
:101470002B813C812130310581F4A9E5B0E0E9E51B
:10148000F0E0808180628C9309C0A9E5B0E0E9E5D5
:10149000F0E0808184608C9301C0198289810F9073
:1014A0000F900F900F90CF91DF910895DF93CF931E
:1014B00000D000D0CDB7DEB78A8382E089838A81ED
:1014C000282F30E03C832B838B819C81009769F02F
:1014D0002B813C812130310581F4A9E5B0E0E9E5BB
:1014E000F0E080818F7D8C9309C0A9E5B0E0E9E54B
:1014F000F0E080818B7F8C9301C0198289810F90ED
:101500000F900F900F90CF91DF910895DF93CF93BD
:1015100000D000D0CDB7DEB78A837C836B8382E0B6
:1015200089838B819C81009719F481E089830CC0A9
:101530008A81882F90E0880F991FFC01ED55FE4F9E
:101540008B819C819183808389810F900F900F9074
:101550000F90CF91DF910895DF93CF9300D00F923A
:10156000CDB7DEB79B838A8382E089838A819B81A2
:10157000009719F481E0898308C0E6E4F0E08081F7
:101580009181EA81FB819183808389810F900F9003
:101590000F90CF91DF910895DF93CF9300D000D0CB
:1015A000CDB7DEB78A8382E089838A81282F30E035
:1015B0003C832B838B819C81009731F02B813C8174
:1015C0002130310549F010C0AEE4B0E0EEE4F0E0C7
:1015D00080818F7B8C9309C0AEE4B0E0EEE4F0E054
:1015E000808180648C9301C0198289810F900F9053
:1015F0000F900F90CF91DF9108951F920F920FB629
:101600000F9211242F933F934F935F936F937F9388
:101610008F939F93AF93BF93EF93FF93DF93CF93FA
:10162000CDB7DEB78091A3019091A401009729F076
:10163000E091A301F091A4010995CF91DF91FF9171
:10164000EF91BF91AF919F918F917F916F915F913A
:101650004F913F912F910F900FBE0F901F901895B3
:101660001F920F920FB60F9211242F933F934F9317
:101670005F936F937F938F939F93AF93BF93EF93FA
:10168000FF93DF93CF93CDB7DEB78091A501909103
:10169000A601009729F0E091A501F091A601099516
:1016A000CF91DF91FF91EF91BF91AF919F918F917A
:1016B0007F916F915F914F913F912F910F900FBE4E
:1016C0000F901F901895DF93CF93CDB7DEB7A3E5AA
:1016D000B0E0E3E5F0E08081877B8C93A3E5B0E0A8
:1016E000E3E5F0E0808188648C93A3E5B0E0E3E576
:1016F000F0E080818F7C8C93A3E5B0E0E3E5F0E03F
:10170000808180638C9382E0CF91DF910895DF9395
:10171000CF93CDB7DEB7A3E5B0E0E3E5F0E080819D
:10172000887F8C93A3E5B0E0E3E5F0E080818560FD
:101730008C9382E0CF91DF910895DF93CF93CDB763
:10174000DEB7A3E5B0E0E3E5F0E08081887F8C932D
:1017500082E0CF91DF910895DF93CF9300D000D046
:1017600000D0CDB7DEB78A837C836B8382E0898328
:101770008B819C81009719F481E089831EC08A8146
:10178000282F30E03E832D838D819E81009731F09C
:101790002D813E812130310541F00EC08B819C812D
:1017A0009093A8018093A70108C08B819C8190939E
:1017B000AA018093A90101C01982898126960FB6DA
:1017C000F894DEBF0FBECDBFCF91DF910895DF93B8
:1017D000CF93CDB7DEB7A5970FB6F894DEBF0FBE97
:1017E000CDBF6D8F7E8F8F8F98A3CE0109969AA360
:1017F00089A3E0E7F1E0FCA3EBA3F4E1FDA3EBA1F7
:10180000FCA100808BA19CA101969CA38BA3E9A1C4
:10181000FAA1008289A19AA101969AA389A39DA108
:1018200091509DA3EDA1EE2351F7898D9A8DAB8D3B
:10183000BC8DBC01CD010E94A904DC01CB01BC011F
:10184000CD0120E030E040E851E40E941903DC01C2
:10185000CB018D839E83AF83B8878D8D9E8DAF8D99
:10186000B8A128EE33E040E050E0BC01CD010E9479
:101870004936DC01CB01BC01CD010E94A904DC0189
:10188000CB01BC01CD012D813E814F8158850E9445
:101890001903DC01CB01BC01CD010E944900DC0130
:1018A000CB0189839A83AB83BC8382E0A5960FB674
:1018B000F894DEBF0FBECDBFCF91DF910895DF93C7
:1018C000CF9300D000D0CDB7DEB78A8382E0898382
:1018D0008A81282F30E03C832B838B819C81009769
:1018E00031F02B813C812130310549F010C0A9E550
:1018F000B0E0E9E5F0E0808181608C9309C0A9E562
:10190000B0E0E9E5F0E0808182608C9301C019824B
:1019100089810F900F900F900F90CF91DF910895D4
:10192000DF93CF9300D000D0CDB7DEB78A8382E0BB
:1019300089838A81282F30E03C832B838B819C8193
:10194000009731F02B813C812130310549F010C0E6
:10195000A9E5B0E0E9E5F0E080818E7F8C9309C0D5
:10196000A9E5B0E0E9E5F0E080818D7F8C9301C0CE
:10197000198289810F900F900F900F90CF91DF9176
:101980000895DF93CF930F92CDB7DEB7898382E0BE
:101990000F90CF91DF910895DF93CF9300D000D0C7
:1019A00000D0CDB7DEB78A8382E089838A8185360D
:1019B00030F58CE590E09E838D838A81882F90E0BE
:1019C000982F882724E630E0B9010E948836CB01A1
:1019D0009C018FEF90E0821B930B9C838B83EB81A8
:1019E000FC81FF233CF48B819C81909581959F4FD6
:1019F0009C838B838B81ED81FE81808301C0198262
:101A0000898126960FB6F894DEBF0FBECDBFCF9169
:101A1000DF9108951F920F920FB60F9211242F930A
:101A20003F934F935F936F937F938F939F93AF9366
:101A3000BF93EF93FF93DF93CF93CDB7DEB7809142
:101A4000B4019091B501A091B601B091B701019692
:101A5000A11DB11D8093B4019093B501A093B6016F
:101A6000B093B7012091B4013091B5014091B60116
:101A70005091B7018091AB019091AC01A091AD0163
:101A8000B091AE01281739074A075B07C9F4E2E5B0
:101A9000F0E08091AF01819580838091A7019091C2
:101AA000A801009729F0E091A701F091A8010995FC
:101AB0001092B4011092B5011092B6011092B701C4
:101AC000CF91DF91FF91EF91BF91AF919F918F9156
:101AD0007F916F915F914F913F912F910F900FBE2A
:101AE0000F901F9018951F920F920FB60F9211240E
:101AF0002F933F934F935F936F937F938F939F9316
:101B0000AF93BF93EF93FF93DF93CF93CDB7DEB740
:101B10008091B8019091B901A091BA01B091BB0137
:101B20000196A11DB11D8093B8019093B901A093B6
:101B3000BA01B093BB012091B8013091B901409135
:101B4000BA015091BB018091B0019091B101A09177
:101B5000B201B091B301281739074A075B0799F41E
:101B60001092B8011092B9011092BA011092BB0103
:101B70008091A9019091AA01009729F0E091A90113
:101B8000F091AA010995CF91DF91FF91EF91BF915B
:101B9000AF919F918F917F916F915F914F913F9105
:101BA0002F910F900FBE0F901F901895DF93CF933A
:101BB000CDB7DEB7AFE5B0E0EFE5F0E0808180685B
:101BC0008C9382E0CF91DF910895DF93CF93CDB7CF
:101BD000DEB7AFE5B0E0EFE5F0E080818F778C9382
:101BE00082E0CF91DF910895DF93CF9300D000D0B2
:101BF0000F92CDB7DEB78A836B8382E089838B81B6
:101C0000843018F48B81823010F4198262C08A818A
:101C1000282F30E03D832C838C819D818630910577
:101C200059F02C813D8127303105B1F08C819D81A7
:101C30008530910541F139C0A5E5B0E0E5E5F0E07A
:101C400080818C7F8C93A5E5B0E0E5E5F0E09081A4
:101C50008B81892B8C932AC0A5E5B0E0E5E5F0E007
:101C60008081837F8C93A5E5B0E0E5E5F0E080819D
:101C7000282F8B81882F90E0880F991F880F991F3C
:101C8000822B8C9313C0A4E5B0E0E4E5F0E0808102
:101C90008F7B8C93A4E5B0E0E4E5F0E08081982FA1
:101CA0008B818074892B8C9301C01982ABE5B0E0E5
:101CB000EBE5F0E08081482F8A81282F30E081E039
:101CC00090E0022E02C0880F991F0A94E2F7842B3D
:101CD0008C9389810F900F900F900F900F90CF9160
:101CE000DF910895DF93CF9300D0CDB7DEB78A831D
:101CF00082E089838A818530C0F08A818830A8F4A7
:101D0000ABE5B0E0EBE5F0E08081482F8A81282F39
:101D100030E081E090E0022E02C0880F991F0A9403
:101D2000E2F7809584238C9301C0198289810F90FA
:101D30000F90CF91DF910895DF93CF9300D000D023
:101D400000D0CDB7DEB78A837C836B8382E0898342
:101D50008B819C81009719F481E089832BC08A8153
:101D6000282F30E03E832D838D819E818630910522
:101D700059F02D813E812730310569F08D819E819A
:101D80008530910579F015C08B819C819093BD01C0
:101D90008093BC010FC08B819C819093BF01809385
:101DA000BE0108C08B819C819093C1018093C001CA
:101DB00001C01982898126960FB6F894DEBF0FBE46
:101DC000CDBFCF91DF9108951F920F920FB60F9262
:101DD00011242F933F934F935F936F937F938F9330
:101DE0009F93AF93BF93EF93FF93DF93CF93CDB7C1
:101DF000DEB78091BC019091BD01009729F0E09180
:101E0000BC01F091BD010995CF91DF91FF91EF9158
:101E1000BF91AF919F918F917F916F915F914F9102
:101E20003F912F910F900FBE0F901F9018951F920A
:101E30000F920FB60F9211242F933F934F935F93FE
:101E40006F937F938F939F93AF93BF93EF93FF9382
:101E5000DF93CF93CDB7DEB78091BE019091BF01E4
:101E6000009729F0E091BE01F091BF010995CF9153
:101E7000DF91FF91EF91BF91AF919F918F917F91F2
:101E80006F915F914F913F912F910F900FBE0F90E7
:101E90001F9018951F920F920FB60F9211242F9337
:101EA0003F934F935F936F937F938F939F93AF93E2
:101EB000BF93EF93FF93DF93CF93CDB7DEB78091BE
:101EC000C0019091C101009729F0E091C001F0910B
:101ED000C1010995CF91DF91FF91EF91BF91AF9132
:101EE0009F918F917F916F915F914F913F912F9132
:101EF0000F900FBE0F901F901895DF93CF93CDB723
:101F0000DEB72D970FB6F894DEBF0FBECDBF8C8322
:101F10006D8382E08B838C819AE0692F0E94683602
:101F20008A838C819AE0692F0E946836892F898381
:101F30008A818130D1F58D81282F30E03D872C8733
:101F40008C859D85009731F02C853D8521303105AC
:101F5000B1F029C0AAE3B0E0EAE3F0E08081482FC5
:101F60008981282F30E081E090E0022E02C0880FA6
:101F7000991F0A94E2F7809584238C93CEC0AAE33C
:101F8000B0E0EAE3F0E08081482F8981282F30E03B
:101F900081E090E0022E02C0880F991F0A94E2F7B8
:101FA000842B8C93BAC01B82B8C08A818230D1F551
:101FB0008D81282F30E03B872A878A859B85009773
:101FC00031F02A853B8521303105B1F029C0A7E3E6
:101FD000B0E0E7E3F0E08081482F8981282F30E0EE
:101FE00081E090E0022E02C0880F991F0A94E2F768
:101FF000809584238C9391C0A7E3B0E0E7E3F0E001
:102000008081482F8981282F30E081E090E0022EE6
:1020100002C0880F991F0A94E2F7842B8C937DC02D
:102020001B827BC08A818330D1F58D81282F30E0DF
:102030003987288788859985009731F028853985E3
:1020400021303105B1F029C0A4E3B0E0E4E3F0E0D1
:102050008081482F8981282F30E081E090E0022E96
:1020600002C0880F991F0A94E2F7809584238C930D
:1020700054C0A4E3B0E0E4E3F0E08081482F89811C
:10208000282F30E081E090E0022E02C0880F991FD7
:102090000A94E2F7842B8C9340C01B823EC08A8155
:1020A0008430D1F58D81282F30E03F832E838E81BF
:1020B0009F81009731F02E813F8121303105B1F0B1
:1020C00029C0A1E3B0E0E1E3F0E08081482F8981FD
:1020D000282F30E081E090E0022E02C0880F991F87
:1020E0000A94E2F7809584238C9317C0A1E3B0E0B3
:1020F000E1E3F0E08081482F8981282F30E081E002
:1021000090E0022E02C0880F991F0A94E2F7842BF8
:102110008C9303C01B8201C01B828B812D960FB64E
:10212000F894DEBF0FBECDBFCF91DF910895DF934E
:10213000CF93CDB7DEB72D970FB6F894DEBF0FBEA5
:10214000CDBF8C836D8382E08B838C819AE0692F75
:102150000E9468368A838C819AE0692F0E946836D3
:10216000892F89838A818130D1F58D81282F30E0B4
:102170003D872C878C859D85009731F02C853D858A
:1021800021303105B1F029C0ABE3B0E0EBE3F0E082
:102190008081482F8981282F30E081E090E0022E55
:1021A00002C0880F991F0A94E2F7809584238C93CC
:1021B00052C0ABE3B0E0EBE3F0E08081482F8981CF
:1021C000282F30E081E090E0022E02C0880F991F96
:1021D0000A94E2F7842B8C933EC01B823CC08A8118
:1021E0008230C9F58D81282F30E03B872A878A8588
:1021F0009B85009731F02A853B8521303105B1F070
:1022000029C0A8E3B0E0E8E3F0E08081482F8981AD
:10221000282F30E081E090E0022E02C0880F991F45
:102220000A94E2F7809584238C9315C0A8E3B0E06C
:10223000E8E3F0E08081482F8981282F30E081E0B9
:1022400090E0022E02C0880F991F0A94E2F7842BB7
:102250008C9301C01B828A818330C9F58D81282F20
:1022600030E03987288788859985009731F028855F
:10227000398521303105B1F029C0A5E3B0E0E5E3AF
:10228000F0E08081482F8981282F30E081E090E0C4
:10229000022E02C0880F991F0A94E2F780958423CA
:1022A0008C9315C0A5E3B0E0E5E3F0E08081482F12
:1022B0008981282F30E081E090E0022E02C0880F53
:1022C000991F0A94E2F7842B8C9301C01B828A81A8
:1022D0008430D1F58D81282F30E03F832E838E818D
:1022E0009F81009731F02E813F8121303105B1F07F
:1022F00029C0A2E3B0E0E2E3F0E08081482F8981C9
:10230000282F30E081E090E0022E02C0880F991F54
:102310000A94E2F7809584238C9317C0A2E3B0E07F
:10232000E2E3F0E08081482F8981282F30E081E0CE
:1023300090E0022E02C0880F991F0A94E2F7842BC6
:102340008C9303C01B8201C01B828B812D960FB61C
:10235000F894DEBF0FBECDBFCF91DF910895DF931C
:10236000CF9300D000D00F92CDB7DEB78A836B83B6
:1023700082E089838A81282F30E03D832C838C8101
:102380009D8182309105D9F02C813D81233031052A
:1023900034F48C819D818130910561F01FC02C81C6
:1023A0003D812330310581F08C819D818430910500
:1023B00081F014C0EAE3F0E08B81808310C0E7E392
:1023C000F0E08B8180830BC0E4E3F0E08B818083BD
:1023D00006C0E1E3F0E08B81808301C0198289812E
:1023E0000F900F900F900F900F90CF91DF91089565
:1023F000DF93CF9300D000D00F92CDB7DEB78A83A2
:102400006B8382E089838A81282F30E03D832C838F
:102410008C819D8182309105D9F02C813D812330C2
:10242000310534F48C819D818130910561F01FC0AC
:102430002C813D812330310581F08C819D81843058
:10244000910581F014C0EBE3F0E08B81808310C034
:10245000E8E3F0E08B8180830BC0E5E3F0E08B8163
:10246000808306C0E2E3F0E08B81808301C01982A3
:1024700089810F900F900F900F900F90CF91DF9167
:102480000895DF93CF9300D000D000D0CDB7DEB752
:102490008C8382E08B838C819AE0692F0E9468365E
:1024A0008A838C819AE0692F0E946836892F8983FC
:1024B0008A81282F30E03E832D838D819E8182305A
:1024C000910551F12D813E812330310534F48D8108
:1024D0009E818130910561F05BC02D813E8123306A
:1024E000310571F18D819E8184309105E9F150C0F3
:1024F000ABE3B0E0EBE3F0E08081482F8981282F47
:1025000030E081E090E0022E02C0880F991F0A940B
:10251000E2F784278C933DC0A8E3B0E0E8E3F0E065
:102520008081482F8981282F30E081E090E0022EC1
:1025300002C0880F991F0A94E2F784278C9329C060
:10254000A5E3B0E0E5E3F0E08081482F8981282F02
:1025500030E081E090E0022E02C0880F991F0A94BB
:10256000E2F784278C9315C0A2E3B0E0E2E3F0E049
:102570008081482F8981282F30E081E090E0022E71
:1025800002C0880F991F0A94E2F784278C9301C038
:102590001B828B8126960FB6F894DEBF0FBECDBF8F
:1025A000CF91DF910895DF93CF93CDB7DEB7289712
:1025B0000FB6F894DEBF0FBECDBF8C837E836D83D4
:1025C00082E08B838D819E81009709F480C08C818D
:1025D0009AE0692F0E9468368A838C819AE0692F7D
:1025E0000E946836892F89838A81282F30E03887B6
:1025F0002F834F8158854230510559F18F8198853D
:102600008330910534F42F8138852130310569F00C
:102610005CC04F8158854330510579F18F81988591
:102620008430910509F43DC050C0E9E3F0E08081B9
:10263000282F30E08981882F90E0A90102C05595AC
:1026400047958A95E2F7CA018170ED81FE8180830A
:1026500040C0E6E3F0E08081282F30E08981882FB8
:1026600090E0A90102C0559547958A95E2F7CA0105
:102670008170ED81FE8180832CC0E3E3F0E08081F6
:10268000282F30E08981882F90E0A90102C055955C
:1026900047958A95E2F7CA018170ED81FE818083BA
:1026A00018C0E0E3F0E08081282F30E08981882F96
:1026B00090E0A90102C0559547958A95E2F7CA01B5
:1026C0008170ED81FE81808304C01B8202C081E0A5
:1026D0008B838B8128960FB6F894DEBF0FBECDBFDB
:1026E000CF91DF910895DF93CF9300D000D000D039
:1026F000CDB7DEB78A837C836B8382E089838B814D
:102700009C81009709F43EC08A81282F30E03E83E7
:102710002D838D819E8182309105E9F02D813E814E
:102720002330310534F48D819E818130910561F033
:1027300027C02D813E8123303105A1F08D819E81FE
:1027400084309105B1F01CC0E9E3F0E08081EB81B9
:10275000FC81808319C0E6E3F0E08081EB81FC819D
:10276000808312C0E3E3F0E08081EB81FC81808311
:102770000BC0E0E3F0E08081EB81FC81808304C04A
:10278000198202C081E08983898126960FB6F89468
:10279000DEBF0FBECDBFCF91DF910895DF93CF9302
:1027A00000D0CDB7DEB789836A83A6E2B0E0E6E267
:1027B000F0E0808180688C93A6E2B0E0E6E2F0E091
:1027C0008081887F8C93A6E2B0E0E6E2F0E0908121
:1027D0008981892B8C93A7E2B0E0E7E2F0E0808169
:1027E0008F738C93A7E2B0E0E7E2F0E090818A81FA
:1027F000892B8C9382E00F900F90CF91DF910895F9
:10280000DF93CF9300D00F92CDB7DEB789837B8360
:102810006A83A7E2B0E0E7E2F0E08081807E8C93FB
:10282000A7E2B0E0E7E2F0E090818981892B8C9308
:10283000A6E2B0E0E6E2F0E0808180648C93E6E21C
:10284000F0E0808182958F70882F90E08170907089
:102850000097A9F3A6E2B0E0E6E2F0E080818061B3
:102860008C93E4E2F0E080819181EA81FB819183A5
:10287000808382E00F900F900F90CF91DF910895A9
:10288000DF93CF93CDB7DEB783E261E00E947D0F87
:102890008EE260E00E947D0F28EC35E181E0B90115
:1028A0000E94860A20EF35E180E0B9010E94860A85
:1028B00082E0CF91DF910895EF92FF920F931F93E3
:1028C000DF93CF93CDB7DEB7A7970FB6F894DEBFEF
:1028D0000FBECDBF9FA38EA382E08DA38EA19FA12B
:1028E000009719F081E08DA345C10E94CE090E9496
:1028F0001B0A0E94F60981E00E94260A80E00E94DD
:10290000260A0E94D60D83E261E00E94971080E0C3
:1029100090E0A0E2B1E48D8B9E8BAF8BB88F6D8978
:102920007E898F89988D2BEA3AEA4AEA50E40E9420
:102930001F02DC01CB01898B9A8BAB8BBC8B698925
:102940007A898B899C8920E030E040E85FE30E942F
:10295000250488231CF481E0888B91C069897A89D9
:102960008B899C8920E030E04FE753E40E94C50347
:1029700018160CF07BC06D897E898F89988D20E0B8
:1029800030E04AE754E40E941903DC01CB018C8754
:102990009D87AE87BF876C857D858E859F8520E06E
:1029A00030E04AE755E40E941F02DC01CB01888732
:1029B0009987AA87BB87688579858A859B8520E06A
:1029C00030E040E85FE30E94250488232CF481E096
:1029D00090E09F838E833FC0688579858A859B853B
:1029E00020E03FEF4FE757E40E94C50318164CF56F
:1029F0006C857D858E859F8520E030E040E251E446
:102A00000E941F02DC01CB01BC01CD010E944900E4
:102A1000DC01CB019F838E830FC080E991E09D8311
:102A20008C838C819D810197F1F79D838C838E81AE
:102A30009F8101979F838E838E819F81009769F785
:102A400024C0688579858A859B850E944900DC01C0
:102A5000CB019F838E838E819F819B838A838A8112
:102A60009B810197F1F79B838A830FC069897A89DB
:102A70008B899C890E944900DC01CB01888B888965
:102A8000898389818A95F1F7898383E260E00E94D6
:102A9000971080916F018330E1F781E080936F019F
:102AA0008091C4019091C5019C0140E050E080916B
:102AB000C2019091C301CC01A0E0B0E079018A018C
:102AC000E81AF90A0A0B1B0BD801C70189A39AA3BC
:102AD000ABA3BCA380E090E0A0E8B2E48D8F9E8F12
:102AE000AF8FB8A369A17AA18BA19CA10E94A90470
:102AF000DC01CB01BC01CD012D8D3E8D4F8D58A148
:102B00000E941F02DC01CB01BC01CD0120E034E2B8
:102B100044E759E40E941903DC01CB01898F9A8FA5
:102B2000AB8FBC8F698D7A8D8B8D9C8D20E030E0D2
:102B300040E050E40E941903DC01CB01BC01CD014F
:102B400020E03CEF45E057E40E941F02DC01CB018E
:102B5000BC01CD010E940F37DC01CB01BC01CD01CE
:102B60000E944900DC01CB01EEA1FFA1808391838B
:102B7000A283B3838DA1A7960FB6F894DEBF0FBED4
:102B8000CDBFCF91DF911F910F91FF90EF900895EE
:102B9000DF93CF93CDB7DEB780916F01813059F4C9
:102BA00080E00E94CC0A82EC91E00E94AC0A82E0B4
:102BB00080936F0112C080916F01823071F484ECB8
:102BC00091E00E94AC0A83E080936F0181E00E9453
:102BD000560A0E940C0A0E94E50DCF91DF910895DC
:102BE000DF93CF93CDB7DEB78091C6018F5F80931F
:102BF000C601CF91DF910895DF93CF930F92CDB7A8
:102C0000DEB782E0898384E161E00E947D0F8BE082
:102C100061E00E947D0F8CE061E00E947D0F8DE0FD
:102C200061E00E947D0F8EE061E00E947D0F8FE0E9
:102C300061E00E947D0F80E161E00E947D0F81E1F3
:102C400061E00E947D0F84E261E00E947D0F85E2D9
:102C500061E00E947D0F89810F90CF91DF910895EF
:102C6000DF93CF93CDB7DEB7A6970FB6F894DEBF4C
:102C70000FBECDBF8AA382E089A38AA1843610F05B
:102C800019A202C48AA19AE0692F0E946836892F8E
:102C900088A38AA19AE0692F0E9468368F8F84E109
:102CA00060E00E9497101E8E1D8EE7C388A1282F1A
:102CB00030E03EA32DA38DA19EA18430910509F49F
:102CC000BBC02DA13EA125303105ECF48DA19EA104
:102CD0008130910509F459C02DA13EA12230310562
:102CE0002CF48DA19EA1009799F153C12DA13EA175
:102CF0002230310509F466C08DA19EA18330910573
:102D000009F47DC046C12DA13EA12730310509F44B
:102D1000EAC08DA19EA1883091056CF42DA13EA141
:102D20002530310509F4A5C08DA19EA186309105FD
:102D300009F4BCC02EC12DA13EA12830310509F4F3
:102D4000EFC08DA19EA18930910509F406C121C172
:102D50008BE061E00E9497108CE061E00E94971088
:102D60008DE061E00E9497108EE061E00E94971074
:102D70008FE061E00E94971080E161E00E9497106F
:102D800081E160E00E94971004C18BE060E00E9446
:102D900097108CE061E00E9497108DE061E00E9446
:102DA00097108EE060E00E9497108FE060E00E9434
:102DB000971080E160E00E94971081E160E00E943E
:102DC0009710E7C08BE061E00E9497108CE061E013
:102DD0000E9497108DE060E00E9497108EE061E005
:102DE0000E9497108FE061E00E94971080E160E000
:102DF0000E94971081E161E00E949710CAC08BE0A9
:102E000061E00E9497108CE061E00E9497108DE0D5
:102E100061E00E9497108EE061E00E9497108FE0C1
:102E200060E00E94971080E160E00E94971081E1CD
:102E300061E00E949710ADC08BE060E00E949710A7
:102E40008CE061E00E9497108DE061E00E94971095
:102E50008EE060E00E9497108FE060E00E94971083
:102E600080E161E00E94971081E161E00E9497108B
:102E700090C08BE061E00E9497108CE060E00E94BF
:102E800097108DE061E00E9497108EE061E00E9453
:102E900097108FE060E00E94971080E161E00E944F
:102EA000971081E161E00E94971073C08BE061E0B0
:102EB0000E9497108CE060E00E9497108DE061E026
:102EC0000E9497108EE061E00E9497108FE061E011
:102ED0000E94971080E161E00E94971081E161E01B
:102EE0000E94971056C08BE061E00E9497108CE022
:102EF00061E00E9497108DE061E00E9497108EE0E3
:102F000060E00E9497108FE060E00E94971080E1DF
:102F100060E00E94971081E160E00E94971039C044
:102F20008BE061E00E9497108CE061E00E949710B6
:102F30008DE061E00E9497108EE061E00E949710A2
:102F40008FE061E00E94971080E161E00E9497109D
:102F500081E161E00E9497101CC08BE061E00E945B
:102F600097108CE061E00E9497108DE061E00E9474
:102F700097108EE061E00E9497108FE060E00E9461
:102F8000971080E161E00E94971081E161E00E946A
:102F9000971084E261E00E94971085E260E00E9451
:102FA000971080E090E0A0E8BFE3898F9A8FAB8F05
:102FB000BC8F698D7A8D8B8D9C8D20E030E04AE747
:102FC00055E40E941F02DC01CB018D8B9E8BAF8BE1
:102FD000B88F6D897E898F89988D20E030E040E838
:102FE0005FE30E94250488232CF481E090E09C8B11
:102FF0008B8B3FC06D897E898F89988D20E03FEF54
:103000004FE757E40E94C50318164CF5698D7A8D79
:103010008B8D9C8D20E030E040E251E40E941F0245
:10302000DC01CB01BC01CD010E944900DC01CB01D8
:103030009C8B8B8B0FC080E991E09A8B898B89895F
:103040009A890197F1F79A8B898B8B899C890197D3
:103050009C8B8B8B8B899C89009769F714C06D8939
:103060007E898F89988D0E944900DC01CB019C8B61
:103070008B8B8B899C89988B8F878F8598890197FB
:10308000F1F7988B8F8785E261E00E9497108F8D12
:10309000282F30E03CA32BA38BA19CA18430910569
:1030A00009F4BBC02BA13CA125303105ECF48BA168
:1030B0009CA18130910509F459C02BA13CA122307B
:1030C00031052CF48BA19CA1009799F153C12BA140
:1030D0003CA12230310509F466C08BA19CA183304C
:1030E000910509F47DC046C12BA13CA127303105D3
:1030F00009F4EAC08BA19CA1883091056CF42BA146
:103100003CA12530310509F4A5C08BA19CA18630D6
:10311000910509F4BCC02EC12BA13CA1283031057A
:1031200009F4EFC08BA19CA18930910509F406C177
:1031300021C18BE061E00E9497108CE061E00E9469
:1031400097108DE061E00E9497108EE061E00E9490
:1031500097108FE061E00E94971080E161E00E948B
:10316000971081E160E00E94971004C18BE060E05D
:103170000E9497108CE061E00E9497108DE061E062
:103180000E9497108EE060E00E9497108FE060E050
:103190000E94971080E160E00E94971081E160E05A
:1031A0000E949710E7C08BE061E00E9497108CE0CE
:1031B00061E00E9497108DE060E00E9497108EE021
:1031C00061E00E9497108FE061E00E94971080E11B
:1031D00060E00E94971081E161E00E949710CAC0F0
:1031E0008BE061E00E9497108CE061E00E949710F4
:1031F0008DE061E00E9497108EE061E00E949710E0
:103200008FE060E00E94971080E160E00E949710DC
:1032100081E161E00E949710ADC08BE060E00E9408
:1032200097108CE061E00E9497108DE061E00E94B1
:1032300097108EE060E00E9497108FE060E00E949F
:10324000971080E161E00E94971081E161E00E94A7
:10325000971090C08BE061E00E9497108CE060E0D6
:103260000E9497108DE061E00E9497108EE061E06F
:103270000E9497108FE060E00E94971080E161E06B
:103280000E94971081E161E00E94971073C08BE06B
:1032900061E00E9497108CE060E00E9497108DE042
:1032A00061E00E9497108EE061E00E9497108FE02D
:1032B00061E00E94971080E161E00E94971081E137
:1032C00061E00E94971056C08BE061E00E94971069
:1032D0008CE061E00E9497108DE061E00E94971001
:1032E0008EE060E00E9497108FE060E00E949710EF
:1032F00080E160E00E94971081E160E00E949710F9
:1033000039C08BE061E00E9497108CE061E00E9480
:1033100097108DE061E00E9497108EE061E00E94BE
:1033200097108FE061E00E94971080E161E00E94B9
:10333000971081E161E00E9497101CC08BE061E072
:103340000E9497108CE061E00E9497108DE061E090
:103350000E9497108EE061E00E9497108FE060E07D
:103360000E94971080E161E00E94971081E161E086
:103370000E94971084E260E00E94971085E261E06D
:103380000E94971080E090E0A0E8BFE38B879C87C5
:10339000AD87BE876B857C858D859E8520E030E07E
:1033A0004AE755E40E941F02DC01CB018F83988716
:1033B000A987BA876F81788589859A8520E030E072
:1033C00040E85FE30E94250488232CF481E090E02C
:1033D0009E838D833FC06F81788589859A8520E0A3
:1033E0003FEF4FE757E40E94C50318164CF56B8575
:1033F0007C858D859E8520E030E040E251E40E948E
:103400001F02DC01CB01BC01CD010E944900DC019F
:10341000CB019E838D830FC080E991E09C838B83D9
:103420008B819C810197F1F79C838B838D819E8199
:1034300001979E838D838D819E81009769F714C0CB
:103440006F81788589859A850E944900DC01CB01CE
:103450009E838D838D819E819A83898389819A81C0
:103460000197F1F79A83898384E261E00E949710C3
:103470008D8D9E8D01969E8F8D8F8D8D9E8D21E0E1
:10348000843F920708F412CC89A1A6960FB6F8944F
:10349000DEBF0FBECDBFCF91DF910895DF93CF93F5
:1034A00000D00F92CDB7DEB79B838A8382E08983F9
:1034B0008A819B81009791F0EA81FB81808160E0A5
:1034C0000E947D0FEA81FB818181813049F4EA818C
:1034D000FB81808161E00E94971002C081E08983B6
:1034E00089810F900F900F90CF91DF910895DF9316
:1034F000CF93CDB7DEB764970FB6F894DEBF0FBE9B
:10350000CDBF9A8B898B7C8B6B8B82E08F8781E020
:10351000888BE989FA8980819E01205F3F4FB9013C
:103520000E94D3128889882309F094C080E090E03B
:10353000A8ECB2E48B879C87AD87BE876B857C85C2
:103540008D859E8520E030E04AE755E40E941F0209
:10355000DC01CB018F839887A987BA876F81788533
:1035600089859A8520E030E040E85FE30E942504E9
:1035700088232CF481E090E09E838D833FC06F818F
:10358000788589859A8520E03FEF4FE757E40E94D0
:10359000C50318164CF56B857C858D859E8520E0CE
:1035A00030E040E251E40E941F02DC01CB01BC018B
:1035B000CD010E944900DC01CB019E838D830FC0A9
:1035C00080E991E09C838B838B819C810197F1F74B
:1035D0009C838B838D819E8101979E838D838D81BA
:1035E0009E81009769F714C06F81788589859A85D7
:1035F0000E944900DC01CB019E838D838D819E81D9
:103600009A83898389819A810197F1F79A838983C3
:10361000E989FA8980819E01205F3F4FB9010E94AC
:10362000D3128889882389F409C0E989FA898081BD
:103630009E01205F3F4FB9010E94D31288898823E1
:10364000A1F3EB89FC89108209C0EB89FC8981E038
:10365000808304C0EB89FC8981E080838F85649638
:103660000FB6F894DEBF0FBECDBFCF91DF910895A6
:10367000DF93CF93CDB7DEB785E161E00E947D0F88
:1036800086E161E00E947D0F87E161E00E947D0F8D
:103690000E94630B0E94870B82E0CF91DF91089517
:1036A000DF93CF9300D000D00F92CDB7DEB78A83DF
:1036B0006B8382E089838A81282F30E03D832C83CD
:1036C0008C819D81009731F02C813D812130310525
:1036D00069F018C085E161E00E94971086E160E022
:1036E0000E9497108B810E94CC0C0DC085E160E098
:1036F0000E94971086E161E00E9497108B810E94E2
:10370000CC0C01C0198289810F900F900F900F90FF
:103710000F90CF91DF910895DF93CF930F92CDB7A4
:10372000DEB7898380E00E94CC0C0E949D0B82E072
:103730000F90CF91DF910895DF93CF93CDB7DEB790
:103740008BE060E00E947D0F86E061E00E94CE1376
:1037500082E0CF91DF910895DF93CF93CDB7DEB7AD
:1037600029970FB6F894DEBF0FBECDBF9987888723
:1037700082E08D8388859985009751F19E012A5FAB
:103780003F4F81E0B9010E9400148E819F81CC01DE
:10379000A0E0B0E0880F991FAA1FBB1F880F991FD8
:1037A000AA1FBB1F89839A83AB83BC8389819A81BB
:1037B000AB81BC812AE030E040E050E0BC01CD01AB
:1037C0000E949B36DA01C901E885F985808302C031
:1037D00081E08D838D8129960FB6F894DEBF0FBEF0
:1037E000CDBFCF91DF910895DF93CF9300D0CDB7B8
:1037F000DEB78A8382E089838A81803340F48A81BC
:103800008A3028F08A8161E00E947D0F01C0198210
:1038100089810F900F90CF91DF910895DF93CF931F
:1038200000D0CDB7DEB78A8382E089838A81803376
:1038300040F48A818A3028F08A8161E00E949710E2
:1038400001C0198289810F900F90CF91DF91089567
:10385000DF93CF9300D0CDB7DEB78A8382E0898330
:103860008A81803340F48A818A3028F08A8160E03E
:103870000E94971001C0198289810F900F90CF91FB
:10388000DF910895DF93CF9300D0CDB7DEB78A8361
:1038900082E089838A81803338F48A818A3020F0FB
:1038A0008A810E94411201C0198289810F900F9074
:1038B000CF91DF910895DF93CF930F92CDB7DEB70D
:1038C00082E0898383E261E00E947D0F82E261E011
:1038D0000E947D0F81E261E00E947D0F80E261E045
:1038E0000E947D0F8FE260E00E947D0F8EE260E01B
:1038F0000E947D0F8DE260E00E947D0F8BE260E010
:103900000E947D0F83E261E00E94971082E261E0F5
:103910000E94971081E261E00E94971080E261E0CE
:103920000E9497108FE261E00E9497108EE261E0A2
:103930000E9497108DE261E00E9497108BE261E097
:103940000E94971089810F90CF91DF910895DF93A6
:10395000CF93CDB7DEB7E1970FB6F894DEBF0FBEB9
:10396000CDBF9CA78BA78FEF898BCE0143969EA7D7
:103970008DA7E4E8F1E0F8ABEFA7F0E1F9ABEFA534
:10398000F8A900808FA598A9019698AB8FA7EDA5FF
:10399000FEA500828DA59EA501969EA78DA799A93B
:1039A000915099ABE9A9EE2351F783E28BA382E210
:1039B0008CA381E28DA380E28EA38FE28FA38EE29F
:1039C00088A78DE289A78BE28AA7188AE2C0888936
:1039D000282F30E0CE018396FC01E20FF31F808197
:1039E00060E00E9497101F86C1C08F85282F30E0AD
:1039F000CE018796FC01E20FF31F80819E012E5EAF
:103A00003F4FB9010E94D3128A89882309F0ABC0C5
:103A100080E090E0A0EAB1E48B879C87AD87BE8709
:103A20006B857C858D859E8520E030E04AE755E4F6
:103A30000E941F02DC01CB018F839887A987BA8778
:103A40006F81788589859A8520E030E040E85FE3E2
:103A50000E94250488232CF481E090E09E838D83CE
:103A60003FC06F81788589859A8520E03FEF4FE7D9
:103A700057E40E94C50318164CF56B857C858D852F
:103A80009E8520E030E040E251E40E941F02DC010C
:103A9000CB01BC01CD010E944900DC01CB019E831A
:103AA0008D830FC080E991E09C838B838B819C8107
:103AB0000197F1F79C838B838D819E8101979E8373
:103AC0008D838D819E81009769F714C06F81788501
:103AD00089859A850E944900DC01CB019E838D83F4
:103AE0008D819E819A83898389819A810197F1F7DB
:103AF0009A8389838F85282F30E0CE018796FC0139
:103B0000E20FF31F80819E012E5E3F4FB9010E949C
:103B1000D3128A89882339F50FC08F85282F30E08A
:103B2000CE018796FC01E20FF31F80819E012E5E7D
:103B30003F4FB9010E94D3128A89882371F3888983
:103B4000282F30E08F85482F50E0220F331F220F9F
:103B5000331FCE010196820F931F840F951FFC0126
:103B600072968081898B8F858F5F8F878F85843058
:103B700008F43BCF8889282F30E0CE018396FC01E2
:103B8000E20FF31F808161E00E94971088898F5FA8
:103B9000888B8889843008F41ACFEBA5FCA5898925
:103BA000808382E0E1960FB6F894DEBF0FBECDBFF2
:103BB000CF91DF910895DF93CF93CDB7DEB70E9409
:103BC0000B0982E0CF91DF910895DF93CF9300D06E
:103BD00000D000D0CDB7DEB79C838B836D830E946D
:103BE0002C09CE0102960E94AF098A81883019F013
:103BF00083E08E8336C08B819C8180709770880FA4
:103C0000892F881F990B919589838981806A0E94E9
:103C10004909CE0102960E94AF098A81883119F0C4
:103C200083E08E831EC08B810E944909CE010296DB
:103C30000E94AF098A81883219F083E08E8311C017
:103C40008D810E944909CE0102960E94AF098A81A6
:103C5000883219F083E08E8304C00E943D0982E01F
:103C60008E838E8126960FB6F894DEBF0FBECDBF31
:103C7000CF91DF910895DF93CF93CDB7DEB727972C
:103C80000FB6F894DEBF0FBECDBF9C838B837E83BF
:103C90006D830E942C09CE0102960E94AF098A8191
:103CA000883019F083E08F8350C08B819C818070B5
:103CB0009770880F892F881F990B91958983898127
:103CC000806A0E944909CE0102960E94AF098A814A
:103CD000883219F083E08F8338C08B810E944909B4
:103CE000CE0102960E94AF098A81883219F083E0E2
:103CF0008F832BC00E942C09CE0102960E94AF092F
:103D00008A81803119F083E08F831FC081EA0E948D
:103D10004909CE0102960E94AF098A81803419F0C8
:103D200083E08F8312C08D819E810E946109CE0144
:103D300002960E94AF098A81803519F083E08F8353
:103D400004C00E943D0982E08F838F8127960FB6C1
:103D5000F894DEBF0FBECDBFCF91DF910895DF9302
:103D6000CF9300D0CDB7DEB78A8382E089838A8182
:103D7000803340F48A818A3028F08A8161E00E9491
:103D80007D0F01C0198289810F900F90CF91DF9133
:103D90000895DF93CF9300D0CDB7DEB78A8382E05A
:103DA00089838A81803340F48A818A3028F08A812D
:103DB00061E00E94971001C0198289810F900F90D5
:103DC000CF91DF910895DF93CF9300D0CDB7DEB7C9
:103DD0008A8382E089838A81803340F48A818A30B1
:103DE00028F08A8160E00E94971001C019828981C1
:103DF0000F900F90CF91DF910895DF93CF93CDB7C0
:103E0000DEB760970FB6F894DEBF0FBECDBF888BCC
:103E100082E08F878889803308F07FC088898A3064
:103E200008F47BC0888961E00E94971080E090E0F0
:103E3000AAE7B4E48B879C87AD87BE876B857C85BA
:103E40008D859E8520E030E04AE755E40E941F0200
:103E5000DC01CB018F839887A987BA876F8178852A
:103E600089859A8520E030E040E85FE30E942504E0
:103E700088232CF481E090E09E838D833FC06F8186
:103E8000788589859A8520E03FEF4FE757E40E94C7
:103E9000C50318164CF56B857C858D859E8520E0C5
:103EA00030E040E251E40E941F02DC01CB01BC0182
:103EB000CD010E944900DC01CB019E838D830FC0A0
:103EC00080E991E09C838B838B819C810197F1F742
:103ED0009C838B838D819E8101979E838D838D81B1
:103EE0009E81009769F714C06F81788589859A85CE
:103EF0000E944900DC01CB019E838D838D819E81D0
:103F00009A83898389819A810197F1F79A838983BA
:103F1000888960E00E94971001C01F868F85609697
:103F20000FB6F894DEBF0FBECDBFCF91DF910895DD
:103F3000DF93CF93CDB7DEB7A0970FB6F894DEBF6F
:103F40000FBECDBF8F8F68A382E08E8F8F8D8033A1
:103F500008F0FBC08F8D8A3008F4F7C01D8EEFC0CB
:103F60008F8D61E00E94971080E090E0AAE7B4E4B2
:103F7000898F9A8FAB8FBC8F698D7A8D8B8D9C8D3D
:103F800020E030E04AE755E40E941F02DC01CB014B
:103F90008D8B9E8BAF8BB88F6D897E898F89988D25
:103FA00020E030E040E85FE30E94250488232CF401
:103FB00081E090E09C8B8B8B3FC06D897E898F89DF
:103FC000988D20E03FEF4FE757E40E94C503181695
:103FD0004CF5698D7A8D8B8D9C8D20E030E040E230
:103FE00051E40E941F02DC01CB01BC01CD010E9403
:103FF0004900DC01CB019C8B8B8B0FC080E991E0E9
:104000009A8B898B89899A890197F1F79A8B898B89
:104010008B899C8901979C8B8B8B8B899C890097C2
:1040200069F714C06D897E898F89988D0E94490037
:10403000DC01CB019C8B8B8B8B899C89988B8F8728
:104040008F8598890197F1F7988B8F878F8D60E026
:104050000E94971080E090E0AAE7B4E48B879C87E9
:10406000AD87BE876B857C858D859E8520E030E0A1
:104070004AE755E40E941F02DC01CB018F83988739
:10408000A987BA876F81788589859A8520E030E095
:1040900040E85FE30E94250488232CF481E090E04F
:1040A0009E838D833FC06F81788589859A8520E0C6
:1040B0003FEF4FE757E40E94C50318164CF56B8598
:1040C0007C858D859E8520E030E040E251E40E94B1
:1040D0001F02DC01CB01BC01CD010E944900DC01C3
:1040E000CB019E838D830FC080E991E09C838B83FD
:1040F0008B819C810197F1F79C838B838D819E81BD
:1041000001979E838D838D819E81009769F714C0EE
:104110006F81788589859A850E944900DC01CB01F1
:104120009E838D838D819E819A83898389819A81E3
:104130000197F1F79A8389838D8D8F5F8D8F9D8D88
:1041400088A1981708F40CCF01C01E8E8E8DA09602
:104150000FB6F894DEBF0FBECDBFCF91DF910895AB
:10416000DF93CF930F92CDB7DEB782E0898384E1EE
:1041700061E00E947D0F85E161E00E947D0F86E194
:1041800061E00E947D0F88E161E00E947D0F8DE07B
:1041900061E00E947D0F8CE061E00E947D0F89E16B
:1041A00061E00E947D0F8AE161E00E947D0F8981BC
:1041B0000F90CF91DF9108950F931F93DF93CF93CB
:1041C000CDB7DEB7CA54D0400FB6F894DEBF0FBEED
:1041D000CDBFFE01EF5BFF4F9183808382E08CAF08
:1041E000FE01FD96108211821282138283E08BAF52
:1041F000FE01EF5BFF4F8081918127E280319207C2
:1042000050F11CAE88C68BAD082F10E0FE01EF5BAD
:10421000FF4F808191812AE030E0B9010E9474361D
:10422000282FCE01CD96FC01E00FF11F20838E01D7
:104230000F5B1F4FFE01EF5BFF4F808191812AE0F2
:1042400030E0B9010E947436CB01F801918380837C
:104250008BAD81508BAFFE01EF5BFF4F8081918171
:10426000009789F61AAE19AE50C6FE01E05CFF4F0A
:104270008081282F30E02B963FAF2EAF2B972B96C7
:104280008EAD9FAD2B978430910509F4A4C02B9679
:10429000EEADFFAD2B97E530F10544F52B962EAD35
:1042A0003FAD2B972130310509F462C02B968EADBE
:1042B0009FAD2B978230910544F42B96EEADFFAD68
:1042C0002B97309709F443C0EBC02B962EAD3FAD32
:1042D0002B972230310509F45CC02B968EAD9FAD33
:1042E0002B978330910509F465C0DAC02B96EEADAB
:1042F000FFAD2B97E730F10509F4A0C02B962EAD4A
:104300003FAD2B97283031058CF42B968EAD9FADA9
:104310002B978530910509F46FC02B96EEADFFAD5C
:104320002B97E630F10509F478C0BAC02B962EAD74
:104330003FAD2B972830310509F491C02B968EADF7
:104340009FAD2B978930910509F49AC0A9C084E1EB
:1043500060E00E94971085E160E00E94971086E17E
:1043600060E00E94971088E160E00E94971098C07A
:1043700084E161E00E94971085E160E00E9497105F
:1043800086E160E00E94971088E160E00E9497104B
:1043900087C084E160E00E94971085E161E00E949F
:1043A000971086E160E00E94971088E160E00E942B
:1043B000971076C084E161E00E94971085E161E08A
:1043C0000E94971086E160E00E94971088E160E00B
:1043D0000E94971065C084E160E00E94971085E11B
:1043E00060E00E94971086E161E00E94971088E1EA
:1043F00060E00E94971054C084E161E00E94971031
:1044000085E160E00E94971086E161E00E949710CC
:1044100088E160E00E94971043C084E160E00E9460
:10442000971085E161E00E94971086E161E00E94AB
:10443000971088E160E00E94971032C084E161E04B
:104440000E94971085E161E00E94971086E161E08B
:104450000E94971088E160E00E94971021C084E1DB
:1044600060E00E94971085E160E00E94971086E16D
:1044700060E00E94971088E161E00E94971010C0F0
:1044800084E161E00E94971085E160E00E9497104E
:1044900086E160E00E94971088E161E00E94971039
:1044A0008DE060E00E94971080E090E0A0E8BFE31C
:1044B0008DAB9EABAFABB8AF6DA97EA98FA998AD00
:1044C00020E030E04AE755E40E941F02DC01CB0106
:1044D00089AB9AABABABBCAB69A97AA98BA99CA9F8
:1044E00020E030E040E85FE30E94250488232CF4BC
:1044F00081E090E098AB8FA73FC069A97AA98BA90A
:104500009CA920E03FEF4FE757E40E94C50318162F
:104510004CF56DA97EA98FA998AD20E030E040E26E
:1045200051E40E941F02DC01CB01BC01CD010E94BD
:104530004900DC01CB0198AB8FA70FC080E991E067
:104540009EA78DA78DA59EA50197F1F79EA78DA784
:104550008FA598A9019798AB8FA78FA598A90097C9
:1045600069F714C069A97AA98BA99CA90E9449007E
:10457000DC01CB0198AB8FA78FA598A99CA78BA72F
:104580008BA59CA50197F1F79CA78BA78DE061E017
:104590000E9497108FADE82FF0E02996FFAFEEAFA5
:1045A000299729962EAD3FAD29972430310509F47E
:1045B000A4C029968EAD9FAD29978530910544F50D
:1045C0002996EEADFFAD2997E130F10509F462C0FF
:1045D00029962EAD3FAD29972230310544F4299616
:1045E0008EAD9FAD2997009709F443C0EBC0299683
:1045F000EEADFFAD2997E230F10509F45CC02996D4
:104600002EAD3FAD29972330310509F465C0DAC0DE
:1046100029968EAD9FAD29978730910509F4A0C0EA
:104620002996EEADFFAD2997E830F1058CF4299677
:104630002EAD3FAD29972530310509F46FC029967D
:104640008EAD9FAD29978630910509F478C0BAC028
:104650002996EEADFFAD2997E830F10509F491C038
:1046600029962EAD3FAD29972930310509F49AC01E
:10467000A9C084E160E00E94971085E160E00E949B
:10468000971086E160E00E94971088E160E00E9448
:10469000971098C084E161E00E94971085E160E086
:1046A0000E94971086E160E00E94971088E160E028
:1046B0000E94971087C084E160E00E94971085E116
:1046C00061E00E94971086E160E00E94971088E107
:1046D00060E00E94971076C084E161E00E9497102C
:1046E00085E161E00E94971086E160E00E949710EA
:1046F00088E160E00E94971065C084E160E00E945C
:10470000971085E160E00E94971086E161E00E94C9
:10471000971088E160E00E94971054C084E161E046
:104720000E94971085E160E00E94971086E161E0A9
:104730000E94971088E160E00E94971043C084E1D6
:1047400060E00E94971085E161E00E94971086E189
:1047500061E00E94971088E160E00E94971032C0EB
:1047600084E161E00E94971085E161E00E9497106A
:1047700086E161E00E94971088E160E00E94971056
:1047800021C084E160E00E94971085E160E00E9412
:10479000971086E160E00E94971088E161E00E9436
:1047A000971010C084E161E00E94971085E160E0FD
:1047B0000E94971086E160E00E94971088E161E016
:1047C0000E9497108CE060E00E94971080E090E0DB
:1047D000A0E8BFE38FA398A7A9A7BAA76FA178A560
:1047E00089A59AA520E030E04AE755E40E941F021F
:1047F000DC01CB018BA39CA3ADA3BEA36BA17CA1C9
:104800008DA19EA120E030E040E85FE30E942504F6
:1048100088232CF481E090E09AA389A33FC06BA188
:104820007CA18DA19EA120E03FEF4FE757E40E94BD
:10483000C50318164CF56FA178A589A59AA520E0A7
:1048400030E040E251E40E941F02DC01CB01BC01D8
:10485000CD010E944900DC01CB019AA389A30FC0BE
:1048600080E991E098A38F8F8F8D98A10197F1F740
:1048700098A38F8F89A19AA101979AA389A389A14F
:104880009AA1009769F714C06BA17CA18DA19EA18C
:104890000E944900DC01CB019AA389A389A19AA1B6
:1048A0009E8F8D8F8D8D9E8D0197F1F79E8F8D8FB1
:1048B0008CE061E00E9497108EADE82FF0E0279623
:1048C000FFAFEEAF279727962EAD3FAD2797243049
:1048D000310509F4A4C027968EAD9FAD279785308A
:1048E000910544F52796EEADFFAD2797E130F10530
:1048F00009F462C027962EAD3FAD279722303105CF
:1049000044F427968EAD9FAD2797009709F443C0D6
:10491000EBC02796EEADFFAD2797E230F10509F425
:104920005CC027962EAD3FAD27972330310509F4A3
:1049300065C0DAC027968EAD9FAD27978730910569
:1049400009F4A0C02796EEADFFAD2797E830F1053A
:104950008CF427962EAD3FAD27972530310509F40D
:104960006FC027968EAD9FAD27978630910509F4CD
:1049700078C0BAC02796EEADFFAD2797E830F105B5
:1049800009F491C027962EAD3FAD27972930310508
:1049900009F49AC0A9C084E160E00E94971085E103
:1049A00060E00E94971086E160E00E94971088E125
:1049B00060E00E94971098C084E161E00E94971027
:1049C00085E160E00E94971086E160E00E94971008
:1049D00088E160E00E94971087C084E160E00E9457
:1049E000971085E161E00E94971086E160E00E94E7
:1049F000971088E160E00E94971076C084E161E042
:104A00000E94971085E161E00E94971086E160E0C6
:104A10000E94971088E160E00E94971065C084E1D1
:104A200060E00E94971085E160E00E94971086E1A7
:104A300061E00E94971088E160E00E94971054C0E6
:104A400084E161E00E94971085E160E00E94971088
:104A500086E161E00E94971088E160E00E94971073
:104A600043C084E160E00E94971085E161E00E940C
:104A7000971086E161E00E94971088E160E00E9453
:104A8000971032C084E161E00E94971085E161E0F7
:104A90000E94971086E161E00E94971088E160E033
:104AA0000E94971021C084E160E00E94971085E188
:104AB00060E00E94971086E160E00E94971088E114
:104AC00061E00E94971010C084E161E00E9497109D
:104AD00085E160E00E94971086E160E00E949710F7
:104AE00088E161E00E94971089E160E00E949710E0
:104AF00080E090E0A0E8BFE3898F9A8FAB8FBC8FF6
:104B0000698D7A8D8B8D9C8D20E030E04AE755E4ED
:104B10000E941F02DC01CB018D8B9E8BAF8BB88F67
:104B20006D897E898F89988D20E030E040E85FE3D1
:104B30000E94250488232CF481E090E09C8B8B8BD1
:104B40003FC06D897E898F89988D20E03FEF4FE7C8
:104B500057E40E94C50318164CF5698D7A8D8B8D2C
:104B60009C8D20E030E040E251E40E941F02DC0115
:104B7000CB01BC01CD010E944900DC01CB019C8B23
:104B80008B8B0FC080E991E09A8B898B89899A89F8
:104B90000197F1F79A8B898B8B899C8901979C8B64
:104BA0008B8B8B899C89009769F714C06D897E89EE
:104BB0008F89988D0E944900DC01CB019C8B8B8BE7
:104BC0008B899C89988B8F878F8598890197F1F7BE
:104BD000988B8F8789E161E00E9497108DADE82F57
:104BE000F0E02596FFAFEEAF259725962EAD3FADB1
:104BF00025972430310509F4A4C025968EAD9FADCC
:104C000025978530910544F52596EEADFFAD2597A6
:104C1000E130F10509F462C025962EAD3FAD259730
:104C20002230310544F425968EAD9FAD259700972F
:104C300009F443C0EBC02596EEADFFAD2597E230F9
:104C4000F10509F45CC025962EAD3FAD25972330C4
:104C5000310509F465C0DAC025968EAD9FAD259764
:104C60008730910509F4A0C02596EEADFFAD2597DC
:104C7000E830F1058CF425962EAD3FAD2597253013
:104C8000310509F46FC025968EAD9FAD259786300E
:104C9000910509F478C0BAC02596EEADFFAD259711
:104CA000E830F10509F491C025962EAD3FAD25976A
:104CB0002930310509F49AC0A9C084E160E00E945E
:104CC000971085E160E00E94971086E160E00E9405
:104CD000971088E160E00E94971098C084E161E03D
:104CE0000E94971085E160E00E94971086E160E0E5
:104CF0000E94971088E160E00E94971087C084E1CD
:104D000060E00E94971085E161E00E94971086E1C3
:104D100060E00E94971088E160E00E94971076C0E2
:104D200084E161E00E94971085E161E00E949710A4
:104D300086E160E00E94971088E160E00E94971091
:104D400065C084E160E00E94971085E160E00E9408
:104D5000971086E161E00E94971088E160E00E9470
:104D6000971054C084E161E00E94971085E160E0F3
:104D70000E94971086E161E00E94971088E160E050
:104D80000E94971043C084E160E00E94971085E183
:104D900061E00E94971086E161E00E94971088E12F
:104DA00060E00E94971032C084E161E00E94971099
:104DB00085E161E00E94971086E161E00E94971012
:104DC00088E160E00E94971021C084E160E00E94C9
:104DD000971085E160E00E94971086E160E00E94F4
:104DE000971088E161E00E94971010C084E161E0B3
:104DF0000E94971085E160E00E94971086E160E0D4
:104E00000E94971088E161E00E9497108AE160E0BB
:104E10000E94971080E090E0A0E8BFE38B879C871A
:104E2000AD87BE876B857C858D859E8520E030E0D3
:104E30004AE755E40E941F02DC01CB018F8398876B
:104E4000A987BA876F81788589859A8520E030E0C7
:104E500040E85FE30E94250488232CF481E090E081
:104E60009E838D833FC06F81788589859A8520E0F8
:104E70003FEF4FE757E40E94C50318164CF56B85CA
:104E80007C858D859E8520E030E040E251E40E94E3
:104E90001F02DC01CB01BC01CD010E944900DC01F5
:104EA000CB019E838D830FC080E991E09C838B832F
:104EB0008B819C810197F1F79C838B838D819E81EF
:104EC00001979E838D838D819E81009769F714C021
:104ED0006F81788589859A850E944900DC01CB0124
:104EE0009E838D838D819E819A83898389819A8116
:104EF0000197F1F79A8389838AE161E00E94971014
:104F000089AD9AAD01969AAF89AF89AD9AAD8B34D0
:104F1000910508F4AAC98CADC65BDF4F0FB6F894B3
:104F2000DEBF0FBECDBFCF91DF911F910F910895CE
:104F30000F931F93DF93CF93CDB7DEB7C155D0400A
:104F40000FB6F894DEBF0FBECDBFFE01EF5AFF4F84
:104F500082E080838DE061E00E947D0F8CE061E063
:104F60000E947D0F88E161E00E947D0F86E161E093
:104F70000E947D0F85E161E00E947D0F84E161E088
:104F80000E947D0FFE01E35BFF4F80E090E0A0EA0E
:104F9000B1E480839183A283B3838E01075B1F4FAB
:104FA000FE01E35BFF4F608171818281938120E08C
:104FB00030E04AE755E40E941F02DC01CB01F80112
:104FC00080839183A283B383FE01E75BFF4F6081FF
:104FD00071818281938120E030E040E85FE30E94AC
:104FE0002504882344F4FE01E95BFF4F81E090E053
:104FF0009183808364C0FE01E75BFF4F6081718114
:105000008281938120E03FEF4FE757E40E94C50380
:1050100018160CF043C0FE01E35BFF4F6081718105
:105020008281938120E030E040E251E40E941F023F
:10503000DC01CB018E01095B1F4FBC01CD010E9439
:105040004900DC01CB01F801918380831FC0FE0180
:10505000EB5BFF4F80E991E091838083FE01EB5B86
:10506000FF4F808191810197F1F7FE01EB5BFF4FCC
:1050700091838083DE01A95BBF4FFE01E95BFF4F97
:1050800080819181019711969C938E93FE01E95B3B
:10509000FF4F808191810097D1F627C08E01095B77
:1050A0001F4FFE01E75BFF4F608171818281938119
:1050B0000E944900DC01CB01F80191838083DE016D
:1050C000AD5BBF4FFE01E95BFF4F808191818D9306
:1050D0009C93FE01ED5BFF4F808191810197F1F779
:1050E000FE01ED5BFF4F918380838CE060E00E94C6
:1050F000971080E30E94D52AFE01FF9680E090E0A1
:10510000A0EAB0E480839183A283B383FE01FF967B
:10511000608171818281938120E030E04AE755E42B
:105120000E941F02DC01CB018BAF9CAFADAFBEAFC5
:105130006BAD7CAD8DAD9EAD20E030E040E85FE32F
:105140000E94250488232CF481E090E09AAF89AF77
:1051500041C06BAD7CAD8DAD9EAD20E03FEF4FE724
:1051600057E40E94C50318165CF5FE01FF966081A6
:1051700071818281938120E030E040E251E40E941D
:105180001F02DC01CB01BC01CD010E944900DC0102
:10519000CB019AAF89AF0FC080E991E098AF8FAB98
:1051A0008FA998AD0197F1F798AF8FAB89AD9AAD04
:1051B00001979AAF89AF89AD9AAD009769F714C08E
:1051C0006BAD7CAD8DAD9EAD0E944900DC01CB0185
:1051D0009AAF89AF89AD9AAD9EAB8DAB8DA99EA9D3
:1051E0000197F1F79EAB8DAB80E30E94D52A80E05A
:1051F00090E0A8ECB2E489AB9AABABABBCAB69A9CD
:105200007AA98BA99CA92BEA3AEA4AEA50E40E94BF
:105210001F02DC01CB018DA79EA7AFA7B8AB6DA580
:105220007EA58FA598A920E030E040E85FE30E94CA
:10523000250488231CF481E08CA791C06DA57EA570
:105240008FA598A920E030E04FE753E40E94C50302
:1052500018160CF07BC069A97AA98BA99CA920E03B
:1052600030E04AE754E40E941903DC01CB0188A72F
:1052700099A7AAA7BBA768A579A58AA59BA520E0A1
:1052800030E04AE755E40E941F02DC01CB018CA309
:105290009DA3AEA3BFA36CA17DA18EA19FA120E081
:1052A00030E040E85FE30E94250488232CF481E08D
:1052B00090E09BA38AA33FC06CA17DA18EA19FA17A
:1052C00020E03FEF4FE757E40E94C50318164CF566
:1052D00068A579A58AA59BA520E030E040E251E4CD
:1052E0000E941F02DC01CB01BC01CD010E944900DC
:1052F000DC01CB019BA38AA30FC080E991E099A3B5
:1053000088A388A199A10197F1F799A388A38AA1FD
:105310009BA101979BA38AA38AA19BA1009769F7F0
:1053200024C06CA17DA18EA19FA10E944900DC0137
:10533000CB019BA38AA38AA19BA19F8F8E8F8E8D69
:105340009F8D0197F1F79F8F8E8F0FC06DA57EA562
:105350008FA598A90E944900DC01CB018CA78CA5E0
:105360008D8F8D8D8A95F1F78D8F80E30E94D52AE0
:1053700080E20E94D52A8CE061E00E94971080E0D4
:1053800090E0A0E8BFE3898F9A8FAB8FBC8F698DC7
:105390007A8D8B8D9C8D20E030E04AE755E40E94A9
:1053A0001F02DC01CB018D8B9E8BAF8BB88F6D897B
:1053B0007E898F89988D20E030E040E85FE30E948D
:1053C000250488232CF481E090E09C8B8B8B3FC0DC
:1053D0006D897E898F89988D20E03FEF4FE757E4F4
:1053E0000E94C50318164CF5698D7A8D8B8D9C8DA6
:1053F00020E030E040E251E40E941F02DC01CB01DA
:10540000BC01CD010E944900DC01CB019C8B8B8B40
:105410000FC080E991E09A8B898B89899A890197DD
:10542000F1F79A8B898B8B899C8901979C8B8B8B4D
:105430008B899C89009769F714C06D897E898F8953
:10544000988D0E944900DC01CB019C8B8B8B8B8952
:105450009C89988B8F878F8598890197F1F7988B16
:105460008F878CE060E00E94971080E090E0A0EFD2
:10547000B1E48B879C87AD87BE876B857C858D85E6
:105480009E8520E030E04AE755E40E941F02DC01DF
:10549000CB018F839887A987BA876F8178858985A3
:1054A0009A8520E030E040E85FE30E9425048823ED
:1054B0002CF481E090E09E838D833FC06F817885DE
:1054C00089859A8520E03FEF4FE757E40E94C503A6
:1054D00018164CF56B857C858D859E8520E030E027
:1054E00040E251E40E941F02DC01CB01BC01CD016E
:1054F0000E944900DC01CB019E838D830FC080E9AF
:1055000091E09C838B838B819C810197F1F79C8335
:105510008B838D819E8101979E838D838D819E815A
:10552000009769F714C06F81788589859A850E94F4
:105530004900DC01CB019E838D838D819E819A83FE
:10554000898389819A810197F1F79A83898388E217
:105550000E94D52A8EE00E94D52A81E00E94D52A99
:1055600086E00E94D52AFE01EF5AFF4F8081CF5A74
:10557000DF4F0FB6F894DEBF0FBECDBFCF91DF91E6
:105580001F910F910895DF93CF930F92CDB7DEB7A0
:1055900089838DE061E00E94971089810E94232C0D
:1055A00082E00F90CF91DF910895DF93CF930F9218
:1055B000CDB7DEB789838DE060E00E9497108981C6
:1055C0000E94232C82E00F90CF91DF910895DF930A
:1055D000CF9300D0CDB7DEB79A8389830AC0E98123
:1055E000FA8180810E94C32A89819A8101969A83D7
:1055F0008983E981FA818081882389F782E00F908D
:105600000F90CF91DF910895DF93CF93CDB7DEB7A1
:1056100081E00E94D52A82E0CF91DF9108950F9317
:105620001F93DF93CF93CDB7DEB72F970FB6F894C4
:10563000DEBF0FBECDBF6C877D878E879F878AE0D8
:10564000FE013296DF01982F1D929A95E9F7198293
:105650008C859D85AE85BF850097A105B10521F498
:1056600080E30E94C32A66C08C859D85AE85BF8578
:10567000BB230CF040C08DE20E94C32A8C859D851F
:10568000AE85BF85B095A095909581959F4FAF4F02
:10569000BF4F8C879D87AE87BF872DC08981082F1C
:1056A00010E08C859D85AE85BF852AE030E040E026
:1056B00050E0BC01CD010E94BD36DC01CB01282F9A
:1056C000CE010296FC01E00FF11F20838C859D85A1
:1056D000AE85BF852AE030E040E050E0BC01CD015E
:1056E0000E94BD36DA01C9018C879D87AE87BF87CE
:1056F00089818F5F89838C859D85AE85BF851816CE
:1057000019061A061B0654F212C08981882F90E0F0
:105710009C0121503040CE010296FC01E20FF31FA4
:105720008081805D0E94C32A89818150898389811B
:10573000882359F782E02F960FB6F894DEBF0FBE8C
:10574000CDBFCF91DF911F910F910895DF93CF933C
:1057500000D000D00F92CDB7DEB78A836B8382E092
:1057600089838B818431A8F58A81282F30E03D839D
:105770002C838C819D8181309105D1F02C813D81DC
:10578000223031052CF48C819D81009761F01FC07F
:105790002C813D812230310581F08C819D818330C7
:1057A000910581F014C08B8180680E94D52A12C0B7
:1057B0008B8184690E94D52A0DC08B81806C0E94E8
:1057C000D52A08C08B81846D0E94D52A03C0198216
:1057D00001C0198289810F900F900F900F900F9048
:1057E000CF91DF910895DF93CF9300D000D0CDB754
:1057F000DEB78A837C836B838A81882F90E008964A
:10580000880F991F880F991F880F991F0E94D52A0A
:1058100019820EC08981282F30E08B819C81FC0188
:10582000E20FF31F80810E94C32A89818F5F8983E1
:105830008981883078F382E00F900F900F900F905D
:10584000CF91DF910895DF93CF93CDB7DEB7EF9778
:105850000FB6F894DEBF0FBECDBF8FAF84E18BAF24
:1058600085E18CAF86E18DAF88E18EAF8CE060E0A2
:105870000E9497101AAE20C08AAD282F30E0CE01CA
:10588000CB96FC01E20FF31F40818FAD282F30E053
:105890008AAD882F90E00496B90102C0759567958E
:1058A0008A95E2F7CB01982F9170842F692F0E947F
:1058B00097108AAD8F5F8AAF8AAD8430E8F28CE0B2
:1058C00061E00E94971080E090E0A0E8BFE38DAB1C
:1058D0009EABAFABB8AF6DA97EA98FA998AD20E004
:1058E00030E04AE755E40E941F02DC01CB0189AB9E
:1058F0009AABABABBCAB69A97AA98BA99CA920E0F8
:1059000030E040E85FE30E94250488232CF481E026
:1059100090E098AB8FA73FC069A97AA98BA99CA9F1
:1059200020E03FEF4FE757E40E94C50318164CF5FF
:105930006DA97EA98FA998AD20E030E040E251E446
:105940000E941F02DC01CB01BC01CD010E94490075
:10595000DC01CB0198AB8FA70FC080E991E09EA737
:105960008DA78DA59EA50197F1F79EA78DA78FA561
:1059700098A9019798AB8FA78FA598A9009769F769
:1059800014C069A97AA98BA99CA90E944900DC01CD
:10599000CB0198AB8FA78FA598A99CA78BA78BA5A8
:1059A0009CA50197F1F79CA78BA78CE060E00E9473
:1059B000971080E090E0A0EFB1E48FA398A7A9A78B
:1059C000BAA76FA178A589A59AA520E030E04AE79B
:1059D00055E40E941F02DC01CB018BA39CA3ADA365
:1059E000BEA36BA17CA18DA19EA120E030E040E888
:1059F0005FE30E94250488232CF481E090E09AA3C1
:105A000089A33FC06BA17CA18DA19EA120E03FEFA7
:105A10004FE757E40E94C50318164CF56FA178A50F
:105A200089A59AA520E030E040E251E40E941F02DF
:105A3000DC01CB01BC01CD010E944900DC01CB019E
:105A40009AA389A30FC080E991E098A38F8F8F8DCF
:105A500098A10197F1F798A38F8F89A19AA1019737
:105A60009AA389A389A19AA1009769F714C06BA191
:105A70007CA18DA19EA10E944900DC01CB019AA3CB
:105A800089A389A19AA19E8F8D8F8D8D9E8D01975F
:105A9000F1F79E8F8D8F19AE1FC089AD282F30E092
:105AA000CE01CB96FC01E20FF31F40818FAD282F72
:105AB00030E089AD882F90E0B90102C075956795F7
:105AC0008A95E2F7CB01982F9170842F692F0E945D
:105AD000971089AD8F5F89AF89AD8430F0F28CE08B
