:100000000C942A000C9447000C9447000C94470071
:100010000C9447000C9447000C9447000C94470044
:100020000C9447000C9447000C9423090C94BA08D4
:100030000C9447000C9447000C9447000C94470024
:100040000C9447000C9447000C9447000C94470014
:100050000C94470011241FBECFE5D8E0DEBFCDBF12
:1000600011E0A0E6B0E0E6E0FFE202C005900D92EC
:10007000A43EB107D9F711E0A4EEB1E001C01D9292
:10008000A93FB107E1F70E94B0160C9481170C94B8
:100090000000EF92FF920F931F937B018C0120E0F1
:1000A00030E040E05FE40E94F50388238CF0C80153
:1000B000B70120E030E040E05FE40E94C1010E940F
:1000C00055049B01AC01205030404040504806C0D0
:1000D000C801B7010E9455049B01AC01B901CA01D6
:1000E0001F910F91FF90EF900895A0E0B0E0EBE733
:1000F000F0E00C944A17DC012B01FA019C9192303C
:1001000008F439C1EB018881823008F433C194309E
:1001100069F4843009F02FC111969C91119789815F
:10012000981709F428C1A7EBB0E025C1843009F481
:1001300021C18230A9F4923009F01DC19A01AD01AC
:1001400088E0EA010990AE01E90109929E0181501F
:10015000C1F7E201898111969C918923818308C1AD
:10016000923009F407C112962D903C901397EB0141
:100170008A819B811496AD90BD90CD90DC901797AD
:10018000EC80FD800E811F819101281B390BB90184
:1001900037FF04C066277727621B730B6032710537
:1001A0000CF061C0121613066CF537014801062EDB
:1001B00004C096948794779467940A94D2F721E0C8
:1001C00030E040E050E004C0220F331F441F551FB1
:1001D0006A95D2F721503040404050402E213F21B7
:1001E00040235123211531054105510521F021E01E
:1001F00030E040E050E079018A01E628F72808293C
:1002000019293CC0232BD1F1260E371E350146019A
:10021000062E04C096948794779467940A94D2F734
:1002200021E030E040E050E004C0220F331F441FC3
:10023000551F6A95D2F721503040404050402A2146
:100240003B214C215D21211531054105510521F04E
:1002500021E030E040E050E059016A01A628B728CB
:10026000C828D9280BC0821593052CF01C01AA249C
:10027000BB24650103C0EE24FF24870111969C91E5
:10028000D20111968C91981709F445C0992339F041
:10029000A80197012A193B094C095D0906C0A6016E
:1002A00095012E193F09400B510B57FD08C01182D3
:1002B0003382228224833583468357831DC081E0A5
:1002C00081833382228288279927DC01821B930B4A
:1002D000A40BB50B84839583A683B7830DC0220F2F
:1002E000331F441F551F24833583468357838281E0
:1002F000938101979383828324813581468157813D
:10030000DA01C9010197A109B1098F5F9F4FAF4F72
:10031000BF4328F30BC0918333822282EA0CFB1C7B
:100320000C1D1D1DE482F5820683178383E0808304
:10033000248135814681578157FF1AC0C901AA27F8
:1003400097FDA095BA2F81709070A070B0705695EF
:10035000479537952795822B932BA42BB52B848318
:100360009583A683B7838281938101969383828349
:10037000DF0101C0D201CD01CDB7DEB7E2E10C94BF
:100380006617A0E2B0E0E7ECF1E00C945617698341
:100390007A838B839C832D833E834F835887E9E048
:1003A000EE2EF12CEC0EFD1ECE010196B7010E943F
:1003B00046068E010F5E1F4FCE010596B8010E94C2
:1003C00046068A8991E089278A8BC701B801AE0168
:1003D000475E5F4F0E9475000E947105A096E6E09F
:1003E0000C947217A0E2B0E0E8EFF1E00C9456171D
:1003F00069837A838B839C832D833E834F835887C5
:10040000F9E0EF2EF12CEC0EFD1ECE010196B701A6
:100410000E9446068E010F5E1F4FCE010596B80161
:100420000E944606C701B801AE01475E5F4F0E94B9
:1004300075000E947105A096E6E00C947217A0E288
:10044000B0E0E5E2F2E00C944A1769837A838B838B
:100450009C832D833E834F835887CE010196BE0136
:10046000675F7F4F0E944606CE010596BE016F5E14
:100470007F4F0E9446069985923088F089898230A4
:10048000C8F0943019F4823051F404C0843029F457
:10049000923081F487EB90E0C6C0923049F420E0BE
:1004A0009A858A89981321E02A87CE010996BBC0D4
:1004B000823049F420E09A858A89981321E02A8BBA
:1004C000CE014196B0C02D843E844F8458886D88FB
:1004D0007E888F88988CEE24FF248701AA24BB2471
:1004E000650140E050E060E070E0E0E0F0E0C10174
:1004F00081709070892BE9F0E60CF71C081D191D1E
:100500009A01AB012A0D3B1D4C1D5D1D80E090E062
:10051000A0E0B0E0E614F7040805190520F481E036
:1005200090E0A0E0B0E0BA01A901480F591F6A1F8E
:100530007B1FAA0CBB1CCC1CDD1C97FE08C081E0F5
:1005400090E0A0E0B0E0A82AB92ACA2ADB2A3196B6
:10055000E032F10549F0660C771C881C991C569412
:10056000479437942794C3CFFA85EA892B893C892D
:100570008B859C85280F391F2E5F3F4F17C0CA01FE
:1005800081709070892B61F016950795F794E79428
:1005900080E090E0A0E0B0E8E82AF92A0A2B1B2BC3
:1005A00076956795579547952F5F3F4F77FDE7CF36
:1005B0000CC0440F551F661F771F17FD4160EE0CDE
:1005C000FF1C001F111F21503040403090E05907A0
:1005D00090E0690790E4790760F32B8F3C8FDB0193
:1005E000CA018F779070A070B07080349105A1051A
:1005F000B10561F447FD0AC0E114F10401051105DC
:1006000029F0405C5F4F6F4F7F4F40781A8EFE1786
:1006100011F081E08A8F4D8F5E8F6F8F78A383E01A
:10062000898FCE0149960E947105A096E2E10C9453
:100630006617A8E1B0E0EFE1F3E00C94521769838C
:100640007A838B839C832D833E834F835887B9E0C5
:10065000EB2EF12CEC0EFD1ECE010196B7010E948F
:1006600046068E010F5E1F4FCE010596B8010E940F
:1006700046062985223008F47EC03989323010F4CC
:10068000B8017CC08A859A8989278A87243011F02D
:10069000223031F4231709F06EC067EB70E06EC0B2
:1006A000343039F41D861E861F86188A1C861B86E8
:1006B00004C0323021F484E08987B7015FC02B8504
:1006C0003C858B899C89281B390B3C872B87ED84C3
:1006D000FE840F851889AD88BE88CF88D88CEA142F
:1006E000FB040C051D0540F4EE0CFF1C001F111F40
:1006F000215030403C872B8720E030E040E050E044
:1007000080E090E0A0E0B0E460E070E0EA14FB0478
:100710000C051D0540F0282B392B4A2B5B2BEA18C2
:10072000FB080C091D09B695A79597958795EE0CC2
:10073000FF1C001F111F6F5F7F4F6F31710531F775
:10074000DA01C9018F779070A070B0708034910584
:10075000A105B10561F427FD0AC0E114F10401050A
:10076000110529F0205C3F4F4F4F5F4F20782D87B8
:100770003E874F87588BBE01675F7F4FCB010E943A
:1007800071056896EAE00C946E17A8E1B0E0EBEC16
:10079000F3E00C94561769837A838B839C832D83B3
:1007A0003E834F83588789E0E82EF12CEC0EFD1E26
:1007B000CE010196B7010E9446068E010F5E1F4FC3
:1007C000CE010596B8010E9446068985823040F028
:1007D0008989823028F0C701B8010E94BE0601C095
:1007E0008FEF6896E6E00C947217A8E1B0E0EBEFAB
:1007F000F3E00C94561769837A838B839C832D8353
:100800003E834F83588789E0E82EF12CEC0EFD1EC5
:10081000CE010196B7010E9446068E010F5E1F4F62
:10082000CE010596B8010E9446068985823040F0C7
:100830008989823028F0C701B8010E94BE0601C034
:100840008FEF6896E6E00C947217A8E1B0E0EBE257
:10085000F4E00C94561769837A838B839C832D83F1
:100860003E834F83588789E0E82EF12CEC0EFD1E65
:10087000CE010196B7010E9446068E010F5E1F4F02
:10088000CE010596B8010E9446068985823040F067
:100890008989823028F0C701B8010E94BE0601C0D4
:1008A00081E06896E6E00C947217ACE0B0E0EBE50E
:1008B000F4E00C945A1769837A838B839C83CE016E
:1008C0000196BE016B5F7F4F0E9446068D8182308C
:1008D00061F1823050F1843021F48E81882351F10E
:1008E0002EC02F81388537FD20C06E812F31310514
:1008F0001CF06623F9F023C08EE190E0821B930B7D
:1009000029853A854B855C8504C056954795379572
:1009100027958A95D2F76623B1F05095409530958A
:1009200021953F4F4F4F5F4F0EC020E030E040E039
:1009300050E009C02FEF3FEF4FEF5FE704C020E02A
:1009400030E040E050E8B901CA012C96E2E00C9496
:100950007617A8E0B0E0EFEAF4E00C9452177B01C0
:100960008C01611571058105910519F482E0898377
:1009700060C083E089838EE1C82ED12CDC82CB82DB
:10098000ED82FE820F831887C801B7010E942205FD
:10099000FC013197F7FF3BC0222733272E1B3F0B6B
:1009A00057016801022E04C0D694C794B794A79447
:1009B0000A94D2F740E050E060E070E081E090E01F
:1009C000A0E0B0E004C0880F991FAA1FBB1F2A95A2
:1009D000D2F70197A109B1098E219F21A023B1234C
:1009E0000097A105B10521F041E050E060E070E022
:1009F0004A295B296C297D294D835E836F83788723
:100A00008EE190E08E1B9F0B9C838B8312C03097EE
:100A100081F00E2E04C0EE0CFF1C001F111F0A9463
:100A2000D2F7ED82FE820F831887CE1ADF0ADC82AE
:100A3000CB821A82CE0101960E9471052896EAE0C7
:100A40000C946E17EF92FF920F931F937B018C0112
:100A500080E0E81680E0F80681E0080780E01807EB
:100A600088F48FEFE816F1040105110531F028F044
:100A700088E090E0A0E0B0E017C080E090E0A0E067
:100A8000B0E012C080E0E81680E0F80680E00807D9
:100A900081E0180728F088E190E0A0E0B0E004C011
:100AA00080E190E0A0E0B0E020E230E040E050E003
:100AB000281B390B4A0B5B0B04C016950795F7945E
:100AC000E7948A95D2F7F701E154FF4F8081281B04
:100AD000310941095109C9011F910F91FF90EF9010
:100AE0000895DF92EF92FF920F931F93FC01E48031
:100AF000F58006811781D1808081823048F480E0C2
:100B000090E0A0E1B0E0E82AF92A0A2B1B2BA5C04F
:100B1000843009F49FC0823021F4EE24FF24870141
:100B200005C0E114F1040105110519F4E0E0F0E05D
:100B300096C0628173819FEF623879070CF05BC0C9
:100B400022E83FEF261B370B2A3131052CF020E03D
:100B500030E040E050E02AC0B801A701022E04C0F6
:100B600076956795579547950A94D2F781E090E07E
:100B7000A0E0B0E004C0880F991FAA1FBB1F2A95F0
:100B8000D2F70197A109B1098E219F21A023B1239A
:100B90000097A105B10521F081E090E0A0E0B0E070
:100BA0009A01AB01282B392B4A2B5B2BDA01C901A7
:100BB0008F779070A070B07080349105A105B10559
:100BC00039F427FF09C0205C3F4F4F4F5F4F04C0EF
:100BD000215C3F4F4F4F5F4FE0E0F0E02030A0E05E
:100BE0003A07A0E04A07A0E45A0710F0E1E0F0E07D
:100BF00079018A0127C06038710564F5FB01E1586D
:100C0000FF4FD801C7018F779070A070B07080340B
:100C10009105A105B10539F4E7FE0DC080E490E02F
:100C2000A0E0B0E004C08FE390E0A0E0B0E0E80E08
:100C3000F91E0A1F1B1F17FF05C016950795F7948D
:100C4000E794319687E016950795F794E7948A958F
:100C5000D1F705C0EE24FF248701EFEFF0E06E2FFF
:100C6000679566276795902F9F77D794DD24D79453
:100C70008E2F8695492F462B582F5D29B701CA0123
:100C80001F910F91FF90EF90DF900895FC01DB0121
:100C9000408151812281622F6F7770E0221F2227CD
:100CA000221F9381892F880F822B282F30E0991FD4
:100CB0009927991F11969C93119721153105A9F534
:100CC000411551056105710511F482E037C082E8D4
:100CD0009FEF13969C938E9312979A01AB0167E056
:100CE000220F331F441F551F6A95D1F783E08C9361
:100CF0000DC0220F331F441F551F12968D919C91DA
:100D00001397019713969C938E931297203080E04F
:100D1000380780E0480780E4580758F314962D936D
:100D20003D934D935C93179708952F3F310579F4C8
:100D3000411551056105710519F484E08C930895FE
:100D400064FF03C081E08C9312C01C9210C02F5727
:100D5000304013963C932E93129783E08C9387E058
:100D6000440F551F661F771F8A95D1F7706414963C
:100D70004D935D936D937C93179708951F93DC01BA
:100D8000FB019C91923008F447C08081823008F4C6
:100D900043C0943051F411961C91843099F58181AF
:100DA000682F70E0611B71093FC0843021F09230E0
:100DB00031F48230B9F18181882389F12DC01196F7
:100DC0001C9111978230F1F081811817D9F4129695
:100DD0002D913C911397828193818217930794F010
:100DE00028173907BCF014968D919D910D90BC91F8
:100DF000A02D2481358146815781281739074A075C
:100E00005B0718F4112341F00AC082179307A40767
:100E1000B50740F4112319F061E070E005C06FEFF1
:100E20007FEF02C060E070E0CB011F910895DF9377
:100E3000CF93CDB7DEB7A3E5B0E0E3E5F0E0808186
:100E4000877B8C93A3E5B0E0E3E5F0E080818864E4
:100E50008C93A3E5B0E0E3E5F0E080818F7C8C9398
:100E6000A3E5B0E0E3E5F0E0808180628C9382E06E
:100E7000CF91DF910895DF93CF93CDB7DEB7A3E590
:100E8000B0E0E3E5F0E08081887F8C93A3E5B0E0FB
:100E9000E3E5F0E0808185608C9382E0CF91DF9183
:100EA0000895DF93CF93CDB7DEB7A3E5B0E0E3E5D8
:100EB000F0E08081887F8C9382E0CF91DF9108956C
:100EC000DF93CF9300D000D000D0CDB7DEB78A83B8
:100ED0007C836B8382E089838B819C81009719F4EA
:100EE00081E089831EC08A81282F30E03E832D83D4
:100EF0008D819E81009731F02D813E812130310519
:100F000041F00EC08B819C819093E5018093E401B8
:100F100008C08B819C819093E7018093E60101C01A
:100F20001982898126960FB6F894DEBF0FBECDBF19
:100F3000CF91DF910895DF93CF93CDB7DEB7A5971B
:100F40000FB6F894DEBF0FBECDBF6D8F7E8F8F8F33
:100F500098A3CE0109969AA389A3EFEBF1E0FCA335
:100F6000EBA3F4E1FDA3EBA1FCA100808BA19CA16C
:100F700001969CA38BA3E9A1FAA1008289A19AA161
:100F800001969AA389A39DA191509DA3EDA1EE2363
:100F900051F7898D9A8DAB8DBC8DBC01CD010E941E
:100FA000A904DC01CB01BC01CD0120E030E040E828
:100FB00051E40E941903DC01CB018D839E83AF8332
:100FC000B8878D8D9E8DAF8DB8A128EE33E040E0BF
:100FD00050E0BC01CD010E94BB16DC01CB01BC017D
:100FE000CD010E94A904DC01CB01BC01CD012D8102
:100FF0003E814F8158850E941903DC01CB01BC0161
:10100000CD010E944900DC01CB0189839A83AB8327
:10101000BC8382E0A5960FB6F894DEBF0FBECDBFAD
:10102000CF91DF910895DF93CF9300D000D0CDB75B
:10103000DEB78A8382E089838A81282F30E03C836F
:101040002B838B819C81009731F02B813C81213057
:10105000310549F010C0A9E5B0E0E9E5F0E0808194
:1010600081608C9309C0A9E5B0E0E9E5F0E08081FA
:1010700082608C9301C0198289810F900F900F902C
:101080000F90CF91DF910895DF93CF9300D000D0E0
:10109000CDB7DEB78A8382E089838A81282F30E04A
:1010A0003C832B838B819C81009731F02B813C8189
:1010B0002130310549F010C0A9E5B0E0E9E5F0E0E4
:1010C00080818E7F8C9309C0A9E5B0E0E9E5F0E06E
:1010D00080818D7F8C9301C0198289810F900F9040
:1010E0000F900F90CF91DF910895DF93CF930F92E0
:1010F000CDB7DEB7898382E00F90CF91DF9108955D
:10110000DF93CF9300D000D000D0CDB7DEB78A8375
:1011100082E089838A81853610F58CE590E09E8394
:101120008D838A81882F90E0982F882724E630E0ED
:10113000B9010E94E616CB0101979C838B83EB815A
:10114000FC81FF233CF48B819C81909581959F4F7E
:101150009C838B838B81ED81FE81808301C019820A
:10116000898126960FB6F894DEBF0FBECDBFCF9112
:10117000DF9108951F920F920FB60F9211242F93B3
:101180003F934F935F936F937F938F939F93AF930F
:10119000BF93EF93FF93DF93CF93CDB7DEB78091EB
:1011A000F1019091F201A091F301B091F401019647
:1011B000A11DB11D8093F1019093F201A093F30161
:1011C000B093F4012091F1013091F2014091F301CB
:1011D0005091F4018091E8019091E901A091EA0118
:1011E000B091EB01281739074A075B07C9F4E2E51C
:1011F000F0E08091EC01819580838091E4019091F1
:10120000E501009729F0E091E401F091E5010995ED
:101210001092F1011092F2011092F3011092F40178
:10122000CF91DF91FF91EF91BF91AF919F918F91FE
:101230007F916F915F914F913F912F910F900FBED2
:101240000F901F9018951F920F920FB60F921124B6
:101250002F933F934F935F936F937F938F939F93BE
:10126000AF93BF93EF93FF93DF93CF93CDB7DEB7E9
:101270008091F5019091F601A091F701B091F801EC
:101280000196A11DB11D8093F5019093F601A093E5
:10129000F701B093F8012091F5013091F6014091EA
:1012A000F7015091F8018091ED019091EE01A0912C
:1012B000EF01B091F001281739074A075B0799F44D
:1012C0001092F5011092F6011092F7011092F801B8
:1012D0008091E6019091E701009729F0E091E60105
:1012E000F091E7010995CF91DF91FF91EF91BF91C7
:1012F000AF919F918F917F916F915F914F913F91AE
:101300002F910F900FBE0F901F901895DF93CF93E2
:10131000CDB7DEB72F970FB6F894DEBF0FBECDBFA7
:101320008C836D8382E08B838C819AE0692F0E948D
:10133000DA168A838C819AE0692F0E94DA16892F47
:1013400089838A81282F30E03F872E878E859F856D
:101350008230910509F452C02E853F852330310536
:1013600034F48E859F858130910571F0F3C02E8510
:101370003F852330310509F47BC08E859F858430FD
:10138000910509F4AFC0E6C08D81282F30E03D877C
:101390002C878C859D85009731F02C853D852130EB
:1013A0003105B1F029C0AAE3B0E0EAE3F0E08081C2
:1013B000482F8981282F30E081E090E0022E02C082
:1013C000880F991F0A94E2F7809584238C93C3C0F9
:1013D000AAE3B0E0EAE3F0E08081482F8981282F7A
:1013E00030E081E090E0022E02C0880F991F0A943D
:1013F000E2F7842B8C93AFC01B82ADC08D81282F68
:1014000030E03B872A878A859B85009731F02A85C3
:101410003B8521303105B1F029C0A7E3B0E0E7E317
:10142000F0E08081482F8981282F30E081E090E032
:10143000022E02C0880F991F0A94E2F78095842338
:101440008C9389C0A7E3B0E0E7E3F0E08081482F08
:101450008981282F30E081E090E0022E02C0880FC1
:10146000991F0A94E2F7842B8C9375C01B8273C07A
:101470008D81282F30E039872887888599850097C6
:1014800031F02885398521303105B1F029C0A4E338
:10149000B0E0E4E3F0E08081482F8981282F30E03C
:1014A00081E090E0022E02C0880F991F0A94E2F7B3
:1014B000809584238C934FC0A4E3B0E0E4E3F0E094
:1014C0008081482F8981282F30E081E090E0022E32
:1014D00002C0880F991F0A94E2F7842B8C933BC0BB
:1014E0001B8239C08D81282F30E03F832E838E816F
:1014F0009F81009731F02E813F8121303105B1F07D
:101500002AC0A1E3B0E0E1E3F0E08081482F8981C7
:10151000282F30E081E090E0022E02C0880F991F52
:101520000A94E2F7809584238C9315C0A1E3B0E080
:10153000E1E3F0E08081482F8981282F30E081E0CD
:1015400090E0022E02C0880F991F0A94E2F7842BC4
:101550008C9301C01B828B812F960FB6F894DEBF4F
:101560000FBECDBFCF91DF910895DF93CF93CDB75D
:10157000DEB72F970FB6F894DEBF0FBECDBF8C83BA
:101580006D8382E08B838C819AE0692F0E94DA164A
:101590008A838C819AE0692F0E94DA16892F8983C9
:1015A0008A81282F30E03F872E878E859F85823065
:1015B000910509F452C02E853F852330310534F45E
:1015C0008E859F858130910571F0F5C02E853F8510
:1015D0002330310509F47BC08E859F8584309105C9
:1015E00009F4AFC0E8C08D81282F30E03D872C87FB
:1015F0008C859D85009731F02C853D852130310506
:10160000B1F029C0ABE3B0E0EBE3F0E08081482F1C
:101610008981282F30E081E090E0022E02C0880FFF
:10162000991F0A94E2F7809584238C93C5C0ABE39D
:10163000B0E0EBE3F0E08081482F8981282F30E093
:1016400081E090E0022E02C0880F991F0A94E2F711
:10165000842B8C93B1C01B82AFC08D81282F30E0CA
:101660003B872A878A859B85009731F02A853B85B1
:1016700021303105B1F029C0A8E3B0E0E8E3F0E0A3
:101680008081482F8981282F30E081E090E0022E70
:1016900002C0880F991F0A94E2F7809584238C93E7
:1016A0008BC0A8E3B0E0E8E3F0E08081482F8981B7
:1016B000282F30E081E090E0022E02C0880F991FB1
:1016C0000A94E2F7842B8C9377C01B8275C08D81BE
:1016D000282F30E03987288788859985009731F051
:1016E0002885398521303105B1F029C0A5E3B0E066
:1016F000E5E3F0E08081482F8981282F30E081E008
:1017000090E0022E02C0880F991F0A94E2F780959C
:1017100084238C9351C0A5E3B0E0E5E3F0E0808141
:10172000482F8981282F30E081E090E0022E02C00E
:10173000880F991F0A94E2F7842B8C933DC01B827B
:101740003BC08D81282F30E03F832E838E819F8187
:10175000009731F02E813F8121303105B1F029C051
:10176000A2E3B0E0E2E3F0E08081482F8981282FF6
:1017700030E081E090E0022E02C0880F991F0A94A9
:10178000E2F7809584238C9317C0A2E3B0E0E2E3F4
:10179000F0E08081482F8981282F30E081E090E0BF
:1017A000022E02C0880F991F0A94E2F7842B8C93B3
:1017B00003C01B8201C01B828B812F960FB6F89449
:1017C000DEBF0FBECDBFCF91DF910895DF93CF93E2
:1017D00000D000D00F92CDB7DEB78A836B8382E052
:1017E00089838A81282F30E03D832C838C819D81E1
:1017F00082309105D9F02C813D812330310534F4BC
:101800008C819D818130910561F01FC02C813D81CB
:101810002330310581F08C819D818430910581F0E8
:1018200014C0EAE3F0E08B81808310C0E7E3F0E0CE
:101830008B8180830BC0E4E3F0E08B81808306C062
:10184000E1E3F0E08B81808301C0198289810F90F0
:101850000F900F900F900F90CF91DF910895DF932D
:10186000CF9300D000D00F92CDB7DEB78A836B83C1
:1018700082E089838A81282F30E03D832C838C810C
:101880009D8182309105D9F02C813D812330310535
:1018900034F48C819D818130910561F01FC02C81D1
:1018A0003D812330310581F08C819D81843091050B
:1018B00081F014C0EBE3F0E08B81808310C0E8E39B
:1018C000F0E08B8180830BC0E5E3F0E08B818083C7
:1018D00006C0E2E3F0E08B81808301C01982898138
:1018E0000F900F900F900F900F90CF91DF91089570
:1018F000DF93CF9300D000D000D0CDB7DEB78C837C
:1019000082E08B838C819AE0692F0E94DA168A83A9
:101910008C819AE0692F0E94DA16892F89838A8147
:10192000282F30E03E832D838D819E81823091056A
:1019300051F12D813E812330310534F48D819E811A
:101940008130910561F05BC02D813E8123303105EE
:1019500071F18D819E8184309105E9F150C0ABE336
:10196000B0E0EBE3F0E08081482F8981282F30E060
:1019700081E090E0022E02C0880F991F0A94E2F7DE
:1019800084278C933DC0A8E3B0E0E8E3F0E08081D9
:10199000482F8981282F30E081E090E0022E02C09C
:1019A000880F991F0A94E2F784278C9329C0A5E336
:1019B000B0E0E5E3F0E08081482F8981282F30E016
:1019C00081E090E0022E02C0880F991F0A94E2F78E
:1019D00084278C9315C0A2E3B0E0E2E3F0E08081BD
:1019E000482F8981282F30E081E090E0022E02C04C
:1019F000880F991F0A94E2F784278C9301C01B82F9
:101A00008B8126960FB6F894DEBF0FBECDBFCF9167
:101A1000DF910895DF93CF93CDB7DEB728970FB648
:101A2000F894DEBF0FBECDBF8C837E836D8382E0D2
:101A30008B838C819AE0692F0E94DA168A838C81CD
:101A40009AE0692F0E94DA16892F89838A81282FCC
:101A500030E038872F834F8158854230510559F146
:101A60008F8198858330910534F42F81388521301A
:101A7000310569F05CC04F8158854330510579F1DB
:101A80008F8198858430910509F43DC050C0E9E309
:101A9000F0E08081282F30E08981882F90E0A90133
:101AA00002C0559547958A95E2F7CA018170ED818C
:101AB000FE8180833DC0E6E3F0E08081282F30E0A6
:101AC0008981882F90E0A90102C0559547958A9594
:101AD000E2F7CA018170ED81FE81808329C0E3E3D2
:101AE000F0E08081282F30E08981882F90E0A901E3
:101AF00002C0559547958A95E2F7CA018170ED813C
:101B0000FE81808315C0E0E3F0E08081282F30E083
:101B10008981882F90E0A90102C0559547958A9543
:101B2000E2F7CA018170ED81FE81808301C01B82D2
:101B30008B8128960FB6F894DEBF0FBECDBFCF9134
:101B4000DF910895DF93CF9300D000D000D0CDB7C0
:101B5000DEB78A837C836B8382E089838B819C815F
:101B6000009719F481E089833DC08A81282F30E0F5
:101B70003E832D838D819E8182309105E9F02D81F8
:101B80003E812330310534F48D819E818130910571
:101B900061F027C02D813E8123303105A1F08D8178
:101BA0009E8184309105B1F01CC0E9E3F0E08081B2
:101BB000EB81FC81808316C0E6E3F0E08081EB815D
:101BC000FC8180830FC0E3E3F0E08081EB81FC8146
:101BD000808308C0E0E3F0E08081EB81FC818083BA
:101BE00001C01982898126960FB6F894DEBF0FBE18
:101BF000CDBFCF91DF910895DF93CF93CDB7DEB7FF
:101C000085E161E00E94860986E161E00E94860923
:101C100087E161E00E9486090E9417070E943B0746
:101C200082E0CF91DF910895DF93CF9300D000D071
:101C30000F92CDB7DEB78A836B8382E089838A8176
:101C4000282F30E03D832C838C819D81009731F0DB
:101C50002C813D812130310569F018C085E161E0BA
:101C60000E94B50A86E160E00E94B50A8B810E945D
:101C700080080DC085E160E00E94B50A86E161E060
:101C80000E94B50A8B810E94800801C01982898157
:101C90000F900F900F900F900F90CF91DF910895BC
:101CA000DF93CF930F92CDB7DEB7898380E00E9498
:101CB00080080E94510782E00F90CF91DF91089534
:101CC000DF93CF93CDB7DEB7AB970FB6F894DEBFF7
:101CD0000FBECDBF82E08BA78BE061E00E9486093A
:101CE0008CE061E00E94860980E161E00E94860943
:101CF0008FE061E00E9486098EE061E00E94860923
:101D00008DE061E00E94860980E090E0ACE0B2E402
:101D10008FA398A7A9A7BAA76FA178A589A59AA507
:101D200020E030E04AE755E40E941F02DC01CB01CD
:101D30008BA39CA3ADA3BEA36BA17CA18DA19EA1EF
:101D400020E030E040E85FE30E94250488232CF483
:101D500081E090E09AA389A33FC06BA17CA18DA1F3
:101D60009EA120E03FEF4FE757E40E94C5031816FD
:101D70004CF56FA178A589A59AA520E030E040E256
:101D800051E40E941F02DC01CB01BC01CD010E9485
:101D90004900DC01CB019AA389A30FC080E991E03F
:101DA00098A38F8F8F8D98A10197F1F798A38F8FAC
:101DB00089A19AA101979AA389A389A19AA10097C1
:101DC00069F714C06BA17CA18DA19EA10E9449005E
:101DD000DC01CB019AA389A389A19AA19E8F8D8F43
:101DE0008D8D9E8D0197F1F79E8F8D8F8CE060E039
:101DF0000E94B50A80E160E00E94B50A8FE060E0D1
:101E00000E94B50A8EE061E00E94B50A8DE060E0B4
:101E10000E94B50A8CE061E00E94B50A80E090E083
:101E2000A0E8BFE3898F9A8FAB8FBC8F698D7A8DC5
:101E30008B8D9C8D20E030E04AE755E40E941F0224
:101E4000DC01CB018D8B9E8BAF8BB88F6D897E892A
:101E50008F89988D20E030E040E85FE30E94250400
:101E600088232CF481E090E09C8B8B8B3FC06D89A4
:101E70007E898F89988D20E03FEF4FE757E40E94DD
:101E8000C50318164CF5698D7A8D8B8D9C8D20E0DD
:101E900030E040E251E40E941F02DC01CB01BC01B2
:101EA000CD010E944900DC01CB019C8B8B8B0FC0C4
:101EB00080E991E09A8B898B89899A890197F1F75A
:101EC0009A8B898B8B899C8901979C8B8B8B8B89B7
:101ED0009C89009769F714C06D897E898F89988DD8
:101EE0000E944900DC01CB019C8B8B8B8B899C89E8
:101EF000988B8F878F8598890197F1F7988B8F87BB
:101F00008CE060E00E94B50A80E090E0A0EFB1E4D0
:101F10008B879C87AD87BE876B857C858D859E85ED
:101F200020E030E04AE755E40E941F02DC01CB01CB
:101F30008F839887A987BA876F81788589859A85E5
:101F400020E030E040E85FE30E94250488232CF481
:101F500081E090E09E838D833FC06F817885898585
:101F60009A8520E03FEF4FE757E40E94C50318161B
:101F70004CF56B857C858D859E8520E030E040E2C8
:101F800051E40E941F02DC01CB01BC01CD010E9483
:101F90004900DC01CB019E838D830FC080E991E075
:101FA0009C838B838B819C810197F1F79C838B832E
:101FB0008D819E8101979E838D838D819E81009767
:101FC00069F714C06F81788589859A850E944900D8
:101FD000DC01CB019E838D838D819E819A838983D1
:101FE00089819A810197F1F79A83898388E20E9417
:101FF0001E108EE00E941E1081E00E941E1086E0DE
:102000000E941E108BA5AB960FB6F894DEBF0FBED4
:10201000CDBFCF91DF910895DF93CF930F92CDB7CE
:10202000DEB789838BE061E00E94B50A89810E9456
:10203000461182E00F90CF91DF910895DF93CF9307
:102040000F92CDB7DEB789838BE060E00E94B50ABE
:1020500089810E94461182E00F90CF91DF9108950F
:10206000DF93CF9300D0CDB7DEB79A8389830AC0C0
:10207000E981FA8180810E940C1089819A81019600
:102080009A838983E981FA818081882389F782E0B4
:102090000F900F90CF91DF910895DF93CF93CDB73D
:1020A000DEB781E00E941E1082E0CF91DF9108959B
:1020B0000F931F93DF93CF93CDB7DEB72F970FB654
:1020C000F894DEBF0FBECDBF6C877D878E879F875C
:1020D00019828AE0FE013296DF01982F1D929A95AF
:1020E000E9F78C859D85AE85BF850097A105B10573
:1020F00021F480E30E940C1049C08C859D85AE853B
:10210000BF85BB230CF042C08DE20E940C108C8571
:102110009D85AE85BF85B095A095909581959F4F83
:10212000AF4FBF4F8C879D87AE87BF872FC08981F8
:10213000082F112707FD10958C859D85AE85BF85DD
:102140002AE030E040E050E0BC01CD010E94F916E9
:10215000DC01CB01282FCE010296FC01E00FF11F1C
:1021600020838C859D85AE85BF852AE030E040E0E8
:1021700050E0BC01CD010E94F916DA01C9018C873B
:102180009D87AE87BF8789818F5F89838C859D8579
:10219000AE85BF85181619061A061B0644F28981FA
:1021A0008150898311C08981282F332727FD3095DD
:1021B000CE010296FC01E20FF31F8081805D0E9438
:1021C0000C108981815089838981882364F782E09A
:1021D0002F960FB6F894DEBF0FBECDBFCF91DF9123
:1021E0001F910F910895DF93CF9300D0CDB7DEB745
:1021F00089836A838981813041F48A81803128F41E
:102200008A8180680E941E100BC08981823041F44F
:102210008A81803128F48A81805C806C0E941E1043
:1022200082E00F900F90CF91DF910895DF93CF93CD
:1022300000D000D0CDB7DEB78A837C836B838A81E0
:10224000882F90E00896880F991F880F991F880F94
:10225000991F0E941E1019820EC08981282F30E01C
:102260008B819C81FC01E20FF31F80810E940C1086
:1022700089818F5F89838981883078F382E00F902C
:102280000F900F900F90CF91DF910895DF93CF9330
:10229000CDB7DEB7EF970FB6F894DEBF0FBECDBF58
:1022A0008FAF8DE08BAF8EE08CAF8FE08DAF80E194
:1022B0008EAF8CE060E00E94B50A1AAE20C08AADF5
:1022C000282F30E0CE01CB96FC01E20FF31F4081B6
:1022D0008FAD282F30E08AAD882F90E00496B901A9
:1022E00002C0759567958A95E2F7CB01982F91709A
:1022F000842F692F0E94B50A8AAD8F5F8AAF8AAD9D
:102300008430E8F28CE061E00E94B50A80E090E061
:10231000A0E8BFE38DAB9EABAFABB8AF6DA97EA914
:102320008FA998AD20E030E04AE755E40E941F02F3
:10233000DC01CB0189AB9AABABABBCAB69A97AA989
:102340008BA99CA920E030E040E85FE30E942504CF
:1023500088232CF481E090E098AB8FA73FC069A957
:102360007AA98BA99CA920E03FEF4FE757E40E9490
:10237000C50318164CF56DA97EA98FA998AD20E06C
:1023800030E040E251E40E941F02DC01CB01BC01BD
:10239000CD010E944900DC01CB0198AB8FA70FC093
:1023A00080E991E09EA78DA78DA59EA50197F1F7E5
:1023B0009EA78DA78FA598A9019798AB8FA78FA5EA
:1023C00098A9009769F714C069A97AA98BA99CA953
:1023D0000E944900DC01CB0198AB8FA78FA598A97B
:1023E0009CA78BA78BA59CA50197F1F79CA78BA712
:1023F0008CE060E00E94B50A80E090E0A0EFB1E4DC
:102400008FA398A7A9A7BAA76FA178A589A59AA510
:1024100020E030E04AE755E40E941F02DC01CB01D6
:102420008BA39CA3ADA3BEA36BA17CA18DA19EA1F8
:1024300020E030E040E85FE30E94250488232CF48C
:1024400081E090E09AA389A33FC06BA17CA18DA1FC
:102450009EA120E03FEF4FE757E40E94C503181606
:102460004CF56FA178A589A59AA520E030E040E25F
:1024700051E40E941F02DC01CB01BC01CD010E948E
:102480004900DC01CB019AA389A30FC080E991E048
:1024900098A38F8F8F8D98A10197F1F798A38F8FB5
:1024A00089A19AA101979AA389A389A19AA10097CA
:1024B00069F714C06BA17CA18DA19EA10E94490067
:1024C000DC01CB019AA389A389A19AA19E8F8D8F4C
:1024D0008D8D9E8D0197F1F79E8F8D8F19AE1FC048
:1024E00089AD282F30E0CE01CB96FC01E20FF31F1F
:1024F00040818FAD282F30E089AD882F90E0B90161
:1025000002C0759567958A95E2F7CB01982F917077
:10251000842F692F0E94B50A89AD8F5F89AF89AD7D
:102520008430F0F28CE061E00E94B50A80E090E037
:10253000A0E8BFE3898F9A8FAB8FBC8F698D7A8DAE
:102540008B8D9C8D20E030E04AE755E40E941F020D
:10255000DC01CB018D8B9E8BAF8BB88F6D897E8913
:102560008F89988D20E030E040E85FE30E942504E9
:1025700088232CF481E090E09C8B8B8B3FC06D898D
:102580007E898F89988D20E03FEF4FE757E40E94C6
:10259000C50318164CF5698D7A8D8B8D9C8D20E0C6
:1025A00030E040E251E40E941F02DC01CB01BC019B
:1025B000CD010E944900DC01CB019C8B8B8B0FC0AD
:1025C00080E991E09A8B898B89899A890197F1F743
:1025D0009A8B898B8B899C8901979C8B8B8B8B89A0
:1025E0009C89009769F714C06D897E898F89988DC1
:1025F0000E944900DC01CB019C8B8B8B8B899C89D1
:10260000988B8F878F8598890197F1F7988B8F87A3
:102610008CE060E00E94B50A80E090E0A0EFB1E4B9
:102620008B879C87AD87BE876B857C858D859E85D6
:1026300020E030E04AE755E40E941F02DC01CB01B4
:102640008F839887A987BA876F81788589859A85CE
:1026500020E030E040E85FE30E94250488232CF46A
:1026600081E090E09E838D833FC06F81788589856E
:102670009A8520E03FEF4FE757E40E94C503181604
:102680004CF56B857C858D859E8520E030E040E2B1
:1026900051E40E941F02DC01CB01BC01CD010E946C
:1026A0004900DC01CB019E838D830FC080E991E05E
:1026B0009C838B838B819C810197F1F79C838B8317
:1026C0008D819E8101979E838D838D819E81009750
:1026D00069F714C06F81788589859A850E944900C1
:1026E000DC01CB019E838D838D819E819A838983BA
:1026F00089819A810197F1F79A838983EF960FB6C2
:10270000F894DEBF0FBECDBFCF91DF910895DF9368
:10271000CF930F92CDB7DEB782E0898388E161E085
:102720000E94860989E161E00E9486098AE161E0F0
:102730000E9486098BE161E00E9486098AE260E0DE
:102740000E9486098BE260E00E9486098CE260E0CC
:102750000E9486098DE260E00E94860988E161E0BE
:102760000E94B50A89E161E00E94B50A8AE161E050
:102770000E94B50A8BE161E00E94B50A8AE261E03D
:102780000E94B50A8BE261E00E94B50A8CE261E02A
:102790000E94B50A8DE261E00E94B50A89810F901E
:1027A000CF91DF910895DF93CF93CDB7DEB7E19757
:1027B0000FB6F894DEBF0FBECDBF9CA78BA78FEFDF
:1027C000898BCE0143969EA78DA7E3EDF1E0F8AB90
:1027D000EFA7F0E1F9ABEFA5F8A900808FA598A9C4
:1027E000019698AB8FA7EDA5FEA500828DA59EA5AD
:1027F00001969EA78DA799A9915099ABE9A9EE23BF
:1028000051F788E18BA389E18CA38AE18DA38BE149
:102810008EA38AE28FA38BE288A78CE289A78DE240
:102820008AA7188AE2C08889282F30E0CE018396D3
:10283000FC01E20FF31F808160E00E94B50A1F8651
:10284000C1C08F85282F30E0CE018796FC01E20FB2
:10285000F31F80819E012E5E3F4FB9010E940A0D39
:102860008A89882309F0ABC080E090E0A0EAB1E457
:102870008B879C87AD87BE876B857C858D859E8584
:1028800020E030E04AE755E40E941F02DC01CB0162
:102890008F839887A987BA876F81788589859A857C
:1028A00020E030E040E85FE30E94250488232CF418
:1028B00081E090E09E838D833FC06F81788589851C
:1028C0009A8520E03FEF4FE757E40E94C5031816B2
:1028D0004CF56B857C858D859E8520E030E040E25F
:1028E00051E40E941F02DC01CB01BC01CD010E941A
:1028F0004900DC01CB019E838D830FC080E991E00C
:102900009C838B838B819C810197F1F79C838B83C4
:102910008D819E8101979E838D838D819E810097FD
:1029200069F714C06F81788589859A850E9449006E
:10293000DC01CB019E838D838D819E819A83898367
:1029400089819A810197F1F79A8389838F85282F4E
:1029500030E0CE018796FC01E20FF31F80819E01DB
:102960002E5E3F4FB9010E940A0D8A89882339F5EE
:102970000FC08F85282F30E0CE018796FC01E20F33
:10298000F31F80819E012E5E3F4FB9010E940A0D08
:102990008A89882371F38889282F30E08F85482F12
:1029A00050E0220F331F220F331FCE010196820FFA
:1029B000931F840F951FFC0172968081898B8F85F0
:1029C0008F5F8F878F85843008F43BCF8889282FCD
:1029D00030E0CE018396FC01E20FF31F808161E0BD
:1029E0000E94B50A88898F5F888B8889843008F4B3
:1029F0001ACFEBA5FCA58989808382E0E1960FB60A
:102A0000F894DEBF0FBECDBFCF91DF910895DF9365
:102A1000CF93CDB7DEB7A0970FB6F894DEBF0FBE49
:102A2000CDBF0E9417070E943B070E94600E0E94C4
:102A300087130E94FC0D8FEF88A31E8E1D8E0E94AF
:102A40004D1080E690E00E94301021C0CE018096AB
:102A50000E94D31388A18F3FD1F088A18032B9F0B2
:102A600088A10E940C1088A180538F8F8D8D882F94
:102A700090E09C01220F331FC901880F991F880F16
:102A8000991F820F931F982F8F8D890F8D8F88A18B
:102A90008032E1F60E944D108D8D853628F08EE64D
:102AA00090E00E943010AEC08FEF88A38FE790E0D7
:102AB0000E943010A7C0CE0180960E94D31388A137
:102AC0008F3FD9F088A18032C1F088A10E940C10FC
:102AD00088A180538F8F8E8D882F90E09C01220FCC
:102AE000331FC901880F991F880F991F820F931FE9
:102AF000982F8F8D890F8E8F85C08E8D813108F430
:102B000081C01E8E82E060E00E94F3108AE890E0AF
:102B10000E94301080E090E0AAEFB3E4898F9A8F92
:102B2000AB8FBC8F698D7A8D8B8D9C8D20E030E0D2
:102B30004AE755E40E941F02DC01CB018D8B9E8B7E
:102B4000AF8BB88F6D897E898F89988D20E030E0BA
:102B500040E85FE30E94250488232CF481E090E0A4
:102B60009C8B8B8B3FC06D897E898F89988D20E0EF
:102B70003FEF4FE757E40E94C50318164CF5698DE7
:102B80007A8D8B8D9C8D20E030E040E251E40E94F4
:102B90001F02DC01CB01BC01CD010E944900DC0118
:102BA000CB019C8B8B8B0FC080E991E09A8B898B3A
:102BB00089899A890197F1F79A8B898B8B899C89EE
:102BC00001979C8B8B8B8B899C89009769F714C02C
:102BD0006D897E898F89988D0E944900DC01CB0127
:102BE0009C8B8B8B8B899C89988B8F878F85988901
:102BF0000197F1F7988B8F870E944D108FE790E037
:102C00000E94301088A1803209F055CF8E8D882324
:102C100009F411CF8E8D813108F00DCF80E06D8DDC
:102C20000E94140E0E944D108CE990E00E9430101A
:102C300081E06BE00E94F3108D8D882F90E0A0E082
:102C4000B0E0BC01CD010E94581085E20E940C103A
:102C500082E060E00E94F31087EA90E00E9430106A
:102C60008E8D882F90E0A0E0B0E0BC01CD010E94E5
:102C7000581083EB90E00E94301080E090E0AAE7CB
:102C8000B4E48B879C87AD87BE876B857C858D85FB
:102C90009E8520E030E04AE755E40E941F02DC01F7
:102CA000CB018F839887A987BA876F8178858985BB
:102CB0009A8520E030E040E85FE30E942504882305
:102CC0002CF481E090E09E838D833FC06F817885F6
:102CD00089859A8520E03FEF4FE757E40E94C503BE
:102CE00018164CF56B857C858D859E8520E030E03F
:102CF00040E251E40E941F02DC01CB01BC01CD0186
:102D00000E944900DC01CB019E838D830FC080E9C6
:102D100091E09C838B838B819C810197F1F79C834D
:102D20008B838D819E8101979E838D838D819E8172
:102D3000009769F780CE6F81788589859A850E9492
:102D40004900DC01CB019E838D838D819E819A8316
:102D5000898389819A810197F1F79A8389836BCE60
:102D6000DF93CF93CDB7DEB70E94071580E090E0E8
:102D7000CF91DF910895629FD001739FF001829FF0
:102D8000E00DF11D649FE00DF11D929FF00D839FFA
:102D9000F00D749FF00D659FF00D9927729FB00D97
:102DA000E11DF91F639FB00DE11DF91FBD01CF01AA
:102DB00011240895991B79E004C0991F961708F013
:102DC000961B881F7A95C9F78095089597FB092E61
:102DD00007260AD077FD04D027D006D000201AF4A9
:102DE000709561957F4F0895F6F7909581959F4F67
:102DF000089597FB092E05260ED057FD04D028D044
:102E00000AD0001C38F450954095309521953F4FDD
:102E10004F4F5F4F0895F6F79095809570956195A7
:102E20007F4F8F4F9F4F0895AA1BBB1B51E107C0D7
:102E3000AA1FBB1FA617B70710F0A61BB70B881F4A
:102E4000991F5A95A9F780959095BC01CD010895D9
:102E5000A1E21A2EAA1BBB1BFD010DC0AA1FBB1F9E
:102E6000EE1FFF1FA217B307E407F50720F0A21B10
:102E7000B30BE40BF50B661F771F881F991F1A947D
:102E800069F760957095809590959B01AC01BD01A7
:102E9000CF0108952F923F924F925F926F927F924F
:102EA0008F929F92AF92BF92CF92DF92EF92FF925A
:102EB0000F931F93CF93DF93CDB7DEB7CA1BDB0B06
:102EC0000FB6F894DEBF0FBECDBF09942A883988AB
:102ED00048885F846E847D848C849B84AA84B984B2
:102EE000C884DF80EE80FD800C811B81AA81B981BE
:102EF000CE0FD11D0FB6F894DEBF0FBECDBFED01D2
:062F00000895F894FFCFD4
:102F06004455545920435943594C45253A00494E96
:102F160056414C4944204455545920435943004690
:102F2600524551204D487A203A00494E56414C4967
:102F360044204652455155454E4359004D4F544F36
:102F460052204F4E3A20004652455155454E435960
:102F56003A20004D487A0000000000000000000002
:102F66000102020303030304040404040404040525
:102F760005050505050505050505050505050506FA
:102F860006060606060606060606060606060606DB
:102F960006060606060606060606060606060607CA
:102FA60007070707070707070707070707070707AB
:102FB600070707070707070707070707070707079B
:102FC600070707070707070707070707070707078B
:102FD600070707070707070707070707070707087A
:102FE600080808080808080808080808080808085B
:102FF600080808080808080808080808080808084B
:10300600080808080808080808080808080808083A
:10301600080808080808080808080808080808082A
:10302600080808080808080808080808080808081A
:10303600080808080808080808080808080808080A
:1030460008080808080808080808080808080808FA
:1030560008080808080808080808080808080801F1
:103066000000000800000040000000000100000011
:103076000400003738392F3435362A3132332D20C3
:04308600303D2B00AE
:00000001FF
