:100000000C942A000C94A2060C94D5060C940807B4
:100010000C9447000C9447000C9447000C94470044
:100020000C9447000C9447000C9447000C94470034
:100030000C9447000C9447000C9447000C94470024
:100040000C9447000C9447000C9447000C94470014
:100050000C94470011241FBECFE5D8E0DEBFCDBF12
:1000600010E0A0E6B0E0EEE6FBE202C005900D92E3
:10007000A038B107D9F710E0A0E8B0E001C01D92A8
:10008000A738B107E1F70E942A150C94B5150C9416
:100090000000EF92FF920F931F937B018C0120E0F1
:1000A00030E040E05FE40E94490388238CF0C801FF
:1000B000B70120E030E040E05FE40E94C1010E940F
:1000C000A9039B01AC01205030404040504806C07D
:1000D000C801B7010E94A9039B01AC01B901CA0183
:1000E0001F910F91FF90EF900895A0E0B0E0EBE733
:1000F000F0E00C947E15DC012B01FA019C9192300A
:1001000008F439C1EB018881823008F433C194309E
:1001100069F4843009F02FC111969C91119789815F
:10012000981709F428C1A8E7B0E025C1843009F484
:1001300021C18230A9F4923009F01DC19A01AD01AC
:1001400088E0EA010990AE01E90109929E0181501F
:10015000C1F7E201898111969C918923818308C1AD
:10016000923009F407C112962D903C901397EB0141
:100170008A819B811496AD90BD90CD90DC901797AD
:10018000EC80FD800E811F819101281B390BB90184
:1001900037FF04C066277727621B730B6032710537
:1001A0000CF061C0121613066CF537014801062EDB
:1001B00004C096948794779467940A94D2F721E0C8
:1001C00030E040E050E004C0220F331F441F551FB1
:1001D0006A95D2F721503040404050402E213F21B7
:1001E00040235123211531054105510521F021E01E
:1001F00030E040E050E079018A01E628F72808293C
:1002000019293CC0232BD1F1260E371E350146019A
:10021000062E04C096948794779467940A94D2F734
:1002200021E030E040E050E004C0220F331F441FC3
:10023000551F6A95D2F721503040404050402A2146
:100240003B214C215D21211531054105510521F04E
:1002500021E030E040E050E059016A01A628B728CB
:10026000C828D9280BC0821593052CF01C01AA249C
:10027000BB24650103C0EE24FF24870111969C91E5
:10028000D20111968C91981709F445C0992339F041
:10029000A80197012A193B094C095D0906C0A6016E
:1002A00095012E193F09400B510B57FD08C01182D3
:1002B0003382228224833583468357831DC081E0A5
:1002C00081833382228288279927DC01821B930B4A
:1002D000A40BB50B84839583A683B7830DC0220F2F
:1002E000331F441F551F24833583468357838281E0
:1002F000938101979383828324813581468157813D
:10030000DA01C9010197A109B1098F5F9F4FAF4F72
:10031000BF4328F30BC0918333822282EA0CFB1C7B
:100320000C1D1D1DE482F5820683178383E0808304
:10033000248135814681578157FF1AC0C901AA27F8
:1003400097FDA095BA2F81709070A070B0705695EF
:10035000479537952795822B932BA42BB52B848318
:100360009583A683B7838281938101969383828349
:10037000DF0101C0D201CD01CDB7DEB7E2E10C94BF
:100380009A15A0E2B0E0E7ECF1E00C948A156983DD
:100390007A838B839C832D833E834F835887E9E048
:1003A000EE2EF12CEC0EFD1ECE010196B7010E943F
:1003B000D2048E010F5E1F4FCE010596B8010E9438
:1003C000D2048A8991E089278A8BC701B801AE01DE
:1003D000475E5F4F0E9475000E94FD03A096E6E015
:1003E0000C94A615A0E2B0E0E8EFF1E00C948A15B9
:1003F00069837A838B839C832D833E834F835887C5
:10040000F9E0EF2EF12CEC0EFD1ECE010196B701A6
:100410000E94D2048E010F5E1F4FCE010596B801D7
:100420000E94D204C701B801AE01475E5F4F0E942F
:1004300075000E94FD03A096E6E00C94A615A0E2CC
:10044000B0E0E5E2F2E00C947E1569837A838B8359
:100450009C832D833E834F835887CE010196BE0136
:10046000675F7F4F0E94D204CE010596BE016F5E8A
:100470007F4F0E94D2049985923088F0898982301A
:10048000C8F0943019F4823051F404C0843029F457
:10049000923081F488E790E0C6C0923049F420E0C1
:1004A0009A858A89981321E02A87CE010996BBC0D4
:1004B000823049F420E09A858A89981321E02A8BBA
:1004C000CE014196B0C02D843E844F8458886D88FB
:1004D0007E888F88988CEE24FF248701AA24BB2471
:1004E000650140E050E060E070E0E0E0F0E0C10174
:1004F00081709070892BE9F0E60CF71C081D191D1E
:100500009A01AB012A0D3B1D4C1D5D1D80E090E062
:10051000A0E0B0E0E614F7040805190520F481E036
:1005200090E0A0E0B0E0BA01A901480F591F6A1F8E
:100530007B1FAA0CBB1CCC1CDD1C97FE08C081E0F5
:1005400090E0A0E0B0E0A82AB92ACA2ADB2A3196B6
:10055000E032F10549F0660C771C881C991C569412
:10056000479437942794C3CFFA85EA892B893C892D
:100570008B859C85280F391F2E5F3F4F17C0CA01FE
:1005800081709070892B61F016950795F794E79428
:1005900080E090E0A0E0B0E8E82AF92A0A2B1B2BC3
:1005A00076956795579547952F5F3F4F77FDE7CF36
:1005B0000CC0440F551F661F771F17FD4160EE0CDE
:1005C000FF1C001F111F21503040403090E05907A0
:1005D00090E0690790E4790760F32B8F3C8FDB0193
:1005E000CA018F779070A070B07080349105A1051A
:1005F000B10561F447FD0AC0E114F10401051105DC
:1006000029F0405C5F4F6F4F7F4F40781A8EFE1786
:1006100011F081E08A8F4D8F5E8F6F8F78A383E01A
:10062000898FCE0149960E94FD03A096E2E10C94C9
:100630009A15A8E1B0E0EFE1F3E00C948A15698324
:100640007A838B839C832D833E834F83588789E0F5
:10065000E82EF12CEC0EFD1ECE010196B7010E9492
:10066000D2048E010F5E1F4FCE010596B8010E9485
:10067000D2048985823040F08989823028F0C70110
:10068000B8010E944A0501C08FEF6896E6E00C941D
:10069000A615A8E1B0E0EFE4F3E00C948A156983B5
:1006A0007A838B839C832D833E834F83588789E095
:1006B000E82EF12CEC0EFD1ECE010196B7010E9432
:1006C000D2048E010F5E1F4FCE010596B8010E9425
:1006D000D2048985823040F08989823028F0C701B0
:1006E000B8010E944A0501C08FEF6896E6E00C94BD
:1006F000A615A8E1B0E0EFE7F3E00C948A15698352
:100700007A838B839C832D833E834F83588789E034
:10071000E82EF12CEC0EFD1ECE010196B7010E94D1
:10072000D2048E010F5E1F4FCE010596B8010E94C4
:10073000D2048985823040F08989823028F0C7014F
:10074000B8010E944A0501C081E06896E6E00C9479
:10075000A615ACE0B0E0EFEAF3E00C948E156983E7
:100760007A838B839C83CE010196BE016B5F7F4FA2
:100770000E94D2048D81823061F1823050F1843048
:1007800021F48E81882351F12EC02F81388537FDC9
:1007900020C06E812F3131051CF06623F9F023C093
:1007A0008EE190E0821B930B29853A854B855C8511
:1007B00004C056954795379527958A95D2F76623B5
:1007C000B1F050954095309521953F4F4F4F5F4F79
:1007D0000EC020E030E040E050E009C02FEF3FEFD6
:1007E0004FEF5FE704C020E030E040E050E8B9019F
:1007F000CA012C96E2E00C94AA15DF92EF92FF92C8
:100800000F931F93FC01E480F58006811781D1804E
:100810008081823048F480E090E0A0E1B0E0E82AF6
:10082000F92A0A2B1B2BA5C0843009F49FC0823003
:1008300021F4EE24FF24870105C0E114F104010531
:10084000110519F4E0E0F0E096C0628173819FEF3A
:10085000623879070CF05BC022E83FEF261B370BAC
:100860002A3131052CF020E030E040E050E02AC091
:10087000B801A701022E04C0769567955795479554
:100880000A94D2F781E090E0A0E0B0E004C0880FC5
:10089000991FAA1FBB1F2A95D2F70197A109B10979
:1008A0008E219F21A023B1230097A105B10521F03E
:1008B00081E090E0A0E0B0E09A01AB01282B392B59
:1008C0004A2B5B2BDA01C9018F779070A070B07052
:1008D00080349105A105B10539F427FF09C0205CDA
:1008E0003F4F4F4F5F4F04C0215C3F4F4F4F5F4F13
:1008F000E0E0F0E02030A0E03A07A0E04A07A0E402
:100900005A0710F0E1E0F0E079018A0127C0603871
:10091000710564F5FB01E158FF4FD801C7018F77DE
:100920009070A070B07080349105A105B10539F4C4
:10093000E7FE0DC080E490E0A0E0B0E004C08FE3EB
:1009400090E0A0E0B0E0E80EF91E0A1F1B1F17FFA1
:1009500005C016950795F794E794319687E01695AC
:100960000795F794E7948A95D1F705C0EE24FF2404
:100970008701EFEFF0E06E2F679566276795902F60
:100980009F77D794DD24D7948E2F8695492F462BB9
:10099000582F5D29B701CA011F910F91FF90EF9069
:1009A000DF900895FC01DB01408151812281622F9B
:1009B0006F7770E0221F2227221F9381892F880FD3
:1009C000822B282F30E0991F9927991F11969C930D
:1009D000119721153105A9F54115510561057105DD
:1009E00011F482E037C082E89FEF13969C938E93B8
:1009F00012979A01AB0167E0220F331F441F551F66
:100A00006A95D1F783E08C930DC0220F331F441FEA
:100A1000551F12968D919C911397019713969C9355
:100A20008E931297203080E0380780E0480780E4FA
:100A3000580758F314962D933D934D935C93179755
:100A400008952F3F310579F4411551056105710570
:100A500019F484E08C93089564FF03C081E08C93C3
:100A600012C01C9210C02F57304013963C932E9307
:100A7000129783E08C9387E0440F551F661F771F02
:100A80008A95D1F7706414964D935D936D937C9322
:100A9000179708951F93DC01FB019C91923008F495
:100AA00047C08081823008F443C0943051F41196DD
:100AB0001C91843099F58181682F70E0611B710968
:100AC0003FC0843021F0923031F48230B9F181811D
:100AD000882389F12DC011961C9111978230F1F075
:100AE00081811817D9F412962D913C911397828128
:100AF00093818217930794F028173907BCF0149656
:100B00008D919D910D90BC91A02D248135814681C0
:100B10005781281739074A075B0718F4112341F05A
:100B20000AC082179307A407B50740F4112319F0F0
:100B300061E070E005C06FEF7FEF02C060E070E041
:100B4000CB011F910895DF93CF93CDB7DEB7789493
:100B500082E0CF91DF910895DF93CF93CDB7DEB7D9
:100B6000F89482E0CF91DF910895DF93CF9300D086
:100B700000D00F92CDB7DEB78A836B8382E0898382
:100B80008B81843010F0198262C08A81282F30E076
:100B90003D832C838C819D818630910559F02C8179
:100BA0003D8127303105B1F08C819D8185309105E3
:100BB00041F139C0A5E5B0E0E5E5F0E080818C7F4A
:100BC0008C93A5E5B0E0E5E5F0E090818B81892B81
:100BD0008C932AC0A5E5B0E0E5E5F0E08081837F55
:100BE0008C93A5E5B0E0E5E5F0E08081282F8B81CE
:100BF000882F90E0880F991F880F991F822B8C9364
:100C000013C0A4E5B0E0E4E5F0E080818F7B8C9335
:100C1000A4E5B0E0E4E5F0E08081982F8B8180745A
:100C2000892B8C9301C01982ABE5B0E0EBE5F0E0D5
:100C30008081482F8A81282F30E081E090E0022EC9
:100C400002C0880F991F0A94E2F7842B8C93898144
:100C50000F900F900F900F900F90CF91DF9108950C
:100C6000DF93CF9300D0CDB7DEB78A8382E089834C
:100C70008A818530C0F08A818830A8F4ABE5B0E085
:100C8000EBE5F0E08081482F8A81282F30E081E079
:100C900090E0022E02C0880F991F0A94E2F7809517
:100CA00084238C9301C0198289810F900F90CF917A
:100CB000DF910895DF93CF9300D000D000D0CDB75F
:100CC000DEB78A837C836B8382E089838B819C81FE
:100CD000009719F481E089832BC08A81282F30E0A6
:100CE0003E832D838D819E818630910559F02D8123
:100CF0003E812730310569F08D819E8185309105D7
:100D000079F015C08B819C81909381008093800045
:100D10000FC08B819C81909383008093820008C0D8
:100D20008B819C81909385008093840001C01982FF
:100D3000898126960FB6F894DEBF0FBECDBFCF9146
:100D4000DF9108951F920F920FB60F9211242F93E7
:100D50003F934F935F936F937F938F939F93AF9343
:100D6000BF93EF93FF93DF93CF93CDB7DEB780911F
:100D7000800090918100009729F0E0918000F0912F
:100D800081000995CF91DF91FF91EF91BF91AF91D4
:100D90009F918F917F916F915F914F913F912F9193
:100DA0000F900FBE0F901F9018951F920F920FB6C5
:100DB0000F9211242F933F934F935F936F937F93E1
:100DC0008F939F93AF93BF93EF93FF93DF93CF9353
:100DD000CDB7DEB78091820090918300009729F013
:100DE000E0918200F09183000995CF91DF91FF910E
:100DF000EF91BF91AF919F918F917F916F915F9193
:100E00004F913F912F910F900FBE0F901F9018950B
:100E10001F920F920FB60F9211242F933F934F936F
:100E20005F936F937F938F939F93AF93BF93EF9352
:100E3000FF93DF93CF93CDB7DEB78091840090917D
:100E40008500009729F0E0918400F09185000995D4
:100E5000CF91DF91FF91EF91BF91AF919F918F91D2
:100E60007F916F915F914F913F912F910F900FBEA6
:100E70000F901F901895DF93CF93CDB7DEB72F97C4
:100E80000FB6F894DEBF0FBECDBF8C836D8382E0BA
:100E90008B838C819AE0692F0E9435158A838C811F
:100EA0009AE0692F0E943515892F89838A81282F1E
:100EB00030E03F872E878E859F858230910509F42B
:100EC00050C02E853F852330310534F48E859F85B3
:100ED0008130910571F0EDC02E853F8523303105BD
:100EE00009F477C08E859F858430910509F4A9C0E7
:100EF000E0C08D81282F30E03D872C878C859D8533
:100F0000009731F02C853D8521303105B1F0D2C0FC
:100F1000AAE3B0E0EAE3F0E08081482F8981282F3E
:100F200030E081E090E0022E02C0880F991F0A9401
:100F3000E2F7809584238C93BDC0AAE3B0E0EAE396
:100F4000F0E08081482F8981282F30E081E090E017
:100F5000022E02C0880F991F0A94E2F7842B8C930B
:100F6000A9C08D81282F30E03B872A878A859B8501
:100F7000009731F02A853B8521303105B1F09AC0C8
:100F8000A7E3B0E0E7E3F0E08081482F8981282FD4
:100F900030E081E090E0022E02C0880F991F0A9491
:100FA000E2F7809584238C9385C0A7E3B0E0E7E364
:100FB000F0E08081482F8981282F30E081E090E0A7
:100FC000022E02C0880F991F0A94E2F7842B8C939B
:100FD00071C08D81282F30E03987288788859985D1
:100FE000009731F02885398521303105B1F062C094
:100FF000A4E3B0E0E4E3F0E08081482F8981282F6A
:1010000030E081E090E0022E02C0880F991F0A9420
:10101000E2F7809584238C934DC0A4E3B0E0E4E331
:10102000F0E08081482F8981282F30E081E090E036
:10103000022E02C0880F991F0A94E2F7842B8C932A
:1010400039C08D81282F30E03F832E838E819F8190
:10105000009731F02E813F8121303105B1F02AC057
:10106000AAE3B0E0EAE3F0E08081482F8981282FED
:1010700030E081E090E0022E02C0880F991F0A94B0
:10108000E2F7809584238C9315C0AAE3B0E0EAE3ED
:10109000F0E08081482F8981282F30E081E090E0C6
:1010A000022E02C0880F991F0A94E2F7842B8C93BA
:1010B00001C01B828B812F960FB6F894DEBF0FBE46
:1010C000CDBFCF91DF910895DF93CF93CDB7DEB73A
:1010D0002F970FB6F894DEBF0FBECDBF8C836D8304
:1010E00082E08B838C819AE0692F0E9435158A8378
:1010F0008C819AE0692F0E943515892F89838A8116
:10110000282F30E03F872E878E859F85823091057E
:1011100009F450C02E853F852330310534F48E8587
:101120009F858130910571F0EDC02E853F8523307C
:10113000310509F477C08E859F858430910509F4C7
:10114000A9C0E0C08D81282F30E03D872C878C8599
:101150009D85009731F02C853D8521303105B1F01A
:10116000D2C0ABE3B0E0EBE3F0E08081482F8981AF
:10117000282F30E081E090E0022E02C0880F991FF6
:101180000A94E2F7809584238C93BDC0ABE3B0E072
:10119000EBE3F0E08081482F8981282F30E081E067
:1011A00090E0022E02C0880F991F0A94E2F7842B68
:1011B0008C93A9C08D81282F30E03B872A878A85B0
:1011C0009B85009731F02A853B8521303105B1F0B0
:1011D0009AC0A8E3B0E0E8E3F0E08081482F89817D
:1011E000282F30E081E090E0022E02C0880F991F86
:1011F0000A94E2F7809584238C9385C0A8E3B0E03D
:10120000E8E3F0E08081482F8981282F30E081E0F9
:1012100090E0022E02C0880F991F0A94E2F7842BF7
:101220008C9371C08D81282F30E03987288788857D
:101230009985009731F02885398521303105B1F045
:1012400062C0A5E3B0E0E5E3F0E08081482F89814A
:10125000282F30E081E090E0022E02C0880F991F15
:101260000A94E2F7809584238C934DC0A5E3B0E007
:10127000E5E3F0E08081482F8981282F30E081E08C
:1012800090E0022E02C0880F991F0A94E2F7842B87
:101290008C9339C08D81282F30E03F832E838E813F
:1012A0009F81009731F02E813F8121303105B1F0CF
:1012B0002AC0A2E3B0E0E2E3F0E08081482F898118
:1012C000282F30E081E090E0022E02C0880F991FA5
:1012D0000A94E2F7809584238C9315C0A2E3B0E0D2
:1012E000E2E3F0E08081482F8981282F30E081E01F
:1012F00090E0022E02C0880F991F0A94E2F7842B17
:101300008C9301C01B828B812F960FB6F894DEBFA1
:101310000FBECDBFCF91DF910895DF93CF9300D063
:1013200000D00F92CDB7DEB78A836B8382E08983CA
:101330008A81282F30E03D832C838C819D818230EF
:101340009105D9F02C813D812330310534F48C8115
:101350009D818130910561F01FC02C813D8123303A
:10136000310581F08C819D818430910581F014C01C
:10137000EBE3F0E08B81808310C0E8E3F0E08B8149
:1013800080830BC0E5E3F0E08B81808306C0E2E35D
:10139000F0E08B81808301C0198289810F900F90CA
:1013A0000F900F900F90CF91DF910895DF93CF931F
:1013B00000D000D000D0CDB7DEB78C8382E08B8325
:1013C0008C819AE0692F0E9435158A838C819AE07E
:1013D000692F0E943515892F89838A81282F30E053
:1013E0003E832D838D819E818230910551F12D8127
:1013F0003E812330310534F48D819E818130910509
:1014000061F05BC02D813E812330310571F18D810A
:101410009E8184309105E9F150C0ABE3B0E0EBE38D
:10142000F0E08081482F8981282F30E081E090E032
:10143000022E02C0880F991F0A94E2F784278C932A
:101440003DC0A8E3B0E0E8E3F0E08081482F898167
:10145000282F30E081E090E0022E02C0880F991F13
:101460000A94E2F784278C9329C0A5E3B0E0E5E372
:10147000F0E08081482F8981282F30E081E090E0E2
:10148000022E02C0880F991F0A94E2F784278C93DA
:1014900015C0A2E3B0E0E2E3F0E08081482F89814B
:1014A000282F30E081E090E0022E02C0880F991FC3
:1014B0000A94E2F784278C9301C01B828B812696C5
:1014C0000FB6F894DEBF0FBECDBFCF91DF91089568
:1014D000DF93CF93CDB7DEB728970FB6F894DEBF72
:1014E0000FBECDBF8C837E836D8382E08B838C8126
:1014F0009AE0692F0E9435158A838C819AE0692FC2
:101500000E943515892F89838A81282F30E03887FA
:101510002F834F8158854230510559F18F8198852D
:101520008330910534F42F8138852130310569F0FD
:101530005CC04F8158854330510579F18F81988582
:101540008430910509F43DC050C0E9E3F0E08081AA
:10155000282F30E08981882F90E0A90102C055959D
:1015600047958A95E2F7CA018170ED81FE818083FB
:101570003DC0E6E3F0E08081282F30E08981882FAC
:1015800090E0A90102C0559547958A95E2F7CA01F6
:101590008170ED81FE81808329C0E3E3F0E08081EA
:1015A000282F30E08981882F90E0A90102C055954D
:1015B00047958A95E2F7CA018170ED81FE818083AB
:1015C00015C0E0E3F0E08081282F30E08981882F8A
:1015D00090E0A90102C0559547958A95E2F7CA01A6
:1015E0008170ED81FE81808301C01B828B812896F2
:1015F0000FB6F894DEBF0FBECDBFCF91DF91089537
:10160000DF93CF9300D000D000D0CDB7DEB78A8370
:101610007C836B8382E089838B819C81009719F4A2
:1016200081E089833DC08A81282F30E03E832D836D
:101630008D819E8182309105E9F02D813E8123309C
:10164000310534F48D819E818130910561F027C090
:101650002D813E8123303105A1F08D819E81843022
:101660009105B1F01CC0E9E3F0E08081EB81FC81E1
:10167000808316C0E6E3F0E08081EB81FC8180830B
:101680000FC0E3E3F0E08081EB81FC81808308C040
:10169000E0E3F0E08081EB81FC81808301C019826E
:1016A000898126960FB6F894DEBF0FBECDBFCF91CD
:1016B000DF910895DF93CF9300D00F92CDB7DEB7BF
:1016C0009B838A8382E08983EA81FB8180818823EE
:1016D00091F0EA81FB818081853068F4EA81FB81A9
:1016E000818160E00E943B07EA81FB81818161E0AA
:1016F0000E94640801C0198289810F900F900F9099
:10170000CF91DF910895DF93CF93CDB7DEB7649784
:101710000FB6F894DEBF0FBECDBF9A8B898B7C8B42
:101720006B8B82E08F8781E0888BE989FA898181E0
:101730009E01205F3F4FB9010E94680A8889882373
:1017400009F094C080E090E0A0EAB1E48B879C8728
:10175000AD87BE876B857C858D859E8520E030E0DA
:101760004AEF54E40E941F02DC01CB018F8398876B
:10177000A987BA876F81788589859A8520E030E0CE
:1017800040E85FE30E94790388232CF481E090E035
:101790009E838D833FC06F81788589859A8520E0FF
:1017A0003FEF4FE757E40E94190318164CF56B857D
:1017B0007C858D859E8520E030E040E251E40E94EA
:1017C0001F02DC01CB01BC01CD010E944900DC01FC
:1017D000CB019E838D830FC088EC90E09C838B832C
:1017E0008B819C810197F1F79C838B838D819E81F6
:1017F00001979E838D838D819E81009769F714C028
:101800006F81788589859A850E944900DC01CB012A
:101810009E838D838D819E819A83898389819A811C
:101820000197F1F79A838983E989FA8981819E0179
:10183000205F3F4FB9010E94680A8889882389F494
:1018400009C0E989FA8981819E01205F3F4FB90172
:101850000E94680A88898823A1F3EB89FC89108299
:1018600009C0EB89FC8981E0808304C0EB89FC8995
:1018700081E080838F8564960FB6F894DEBF0FBE3B
:10188000CDBFCF91DF910895DF93CF9300D000D0EB
:10189000CDB7DEB78A8382E089838A81282F30E042
:1018A0003C832B838B819C818230910579F02B8145
:1018B0003C812330310579F08B819C818130910509
:1018C00079F48EE161E00E943B070BC08FE161E09B
:1018D0000E943B0706C080E261E00E943B0701C016
:1018E000198289810F900F900F900F90CF91DF9107
:1018F0000895DF93CF9300D000D0CDB7DEB78A83B1
:1019000082E089838A81282F30E03C832B838B817E
:101910009C818230910579F02B813C812330310507
:1019200079F08B819C818130910579F48EE161E0C1
:101930000E9464080BC08FE161E00E94640806C049
:1019400080E261E00E94640801C0198289810F90E1
:101950000F900F900F90CF91DF910895DF93CF9369
:1019600000D000D0CDB7DEB78A8382E089838A8138
:10197000282F30E03C832B838B819C818230910522
:1019800079F02B813C812330310579F08B819C816A
:101990008130910579F48EE160E00E9464080BC00B
:1019A0008FE160E00E94640806C080E260E00E946F
:1019B000640801C0198289810F900F900F900F90D9
:1019C000CF91DF910895DF93CF9300D000D0CDB7B2
:1019D000DEB78A8382E089838A81282F30E03C83C6
:1019E0002B838B819C818230910571F02B813C810E
:1019F0002330310569F08B819C818130910561F440
:101A00008EE10E94D60909C08FE10E94D60905C067
:101A100080E20E94D60901C0198289810F900F903F
:101A20000F900F90CF91DF910895DF93CF93CDB7B3
:101A3000DEB7AB970FB6F894DEBF0FBECDBF82E026
:101A40008BA78BE061E00E943B078CE061E00E9485
:101A50003B0780E161E00E943B078FE061E00E946C
:101A60003B078EE061E00E943B078DE061E00E9451
:101A70003B0780E090E0ACE0B2E48FA398A7A9A771
:101A8000BAA76FA178A589A59AA520E030E04AEF12
:101A900054E40E941F02DC01CB018BA39CA3ADA3E5
:101AA000BEA36BA17CA18DA19EA120E030E040E807
:101AB0005FE30E94790388232CF481E090E09AA3ED
:101AC00089A33FC06BA17CA18DA19EA120E03FEF27
:101AD0004FE757E40E94190318164CF56FA178A53B
:101AE00089A59AA520E030E040E251E40E941F025F
:101AF000DC01CB01BC01CD010E944900DC01CB011E
:101B00009AA389A30FC088EC90E098A38F8F8F8D44
:101B100098A10197F1F798A38F8F89A19AA10197B6
:101B20009AA389A389A19AA1009769F714C06BA110
:101B30007CA18DA19EA10E944900DC01CB019AA34A
:101B400089A389A19AA19E8F8D8F8D8D9E8D0197DE
:101B5000F1F79E8F8D8F8CE060E00E94640880E139
:101B600060E00E9464088FE060E00E9464088EE0FC
:101B700061E00E9464088DE060E00E9464088CE0EF
:101B800061E00E94640880E090E0A0E8BFE3898FF4
:101B90009A8FAB8FBC8F698D7A8D8B8D9C8D20E059
:101BA00030E04AEF54E40E941F02DC01CB018D8B30
:101BB0009E8BAF8BB88F6D897E898F89988D20E041
:101BC00030E040E85FE30E94790388232CF481E051
:101BD00090E09C8B8B8B3FC06D897E898F89988D1F
:101BE00020E03FEF4FE757E40E94190318164CF529
:101BF000698D7A8D8B8D9C8D20E030E040E251E440
:101C00000E941F02DC01CB01BC01CD010E944900F2
:101C1000DC01CB019C8B8B8B0FC088EC90E09A8B06
:101C2000898B89899A890197F1F79A8B898B8B899E
:101C30009C8901979C8B8B8B8B899C89009769F77A
:101C400014C06D897E898F89988D0E944900DC01BE
:101C5000CB019C8B8B8B8B899C89988B8F878F85F5
:101C600098890197F1F7988B8F878CE060E00E944C
:101C7000640880E090E0A0EFB1E48B879C87AD879B
:101C8000BE876B857C858D859E8520E030E04AEFA0
:101C900054E40E941F02DC01CB018F839887A9873F
:101CA000BA876F81788589859A8520E030E040E8A1
:101CB0005FE30E94790388232CF481E090E09E8307
:101CC0008D833FC06F81788589859A8520E03FEFBD
:101CD0004FE757E40E94190318164CF56B857C8575
:101CE0008D859E8520E030E040E251E40E941F0295
:101CF000DC01CB01BC01CD010E944900DC01CB011C
:101D00009E838D830FC088EC90E09C838B838B81B6
:101D10009C810197F1F79C838B838D819E81019734
:101D20009E838D838D819E81009769F714C06F819A
:101D3000788589859A850E944900DC01CB019E83C4
:101D40008D838D819E819A83898389819A81019770
:101D5000F1F79A83898388E20E94D30E8EE00E9475
:101D6000D30E81E00E94D30E86E00E94D30E8BA595
:101D7000AB960FB6F894DEBF0FBECDBFCF91DF910B
:101D80000895DF93CF930F92CDB7DEB789838BE0B1
:101D900061E00E94640889810E94FB0F82E00F903D
:101DA000CF91DF910895DF93CF930F92CDB7DEB738
:101DB00089838BE060E00E94640889810E94FB0FA8
:101DC00082E00F90CF91DF910895DF93CF9300D001
:101DD000CDB7DEB79A8389830AC0E981FA81808111
:101DE0000E94C10E89819A8101969A838983E98133
:101DF000FA818081882389F782E00F900F90CF913C
:101E0000DF910895DF93CF93CDB7DEB781E00E94D5
:101E1000D30E82E0CF91DF9108950F931F93DF934C
:101E2000CF93CDB7DEB72F970FB6F894DEBF0FBEB6
:101E3000CDBF6C877D878E879F8719828AE0FE01E0
:101E40003296DF01982F1D929A95E9F78C859D8532
:101E5000AE85BF850097A105B10521F480E30E94FE
:101E6000C10E49C08C859D85AE85BF85BB230CF016
:101E700042C08DE20E94C10E8C859D85AE85BF85D6
:101E8000B095A095909581959F4FAF4FBF4F8C8790
:101E90009D87AE87BF872FC08981082F112707FD37
:101EA00010958C859D85AE85BF852AE030E040E0A9
:101EB00050E0BC01CD010E944115DC01CB01282F6F
:101EC000CE010296FC01E00FF11F20838C859D85D9
:101ED000AE85BF852AE030E040E050E0BC01CD0196
:101EE0000E944115DA01C9018C879D87AE87BF87A3
:101EF00089818F5F89838C859D85AE85BF85181606
:101F000019061A061B0644F289818150898311C083
:101F10008981282F332727FD3095CE010296FC01B9
:101F2000E20FF31F8081805D0E94C10E8981815084
:101F300089838981882364F782E02F960FB6F8940D
:101F4000DEBF0FBECDBFCF91DF911F910F910895DE
:101F5000DF93CF9300D0CDB7DEB789836A838981C1
:101F6000813041F48A81803128F48A8180680E941E
:101F7000D30E0BC08981823041F48A81803128F4EC
:101F80008A81805C806C0E94D30E82E00F900F905B
:101F9000CF91DF910895DF93CF9300D000D0CDB7DC
:101FA000DEB78A837C836B838A81882F90E00896D2
:101FB000880F991F880F991F880F991F0E94D30EB1
:101FC00019820EC08981282F30E08B819C81FC0111
:101FD000E20FF31F80810E94C10E89818F5F898388
:101FE0008981883078F382E00F900F900F900F90E6
:101FF000CF91DF910895DF93CF93CDB7DEB7EF9701
:102000000FB6F894DEBF0FBECDBF8FAF8DE08BAFA4
:102010008EE08CAF8FE08DAF80E18EAF8CE060E022
:102020000E9464081AAE20C08AAD282F30E0CE018D
:10203000CB96FC01E20FF31F40818FAD282F30E0DB
:102040008AAD882F90E00496B90102C07595679516
:102050008A95E2F7CB01982F9170842F692F0E9407
:1020600064088AAD8F5F8AAF8AAD8430E8F28CE075
:1020700061E00E94640880E090E0A0E8BFE38DABDF
:102080009EABAFABB8AF6DA97EA98FA998AD20E08C
:1020900030E04AEF54E40E941F02DC01CB0189AB1F
:1020A0009AABABABBCAB69A97AA98BA99CA920E080
:1020B00030E040E85FE30E94790388232CF481E05C
:1020C00090E098AB8FA73FC069A97AA98BA99CA97A
:1020D00020E03FEF4FE757E40E94190318164CF534
:1020E0006DA97EA98FA998AD20E030E040E251E4CF
:1020F0000E941F02DC01CB01BC01CD010E944900FE
:10210000DC01CB0198AB8FA70FC088EC90E09EA7B5
:102110008DA78DA59EA50197F1F79EA78DA78FA5E9
:1021200098A9019798AB8FA78FA598A9009769F7F1
:1021300014C069A97AA98BA99CA90E944900DC0155
:10214000CB0198AB8FA78FA598A99CA78BA78BA530
:102150009CA50197F1F79CA78BA78CE060E00E94FB
:10216000640880E090E0A0EFB1E48FA398A7A9A74E
:10217000BAA76FA178A589A59AA520E030E04AEF1B
:1021800054E40E941F02DC01CB018BA39CA3ADA3EE
:10219000BEA36BA17CA18DA19EA120E030E040E810
:1021A0005FE30E94790388232CF481E090E09AA3F6
:1021B00089A33FC06BA17CA18DA19EA120E03FEF30
:1021C0004FE757E40E94190318164CF56FA178A544
:1021D00089A59AA520E030E040E251E40E941F0268
:1021E000DC01CB01BC01CD010E944900DC01CB0127
:1021F0009AA389A30FC088EC90E098A38F8F8F8D4E
:1022000098A10197F1F798A38F8F89A19AA10197BF
:102210009AA389A389A19AA1009769F714C06BA119
:102220007CA18DA19EA10E944900DC01CB019AA353
:1022300089A389A19AA19E8F8D8F8D8D9E8D0197E7
:10224000F1F79E8F8D8F19AE1FC089AD282F30E01A
:10225000CE01CB96FC01E20FF31F40818FAD282FFA
:1022600030E089AD882F90E0B90102C0759567957F
:102270008A95E2F7CB01982F9170842F692F0E94E5
:10228000640889AD8F5F89AF89AD8430F0F28CE04E
:1022900061E00E94640880E090E0A0E8BFE3898FDD
:1022A0009A8FAB8FBC8F698D7A8D8B8D9C8D20E042
:1022B00030E04AEF54E40E941F02DC01CB018D8B19
:1022C0009E8BAF8BB88F6D897E898F89988D20E02A
:1022D00030E040E85FE30E94790388232CF481E03A
:1022E00090E09C8B8B8B3FC06D897E898F89988D08
:1022F00020E03FEF4FE757E40E94190318164CF512
:10230000698D7A8D8B8D9C8D20E030E040E251E428
:102310000E941F02DC01CB01BC01CD010E944900DB
:10232000DC01CB019C8B8B8B0FC088EC90E09A8BEF
:10233000898B89899A890197F1F79A8B898B8B8987
:102340009C8901979C8B8B8B8B899C89009769F763
:1023500014C06D897E898F89988D0E944900DC01A7
:10236000CB019C8B8B8B8B899C89988B8F878F85DE
:1023700098890197F1F7988B8F878CE060E00E9435
:10238000640880E090E0A0EFB1E48B879C87AD8784
:10239000BE876B857C858D859E8520E030E04AEF89
:1023A00054E40E941F02DC01CB018F839887A98728
:1023B000BA876F81788589859A8520E030E040E88A
:1023C0005FE30E94790388232CF481E090E09E83F0
:1023D0008D833FC06F81788589859A8520E03FEFA6
:1023E0004FE757E40E94190318164CF56B857C855E
:1023F0008D859E8520E030E040E251E40E941F027E
:10240000DC01CB01BC01CD010E944900DC01CB0104
:102410009E838D830FC088EC90E09C838B838B819F
:102420009C810197F1F79C838B838D819E8101971D
:102430009E838D838D819E81009769F714C06F8183
:10244000788589859A850E944900DC01CB019E83AD
:102450008D838D819E819A83898389819A81019759
:10246000F1F79A838983EF960FB6F894DEBF0FBE1B
:10247000CDBFCF91DF910895DF93CF9300D0CDB73B
:10248000DEB78A8382E089838A81882F90E0813059
:10249000910529F483E261E00E943B0701C01982A3
:1024A00089810F900F90CF91DF910895DF93CF93A3
:1024B00000D0CDB7DEB78A8382E089838A81882FF6
:1024C00090E08130910529F483E261E00E94640884
:1024D00001C0198289810F900F90CF91DF910895EB
:1024E000DF93CF9300D0CDB7DEB78A8382E08983B4
:1024F0008A81882F90E08130910529F483E260E0A1
:102500000E94640801C0198289810F900F90CF91B9
:10251000DF910895DF93CF93CDB7DEB760970FB605
:10252000F894DEBF0FBECDBF888B82E08F8788898D
:10253000882F90E08130910509F07BC083E261E053
:102540000E94640880E090E0AAE7B4E48B879C874F
:10255000AD87BE876B857C858D859E8520E030E0CC
:102560004AEF54E40E941F02DC01CB018F8398875D
:10257000A987BA876F81788589859A8520E030E0C0
:1025800040E85FE30E94790388232CF481E090E027
:102590009E838D833FC06F81788589859A8520E0F1
:1025A0003FEF4FE757E40E94190318164CF56B856F
:1025B0007C858D859E8520E030E040E251E40E94DC
:1025C0001F02DC01CB01BC01CD010E944900DC01EE
:1025D000CB019E838D830FC088EC90E09C838B831E
:1025E0008B819C810197F1F79C838B838D819E81E8
:1025F00001979E838D838D819E81009769F714C01A
:102600006F81788589859A850E944900DC01CB011C
:102610009E838D838D819E819A83898389819A810E
:102620000197F1F79A83898383E260E00E9464084E
:1026300001C01F868F8560960FB6F894DEBF0FBE6F
:10264000CDBFCF91DF910895DF93CF93CDB7DEB7A4
:10265000A0970FB6F894DEBF0FBECDBF8F8F68A3D3
:1026600082E08E8F8F8D882F90E08130910509F068
:10267000F7C01D8EEFC083E261E00E94640880E035
:1026800090E0AAE7B4E4898F9A8FAB8FBC8F698DF5
:102690007A8D8B8D9C8D20E030E04AEF54E40E94CF
:1026A0001F02DC01CB018D8B9E8BAF8BB88F6D89A8
:1026B0007E898F89988D20E030E040E85FE30E94BA
:1026C000790388232CF481E090E09C8B8B8B3FC0B6
:1026D0006D897E898F89988D20E03FEF4FE757E421
:1026E0000E94190318164CF5698D7A8D8B8D9C8D7F
:1026F00020E030E040E251E40E941F02DC01CB0107
:10270000BC01CD010E944900DC01CB019C8B8B8B6D
:102710000FC088EC90E09A8B898B89899A89019700
:10272000F1F79A8B898B8B899C8901979C8B8B8B7A
:102730008B899C89009769F714C06D897E898F8980
:10274000988D0E944900DC01CB019C8B8B8B8B897F
:102750009C89988B8F878F8598890197F1F7988B43
:102760008F8783E260E00E94640880E090E0AAE73F
:10277000B4E48B879C87AD87BE876B857C858D8510
:102780009E8520E030E04AEF54E40E941F02DC0105
:10279000CB018F839887A987BA876F8178858985D0
:1027A0009A8520E030E040E85FE30E9479038823C7
:1027B0002CF481E090E09E838D833FC06F8178850B
:1027C00089859A8520E03FEF4FE757E40E9419037F
:1027D00018164CF56B857C858D859E8520E030E054
:1027E00040E251E40E941F02DC01CB01BC01CD019B
:1027F0000E944900DC01CB019E838D830FC088ECD1
:1028000090E09C838B838B819C810197F1F79C8363
:102810008B838D819E8101979E838D838D819E8187
:10282000009769F714C06F81788589859A850E9421
:102830004900DC01CB019E838D838D819E819A832B
:10284000898389819A810197F1F79A8389838D8D94
:102850008F5F8D8F9D8D88A1981708F40CCF01C0D4
:102860001E8E8E8DA0960FB6F894DEBF0FBECDBF24
:10287000CF91DF910895DF93CF93CDB7DEB781E09D
:1028800080938600CF91DF910895DF93CF93CDB7EA
:10289000DEB72F970FB6F894DEBF0FBECDBF81E035
:1028A0008F8781E00E94440C82E00E94440C83E008
:1028B0000E94440C0E94150D81E00E943C1286E0AB
:1028C00062E00E94B5052BE334E186E0B9010E9485
:1028D0005A060E94A305809186008130E1F781E0CD
:1028E00062E00E94A80F80E690E00E94E50E81E081
:1028F0000E94561281E00E94E30C82E00E94E30CE9
:1029000083E00E94E30C80E090E0AAEFB3E48B87C1
:102910009C87AD87BE876B857C858D859E8520E0F5
:1029200030E04AEF54E40E941F02DC01CB018F83A8
:102930009887A987BA876F81788589859A8520E0ED
:1029400030E040E85FE30E94790388232CF481E0C3
:1029500090E09E838D833FC06F81788589859A85BD
:1029600020E03FEF4FE757E40E94190318164CF59B
:102970006B857C858D859E8520E030E040E251E4CA
:102980000E941F02DC01CB01BC01CD010E94490065
:10299000DC01CB019E838D830FC088EC90E09C838B
:1029A0008B838B819C810197F1F79C838B838D8135
:1029B0009E8101979E838D838D819E81009769F70B
:1029C00014C06F81788589859A850E944900DC0151
:1029D000CB019E838D838D819E819A83898389819A
:1029E0009A810197F1F79A8389839E01215F3F4F76
:1029F0008AE2B9010E94680A8F85882309F06BCFAB
:102A000081E00E94AE0C82E00E94AE0C83E00E9446
:102A1000AE0C81E00E9470120E94020F109286009C
:102A200014C09E01215F3F4F8AE2B9010E94680AEB
:102A30008F85882351F41092860081E062E00E9425
:102A4000A80F8DE690E00E94E50E80918600882315
:102A500041F341CFDF93CF93CDB7DEB70E9445144A
:102A600080E090E0CF91DF910895991B79E004C058
:102A7000991F961708F0961B881F7A95C9F78095BD
:102A8000089597FB092E05260ED057FD04D014D0CB
:102A90000AD0001C38F450954095309521953F4F51
:102AA0004F4F5F4F0895F6F790958095709561951B
:102AB0007F4F8F4F9F4F0895A1E21A2EAA1BBB1B79
:102AC000FD010DC0AA1FBB1FEE1FFF1FA217B307FA
:102AD000E407F50720F0A21BB30BE40BF50B661F10
:102AE000771F881F991F1A9469F7609570958095D4
:102AF00090959B01AC01BD01CF0108952F923F92AB
:102B00004F925F926F927F928F929F92AF92BF92FD
:102B1000CF92DF92EF92FF920F931F93CF93DF93A9
:102B2000CDB7DEB7CA1BDB0B0FB6F894DEBF0FBE06
:102B3000CDBF09942A88398848885F846E847D8453
:102B40008C849B84AA84B984C884DF80EE80FD8055
:102B50000C811B81AA81B981CE0FD11D0FB6F894CB
:0E2B6000DEBF0FBECDBFED010895F894FFCF8C
:102B6E004E4F524D414C204D4F4445210053544F32
:102B7E0050204D4F44452100000000000000000091
:00000001FF
