:100000000C942A000C9447000C9447000C94470071
:100010000C9447000C9447000C9447000C94470044
:100020000C9447000C9447000C9418090C94AF08EA
:100030000C9447000C9447000C9447000C94470024
:100040000C9447000C9447000C9447000C94470014
:100050000C94470011241FBECFE5D8E0DEBFCDBF12
:1000600011E0A0E6B0E0E0E6F2E202C005900D92F9
:10007000A838B107D9F711E0A8E8B1E001C01D9296
:10008000AE39B107E1F70E94BF100C942E110C9409
:100090000000EF92FF920F931F937B018C0120E0F1
:1000A00030E040E05FE40E94F50388238CF0C80153
:1000B000B70120E030E040E05FE40E94C1010E940F
:1000C00055049B01AC01205030404040504806C0D0
:1000D000C801B7010E9455049B01AC01B901CA01D6
:1000E0001F910F91FF90EF900895A0E0B0E0EBE733
:1000F000F0E00C94F710DC012B01FA019C91923096
:1001000008F439C1EB018881823008F433C194309E
:1001100069F4843009F02FC111969C91119789815F
:10012000981709F428C1A0E6B0E025C1843009F48D
:1001300021C18230A9F4923009F01DC19A01AD01AC
:1001400088E0EA010990AE01E90109929E0181501F
:10015000C1F7E201898111969C918923818308C1AD
:10016000923009F407C112962D903C901397EB0141
:100170008A819B811496AD90BD90CD90DC901797AD
:10018000EC80FD800E811F819101281B390BB90184
:1001900037FF04C066277727621B730B6032710537
:1001A0000CF061C0121613066CF537014801062EDB
:1001B00004C096948794779467940A94D2F721E0C8
:1001C00030E040E050E004C0220F331F441F551FB1
:1001D0006A95D2F721503040404050402E213F21B7
:1001E00040235123211531054105510521F021E01E
:1001F00030E040E050E079018A01E628F72808293C
:1002000019293CC0232BD1F1260E371E350146019A
:10021000062E04C096948794779467940A94D2F734
:1002200021E030E040E050E004C0220F331F441FC3
:10023000551F6A95D2F721503040404050402A2146
:100240003B214C215D21211531054105510521F04E
:1002500021E030E040E050E059016A01A628B728CB
:10026000C828D9280BC0821593052CF01C01AA249C
:10027000BB24650103C0EE24FF24870111969C91E5
:10028000D20111968C91981709F445C0992339F041
:10029000A80197012A193B094C095D0906C0A6016E
:1002A00095012E193F09400B510B57FD08C01182D3
:1002B0003382228224833583468357831DC081E0A5
:1002C00081833382228288279927DC01821B930B4A
:1002D000A40BB50B84839583A683B7830DC0220F2F
:1002E000331F441F551F24833583468357838281E0
:1002F000938101979383828324813581468157813D
:10030000DA01C9010197A109B1098F5F9F4FAF4F72
:10031000BF4328F30BC0918333822282EA0CFB1C7B
:100320000C1D1D1DE482F5820683178383E0808304
:10033000248135814681578157FF1AC0C901AA27F8
:1003400097FDA095BA2F81709070A070B0705695EF
:10035000479537952795822B932BA42BB52B848318
:100360009583A683B7838281938101969383828349
:10037000DF0101C0D201CD01CDB7DEB7E2E10C94BF
:100380001311A0E2B0E0E7ECF1E00C9403116983F3
:100390007A838B839C832D833E834F835887E9E048
:1003A000EE2EF12CEC0EFD1ECE010196B7010E943F
:1003B00046068E010F5E1F4FCE010596B8010E94C2
:1003C00046068A8991E089278A8BC701B801AE0168
:1003D000475E5F4F0E9475000E947105A096E6E09F
:1003E0000C941F11A0E2B0E0E8EFF1E00C940311CF
:1003F00069837A838B839C832D833E834F835887C5
:10040000F9E0EF2EF12CEC0EFD1ECE010196B701A6
:100410000E9446068E010F5E1F4FCE010596B80161
:100420000E944606C701B801AE01475E5F4F0E94B9
:1004300075000E947105A096E6E00C941F11A0E2E1
:10044000B0E0E5E2F2E00C94F71069837A838B83E5
:100450009C832D833E834F835887CE010196BE0136
:10046000675F7F4F0E944606CE010596BE016F5E14
:100470007F4F0E9446069985923088F089898230A4
:10048000C8F0943019F4823051F404C0843029F457
:10049000923081F480E690E0C6C0923049F420E0CA
:1004A0009A858A89981321E02A87CE010996BBC0D4
:1004B000823049F420E09A858A89981321E02A8BBA
:1004C000CE014196B0C02D843E844F8458886D88FB
:1004D0007E888F88988CEE24FF248701AA24BB2471
:1004E000650140E050E060E070E0E0E0F0E0C10174
:1004F00081709070892BE9F0E60CF71C081D191D1E
:100500009A01AB012A0D3B1D4C1D5D1D80E090E062
:10051000A0E0B0E0E614F7040805190520F481E036
:1005200090E0A0E0B0E0BA01A901480F591F6A1F8E
:100530007B1FAA0CBB1CCC1CDD1C97FE08C081E0F5
:1005400090E0A0E0B0E0A82AB92ACA2ADB2A3196B6
:10055000E032F10549F0660C771C881C991C569412
:10056000479437942794C3CFFA85EA892B893C892D
:100570008B859C85280F391F2E5F3F4F17C0CA01FE
:1005800081709070892B61F016950795F794E79428
:1005900080E090E0A0E0B0E8E82AF92A0A2B1B2BC3
:1005A00076956795579547952F5F3F4F77FDE7CF36
:1005B0000CC0440F551F661F771F17FD4160EE0CDE
:1005C000FF1C001F111F21503040403090E05907A0
:1005D00090E0690790E4790760F32B8F3C8FDB0193
:1005E000CA018F779070A070B07080349105A1051A
:1005F000B10561F447FD0AC0E114F10401051105DC
:1006000029F0405C5F4F6F4F7F4F40781A8EFE1786
:1006100011F081E08A8F4D8F5E8F6F8F78A383E01A
:10062000898FCE0149960E947105A096E2E10C9453
:100630001311A8E1B0E0EFE1F3E00C94FF1069833F
:100640007A838B839C832D833E834F835887B9E0C5
:10065000EB2EF12CEC0EFD1ECE010196B7010E948F
:1006600046068E010F5E1F4FCE010596B8010E940F
:1006700046062985223008F47EC03989323010F4CC
:10068000B8017CC08A859A8989278A87243011F02D
:10069000223031F4231709F06EC060E670E06EC0BE
:1006A000343039F41D861E861F86188A1C861B86E8
:1006B00004C0323021F484E08987B7015FC02B8504
:1006C0003C858B899C89281B390B3C872B87ED84C3
:1006D000FE840F851889AD88BE88CF88D88CEA142F
:1006E000FB040C051D0540F4EE0CFF1C001F111F40
:1006F000215030403C872B8720E030E040E050E044
:1007000080E090E0A0E0B0E460E070E0EA14FB0478
:100710000C051D0540F0282B392B4A2B5B2BEA18C2
:10072000FB080C091D09B695A79597958795EE0CC2
:10073000FF1C001F111F6F5F7F4F6F31710531F775
:10074000DA01C9018F779070A070B0708034910584
:10075000A105B10561F427FD0AC0E114F10401050A
:10076000110529F0205C3F4F4F4F5F4F20782D87B8
:100770003E874F87588BBE01675F7F4FCB010E943A
:1007800071056896EAE00C941B11A8E1B0E0EBEC6F
:10079000F3E00C94031169837A838B839C832D830C
:1007A0003E834F83588789E0E82EF12CEC0EFD1E26
:1007B000CE010196B7010E9446068E010F5E1F4FC3
:1007C000CE010596B8010E9446068985823040F028
:1007D0008989823028F0C701B8010E94BE0601C095
:1007E0008FEF6896E6E00C941F11A8E1B0E0EBEF04
:1007F000F3E00C94031169837A838B839C832D83AC
:100800003E834F83588789E0E82EF12CEC0EFD1EC5
:10081000CE010196B7010E9446068E010F5E1F4F62
:10082000CE010596B8010E9446068985823040F0C7
:100830008989823028F0C701B8010E94BE0601C034
:100840008FEF6896E6E00C941F11A8E1B0E0EBE2B0
:10085000F4E00C94031169837A838B839C832D834A
:100860003E834F83588789E0E82EF12CEC0EFD1E65
:10087000CE010196B7010E9446068E010F5E1F4F02
:10088000CE010596B8010E9446068985823040F067
:100890008989823028F0C701B8010E94BE0601C0D4
:1008A00081E06896E6E00C941F11ACE0B0E0EBE567
:1008B000F4E00C94071169837A838B839C83CE01C7
:1008C0000196BE016B5F7F4F0E9446068D8182308C
:1008D00061F1823050F1843021F48E81882351F10E
:1008E0002EC02F81388537FD20C06E812F31310514
:1008F0001CF06623F9F023C08EE190E0821B930B7D
:1009000029853A854B855C8504C056954795379572
:1009100027958A95D2F76623B1F05095409530958A
:1009200021953F4F4F4F5F4F0EC020E030E040E039
:1009300050E009C02FEF3FEF4FEF5FE704C020E02A
:1009400030E040E050E8B901CA012C96E2E00C9496
:100950002311A8E0B0E0EFEAF4E00C94FF107B0173
:100960008C01611571058105910519F482E0898377
:1009700060C083E089838EE1C82ED12CDC82CB82DB
:10098000ED82FE820F831887C801B7010E942205FD
:10099000FC013197F7FF3BC0222733272E1B3F0B6B
:1009A00057016801022E04C0D694C794B794A79447
:1009B0000A94D2F740E050E060E070E081E090E01F
:1009C000A0E0B0E004C0880F991FAA1FBB1F2A95A2
:1009D000D2F70197A109B1098E219F21A023B1234C
:1009E0000097A105B10521F041E050E060E070E022
:1009F0004A295B296C297D294D835E836F83788723
:100A00008EE190E08E1B9F0B9C838B8312C03097EE
:100A100081F00E2E04C0EE0CFF1C001F111F0A9463
:100A2000D2F7ED82FE820F831887CE1ADF0ADC82AE
:100A3000CB821A82CE0101960E9471052896EAE0C7
:100A40000C941B11EF92FF920F931F937B018C016B
:100A500080E0E81680E0F80681E0080780E01807EB
:100A600088F48FEFE816F1040105110531F028F044
:100A700088E090E0A0E0B0E017C080E090E0A0E067
:100A8000B0E012C080E0E81680E0F80680E00807D9
:100A900081E0180728F088E190E0A0E0B0E004C011
:100AA00080E190E0A0E0B0E020E230E040E050E003
:100AB000281B390B4A0B5B0B04C016950795F7945E
:100AC000E7948A95D2F7F701E859FF4F8081281BF8
:100AD000310941095109C9011F910F91FF90EF9010
:100AE0000895DF92EF92FF920F931F93FC01E48031
:100AF000F58006811781D1808081823048F480E0C2
:100B000090E0A0E1B0E0E82AF92A0A2B1B2BA5C04F
:100B1000843009F49FC0823021F4EE24FF24870141
:100B200005C0E114F1040105110519F4E0E0F0E05D
:100B300096C0628173819FEF623879070CF05BC0C9
:100B400022E83FEF261B370B2A3131052CF020E03D
:100B500030E040E050E02AC0B801A701022E04C0F6
:100B600076956795579547950A94D2F781E090E07E
:100B7000A0E0B0E004C0880F991FAA1FBB1F2A95F0
:100B8000D2F70197A109B1098E219F21A023B1239A
:100B90000097A105B10521F081E090E0A0E0B0E070
:100BA0009A01AB01282B392B4A2B5B2BDA01C901A7
:100BB0008F779070A070B07080349105A105B10559
:100BC00039F427FF09C0205C3F4F4F4F5F4F04C0EF
:100BD000215C3F4F4F4F5F4FE0E0F0E02030A0E05E
:100BE0003A07A0E04A07A0E45A0710F0E1E0F0E07D
:100BF00079018A0127C06038710564F5FB01E1586D
:100C0000FF4FD801C7018F779070A070B07080340B
:100C10009105A105B10539F4E7FE0DC080E490E02F
:100C2000A0E0B0E004C08FE390E0A0E0B0E0E80E08
:100C3000F91E0A1F1B1F17FF05C016950795F7948D
:100C4000E794319687E016950795F794E7948A958F
:100C5000D1F705C0EE24FF248701EFEFF0E06E2FFF
:100C6000679566276795902F9F77D794DD24D79453
:100C70008E2F8695492F462B582F5D29B701CA0123
:100C80001F910F91FF90EF90DF900895FC01DB0121
:100C9000408151812281622F6F7770E0221F2227CD
:100CA000221F9381892F880F822B282F30E0991FD4
:100CB0009927991F11969C93119721153105A9F534
:100CC000411551056105710511F482E037C082E8D4
:100CD0009FEF13969C938E9312979A01AB0167E056
:100CE000220F331F441F551F6A95D1F783E08C9361
:100CF0000DC0220F331F441F551F12968D919C91DA
:100D00001397019713969C938E931297203080E04F
:100D1000380780E0480780E4580758F314962D936D
:100D20003D934D935C93179708952F3F310579F4C8
:100D3000411551056105710519F484E08C930895FE
:100D400064FF03C081E08C9312C01C9210C02F5727
:100D5000304013963C932E93129783E08C9387E058
:100D6000440F551F661F771F8A95D1F7706414963C
:100D70004D935D936D937C93179708951F93DC01BA
:100D8000FB019C91923008F447C08081823008F4C6
:100D900043C0943051F411961C91843099F58181AF
:100DA000682F70E0611B71093FC0843021F09230E0
:100DB00031F48230B9F18181882389F12DC01196F7
:100DC0001C9111978230F1F081811817D9F4129695
:100DD0002D913C911397828193818217930794F010
:100DE00028173907BCF014968D919D910D90BC91F8
:100DF000A02D2481358146815781281739074A075C
:100E00005B0718F4112341F00AC082179307A40767
:100E1000B50740F4112319F061E070E005C06FEFF1
:100E20007FEF02C060E070E0CB011F910895DF9377
:100E3000CF93CDB7DEB7A3E5B0E0E3E5F0E0808186
:100E4000877B8C93A3E5B0E0E3E5F0E080818C93B1
:100E5000A3E5B0E0E3E5F0E080818F7C8C93A3E52F
:100E6000B0E0E3E5F0E0808180628C9382E0CF9196
:100E7000DF910895DF93CF93CDB7DEB7A3E5B0E060
:100E8000E3E5F0E08081887F8C93A3E5B0E0E3E5C3
:100E9000F0E0808185608C9382E0CF91DF910895AE
:100EA000DF93CF93CDB7DEB7A3E5B0E0E3E5F0E0A5
:100EB0008081887F8C9382E0CF91DF910895DF93CA
:100EC000CF9300D000D000D0CDB7DEB78A837C832B
:100ED0006B8382E089838B819C81009719F481E088
:100EE00089831EC08A81282F30E03E832D838D8127
:100EF0009E81009731F02D813E812130310541F0F6
:100F00000EC08B819C81909389018093880108C0D9
:100F10008B819C8190938B0180938A0101C01982FF
:100F2000898126960FB6F894DEBF0FBECDBFCF9154
:100F3000DF910895DF93CF93CDB7DEB7A5970FB6B6
:100F4000F894DEBF0FBECDBF6D8F7E8F8F8F98A3BD
:100F5000CE0109969AA389A3EEE6F1E0FCA3EBA3E8
:100F6000F4E1FDA3EBA1FCA100808BA19CA1019663
:100F70009CA38BA3E9A1FAA1008289A19AA1019661
:100F80009AA389A39DA191509DA3EDA1EE2351F7B2
:100F9000898D9A8DAB8DBC8DBC01CD010E94A904B9
:100FA000DC01CB01BC01CD0120E030E040E851E4A0
:100FB0000E941903DC01CB018D839E83AF83B88728
:100FC0008D8D9E8DAF8DB8A128EE33E040E050E0CE
:100FD000BC01CD010E94CC10DC01CB01BC01CD01D4
:100FE0000E94A904DC01CB01BC01CD012D813E8111
:100FF0004F8158850E941903DC01CB01BC01CD0152
:101000000E944900DC01CB0189839A83AB83BC83B6
:1010100089819A81AB81BC81892F9A2FAB2FBB2705
:1010200080938C0190938D01A0938E01B0938F01DA
:10103000898180939001809190018823C9F0E2E535
:10104000F0E0809190018195808380918C01909156
:101050008D01A0918E01B0918F010196A11DB11D4E
:1010600080938C0190938D01A0938E01B0938F019A
:1010700082E0A5960FB6F894DEBF0FBECDBFCF912C
:10108000DF910895DF93CF9300D000D0CDB7DEB7C6
:101090008A8382E089838A81282F30E03C832B83F6
:1010A0008B819C81009731F02B813C81213031056F
:1010B00049F010C0A9E5B0E0E9E5F0E08081816089
:1010C0008C9309C0A9E5B0E0E9E5F0E08081826099
:1010D0008C9301C0198289810F900F900F900F900F
:1010E000CF91DF910895DF93CF9300D000D0CDB79B
:1010F000DEB78A8382E089838A81282F30E03C83AF
:101100002B838B819C81009731F02B813C81213096
:10111000310549F010C0A9E5B0E0E9E5F0E08081D3
:101120008E7F8C9309C0A9E5B0E0E9E5F0E080810D
:101130008D7F8C9301C0198289810F900F900F9041
:101140000F90CF91DF910895DF93CF930F92CDB79A
:10115000DEB7898382E00F90CF91DF9108951F92CF
:101160000F920FB60F9211242F933F934F935F93DB
:101170006F937F938F939F93AF93BF93EF93FF935F
:10118000DF93CF93CDB7DEB7809195019091960113
:10119000A0919701B09198010196A11DB11D809376
:1011A000950190939601A0939701B0939801209197
:1011B000950130919601409197015091980180914D
:1011C0008C0190918D01A0918E01B0918F01281713
:1011D00039074A075B07C9F4E2E5F0E08091900126
:1011E000819580838091880190918901009729F0F1
:1011F000E0918801F0918901099510929501109272
:1012000096011092970110929801CF91DF91FF9172
:10121000EF91BF91AF919F918F917F916F915F916E
:101220004F913F912F910F900FBE0F901F901895E7
:101230001F920F920FB60F9211242F933F934F934B
:101240005F936F937F938F939F93AF93BF93EF932E
:10125000FF93DF93CF93CDB7DEB780919901909143
:101260009A01A0919B01B0919C010196A11DB11D15
:101270008093990190939A01A0939B01B0939C0154
:101280002091990130919A0140919B0150919C01CC
:101290008091910190919201A0919301B09194015C
:1012A000281739074A075B0799F4109299011092A1
:1012B0009A0110929B0110929C0180918A01909159
:1012C0008B01009729F0E0918A01F0918B0109953B
:1012D000CF91DF91FF91EF91BF91AF919F918F914E
:1012E0007F916F915F914F913F912F910F900FBE22
:1012F0000F901F901895DF93CF93CDB7DEB77894FA
:1013000082E0CF91DF910895DF93CF93CDB7DEB721
:10131000F89482E0CF91DF910895DF93CF93CDB71A
:10132000DEB72F970FB6F894DEBF0FBECDBF8C830C
:101330006D8382E08B838C819AE0692F0E94EB1091
:101340008A838C819AE0692F0E94EB10892F898310
:101350008A81282F30E03F872E878E859F858230B7
:10136000910509F452C02E853F852330310534F4B0
:101370008E859F858130910571F0F3C02E853F8564
:101380002330310509F47BC08E859F85843091051B
:1013900009F4AFC0E6C08D81282F30E03D872C874F
:1013A0008C859D85009731F02C853D852130310558
:1013B000B1F029C0AAE3B0E0EAE3F0E08081482F71
:1013C0008981282F30E081E090E0022E02C0880F52
:1013D000991F0A94E2F7809584238C93C3C0AAE3F3
:1013E000B0E0EAE3F0E08081482F8981282F30E0E7
:1013F00081E090E0022E02C0880F991F0A94E2F764
:10140000842B8C93AFC01B82ADC08D81282F30E020
:101410003B872A878A859B85009731F02A853B8503
:1014200021303105B1F029C0A7E3B0E0E7E3F0E0F7
:101430008081482F8981282F30E081E090E0022EC2
:1014400002C0880F991F0A94E2F7809584238C9339
:1014500089C0A7E3B0E0E7E3F0E08081482F89810D
:10146000282F30E081E090E0022E02C0880F991F03
:101470000A94E2F7842B8C9375C01B8273C08D8114
:10148000282F30E03987288788859985009731F0A3
:101490002885398521303105B1F029C0A4E3B0E0B9
:1014A000E4E3F0E08081482F8981282F30E081E05B
:1014B00090E0022E02C0880F991F0A94E2F78095EF
:1014C00084238C934FC0A4E3B0E0E4E3F0E0808198
:1014D000482F8981282F30E081E090E0022E02C061
:1014E000880F991F0A94E2F7842B8C933BC01B82D0
:1014F00039C08D81282F30E03F832E838E819F81DC
:10150000009731F02E813F8121303105B1F02AC0A2
:10151000A1E3B0E0E1E3F0E08081482F8981282F4A
:1015200030E081E090E0022E02C0880F991F0A94FB
:10153000E2F7809584238C9315C0A1E3B0E0E1E34A
:10154000F0E08081482F8981282F30E081E090E011
:10155000022E02C0880F991F0A94E2F7842B8C9305
:1015600001C01B828B812F960FB6F894DEBF0FBE91
:10157000CDBFCF91DF910895DF93CF93CDB7DEB785
:101580002F970FB6F894DEBF0FBECDBF8C836D834F
:1015900082E08B838C819AE0692F0E94EB108A8312
:1015A0008C819AE0692F0E94EB10892F89838A81B0
:1015B000282F30E03F872E878E859F8582309105CA
:1015C00009F452C02E853F852330310534F48E85D1
:1015D0009F858130910571F0F5C02E853F852330C0
:1015E000310509F47BC08E859F858430910509F40F
:1015F000AFC0E8C08D81282F30E03D872C878C85D7
:101600009D85009731F02C853D8521303105B1F065
:1016100029C0ABE3B0E0EBE3F0E08081482F8981A3
:10162000282F30E081E090E0022E02C0880F991F41
:101630000A94E2F7809584238C93C5C0ABE3B0E0B5
:10164000EBE3F0E08081482F8981282F30E081E0B2
:1016500090E0022E02C0880F991F0A94E2F7842BB3
:101660008C93B1C01B82AFC08D81282F30E03B87A7
:101670002A878A859B85009731F02A853B85213012
:101680003105B1F029C0A8E3B0E0E8E3F0E08081E3
:10169000482F8981282F30E081E090E0022E02C09F
:1016A000880F991F0A94E2F7809584238C938BC04E
:1016B000A8E3B0E0E8E3F0E08081482F8981282F9B
:1016C00030E081E090E0022E02C0880F991F0A945A
:1016D000E2F7842B8C9377C01B8275C08D81282FF5
:1016E00030E03987288788859985009731F02885EB
:1016F000398521303105B1F029C0A5E3B0E0E5E33B
:10170000F0E08081482F8981282F30E081E090E04F
:10171000022E02C0880F991F0A94E2F78095842355
:101720008C9351C0A5E3B0E0E5E3F0E08081482F61
:101730008981282F30E081E090E0022E02C0880FDE
:10174000991F0A94E2F7842B8C933DC01B823BC007
:101750008D81282F30E03F832E838E819F810097DB
:1017600031F02E813F8121303105B1F029C0A2E353
:10177000B0E0E2E3F0E08081482F8981282F30E05B
:1017800081E090E0022E02C0880F991F0A94E2F7D0
:10179000809584238C9317C0A2E3B0E0E2E3F0E0ED
:1017A0008081482F8981282F30E081E090E0022E4F
:1017B00002C0880F991F0A94E2F7842B8C9303C010
:1017C0001B8201C01B828B812F960FB6F894DEBF5F
:1017D0000FBECDBFCF91DF910895DF93CF9300D09F
:1017E00000D00F92CDB7DEB78A836B8382E0898306
:1017F0008A81282F30E03D832C838C819D8182302B
:101800009105D9F02C813D812330310534F48C8150
:101810009D818130910561F01FC02C813D81233075
:10182000310581F08C819D818430910581F014C057
:10183000EAE3F0E08B81808310C0E7E3F0E08B8186
:1018400080830BC0E4E3F0E08B81808306C0E1E39A
:10185000F0E08B81808301C0198289810F900F9005
:101860000F900F900F90CF91DF910895DF93CF935A
:1018700000D000D00F92CDB7DEB78A836B8382E0B1
:1018800089838A81282F30E03D832C838C819D8140
:1018900082309105D9F02C813D812330310534F41B
:1018A0008C819D818130910561F01FC02C813D812B
:1018B0002330310581F08C819D818430910581F048
:1018C00014C0EBE3F0E08B81808310C0E8E3F0E02C
:1018D0008B8180830BC0E5E3F0E08B81808306C0C1
:1018E000E2E3F0E08B81808301C0198289810F904F
:1018F0000F900F900F900F90CF91DF910895DF938D
:10190000CF9300D000D000D0CDB7DEB78C8382E07B
:101910008B838C819AE0692F0E94EB108A838C81E3
:101920009AE0692F0E94EB10892F89838A81282FE2
:1019300030E03E832D838D819E818230910551F16F
:101940002D813E812330310534F48D819E8181309B
:10195000910561F05BC02D813E812330310571F12D
:101960008D819E8184309105E9F150C0ABE3B0E0F8
:10197000EBE3F0E08081482F8981282F30E081E07F
:1019800090E0022E02C0880F991F0A94E2F7842784
:101990008C933DC0A8E3B0E0E8E3F0E08081482FFD
:1019A0008981282F30E081E090E0022E02C0880F6C
:1019B000991F0A94E2F784278C9329C0A5E3B0E02D
:1019C000E5E3F0E08081482F8981282F30E081E035
:1019D00090E0022E02C0880F991F0A94E2F7842734
:1019E0008C9315C0A2E3B0E0E2E3F0E08081482FE1
:1019F0008981282F30E081E090E0022E02C0880F1C
:101A0000991F0A94E2F784278C9301C01B828B8173
:101A100026960FB6F894DEBF0FBECDBFCF91DF91F3
:101A20000895DF93CF93CDB7DEB728970FB6F8941C
:101A3000DEBF0FBECDBF8C837E836D8382E08B8340
:101A40008C819AE0692F0E94EB108A838C819AE046
:101A5000692F0E94EB10892F89838A81282F30E01B
:101A600038872F834F8158854230510559F18F8136
:101A700098858330910534F42F81388521303105E4
:101A800069F05CC04F8158854330510579F18F81F1
:101A900098858430910509F43DC050C0E9E3F0E039
:101AA0008081282F30E08981882F90E0A90102C031
:101AB000559547958A95E2F7CA018170ED81FE81BF
:101AC00080833DC0E6E3F0E08081282F30E089810B
:101AD000882F90E0A90102C0559547958A95E2F7B5
:101AE000CA018170ED81FE81808329C0E3E3F0E0CB
:101AF0008081282F30E08981882F90E0A90102C0E1
:101B0000559547958A95E2F7CA018170ED81FE816E
:101B1000808315C0E0E3F0E08081282F30E08981E8
:101B2000882F90E0A90102C0559547958A95E2F764
:101B3000CA018170ED81FE81808301C01B828B818F
:101B400028960FB6F894DEBF0FBECDBFCF91DF91C0
:101B50000895DF93CF9300D000D000D0CDB7DEB78B
:101B60008A837C836B8382E089838B819C8100974D
:101B700019F481E089833DC08A81282F30E03E83BB
:101B80002D838D819E8182309105E9F02D813E81EA
:101B90002330310534F48D819E818130910561F0CF
:101BA00027C02D813E8123303105A1F08D819E819A
:101BB00084309105B1F01CC0E9E3F0E08081EB8155
:101BC000FC81808316C0E6E3F0E08081EB81FC813C
:101BD00080830FC0E3E3F0E08081EB81FC818083B0
:101BE00008C0E0E3F0E08081EB81FC81808301C0EC
:101BF0001982898126960FB6F894DEBF0FBECDBF3D
:101C0000CF91DF910895DF93CF9300D00F92CDB79E
:101C1000DEB79B838A8382E08983EA81FB818081AE
:101C20008823B9F0EA81FB818081853090F4EA81D4
:101C3000FB81818160E00E948D09EA81FB818281C4
:101C4000813041F4EA81FB81818161E00E94BC0A1C
:101C500001C0198289810F900F900F90CF91DF9171
:101C60000895DF93CF93CDB7DEB764970FB6F8949E
:101C7000DEBF0FBECDBF9A8B898B7C8B6B8B82E0D6
:101C80008F8781E0888BE989FA8981819E01205FB5
:101C90003F4FB9010E94110D8889882309F094C033
:101CA00080E090E0A0EAB1E48B879C87AD87BE8797
:101CB0006B857C858D859E8520E030E04AE755E484
:101CC0000E941F02DC01CB018F839887A987BA8706
:101CD0006F81788589859A8520E030E040E85FE370
:101CE0000E94250488232CF481E090E09E838D835C
:101CF0003FC06F81788589859A8520E03FEF4FE767
:101D000057E40E94C50318164CF56B857C858D85BC
:101D10009E8520E030E040E251E40E941F02DC0199
:101D2000CB01BC01CD010E944900DC01CB019E83A7
:101D30008D830FC080E991E09C838B838B819C8194
:101D40000197F1F79C838B838D819E8101979E8300
:101D50008D838D819E81009769F714C06F8178858E
:101D600089859A850E944900DC01CB019E838D8381
:101D70008D819E819A83898389819A810197F1F768
:101D80009A838983E989FA8981819E01205F3F4F87
:101D9000B9010E94110D8889882389F409C0E98955
:101DA000FA8981819E01205F3F4FB9010E94110D88
:101DB00088898823A1F3EB89FC89108209C0EB890B
:101DC000FC8981E0808304C0EB89FC8981E0808309
:101DD0008F8564960FB6F894DEBF0FBECDBFCF914E
:101DE000DF910895DF93CF9300D000D0CDB7DEB759
:101DF0008A8382E089838A81282F30E03C832B8389
:101E00008B819C818230910579F02B813C8123303C
:101E1000310579F08B819C818130910579F48EE1D7
:101E200061E00E948D090BC08FE161E00E948D0985
:101E300006C080E261E00E948D0901C0198289819B
:101E40000F900F900F900F90CF91DF910895DF9337
:101E5000CF9300D000D0CDB7DEB78A8382E08983EC
:101E60008A81282F30E03C832B838B819C818230B8
:101E7000910579F02B813C812330310579F08B81FC
:101E80009C818130910579F48EE161E00E94BC0A69
:101E90000BC08FE161E00E94BC0A06C080E261E0F5
:101EA0000E94BC0A01C0198289810F900F900F9087
:101EB0000F90CF91DF910895DF93CF9300D000D0A2
:101EC000CDB7DEB78A8382E089838A81282F30E00C
:101ED0003C832B838B819C818230910579F02B810F
:101EE0003C812330310579F08B819C8181309105D3
:101EF00079F48EE160E00E94BC0A0BC08FE160E0E3
:101F00000E94BC0A06C080E260E00E94BC0A01C0D8
:101F1000198289810F900F900F900F90CF91DF91D0
:101F20000895DF93CF9300D000D0CDB7DEB78A837A
:101F300082E089838A81282F30E03C832B838B8148
:101F40009C818230910571F02B813C8123303105D9
:101F500069F08B819C818130910561F48EE10E9452
:101F60007F0C09C08FE10E947F0C05C080E20E94B7
:101F70007F0C01C0198289810F900F900F900F90F4
:101F8000CF91DF910895DF93CF93CDB7DEB7289738
:101F90000FB6F894DEBF0FBECDBFCE0101969D8374
:101FA0008C83E2E8F1E0FF83EE83F3E0F887EE81D3
:101FB000FF8100808E819F8101969F838E83EC81BB
:101FC000FD8100828C819D8101969D838C83988503
:101FD00091509887E885EE2351F7CE0101960E9433
:101FE000030E81E00E94F20E83E00E94F20E82E076
:101FF0000E94F20E0E94170780E00E94420824E728
:1020000030E180E0B9010E945F0764EF71E080E099
:1020100090E00E949A070E947B090E943A07289646
:102020000FB6F894DEBF0FBECDBFCF91DF910895FC
:10203000DF93CF93CDB7DEB7FFCFDF93CF93CDB78D
:10204000DEB781E00E94910FCF91DF910895DF9379
:10205000CF93CDB7DEB729970FB6F894DEBF0FBE8A
:10206000CDBF81E08983CE0102969E838D83E5E812
:10207000F1E0F887EF83F3E0F987EF81F8850080DE
:102080008F819885019698878F83ED81FE810082EC
:102090008D819E8101969E838D839985915099872C
:1020A000E985EE2351F7CE0102969E012F5F3F4F47
:1020B000B9010E94310E8981882319F483E00E94BE
:1020C000910F29960FB6F894DEBF0FBECDBFCF910A
:1020D000DF910895DF93CF93CDB7DEB782E00E9402
:1020E000910FCF91DF910895DF93CF93CDB7DEB7F6
:1020F00080919D01882341F080919D01823021F0E3
:1021000080919D01843059F4E0916A01F0916B0156
:10211000099580919D018F5F80939D012DC08091D5
:102120009D01813021F080919D01833081F4E09107
:102130006801F09169010995E0916A01F0916B01E4
:10214000099580919D018F5F80939D0115C08091BD
:102150009D01853089F4E0916801F091690109954C
:10216000E0916A01F0916B010995E0916C01F091A9
:102170006D01099510929D01CF91DF910895DF9334
:10218000CF93CDB7DEB70E94C30F0E94181080E036
:1021900090E0CF91DF910895629FD001739FF0018D
:1021A000829FE00DF11D649FE00DF11D929FF00DE7
:1021B000839FF00D749FF00D659FF00D9927729F1E
:1021C000B00DE11DF91F639FB00DE11DF91FBD01A9
:1021D000CF0111240895991B79E004C0991F961727
:1021E00008F0961B881F7A95C9F7809508952F925D
:1021F0003F924F925F926F927F928F929F92AF9297
:10220000BF92CF92DF92EF92FF920F931F93CF93E3
:10221000DF93CDB7DEB7CA1BDB0B0FB6F894DEBF7A
:102220000FBECDBF09942A88398848885F846E84A0
:102230007D848C849B84AA84B984C884DF80EE80EA
:10224000FD800C811B81AA81B981CE0FD11D0FB6F3
:10225000F894DEBF0FBECDBFED010895F894FFCF17
:10226000000000000000000000010202030303035D
:102270000404040404040404050505050505050516
:1022800005050505050505050606060606060606F6
:1022900006060606060606060606060606060606DE
:1022A00006060606060606060707070707070707C6
:1022B00007070707070707070707070707070707AE
:1022C000070707070707070707070707070707079E
:1022D000070707070707070707070707070707078E
:1022E0000707070707070707080808080808080876
:1022F000080808080808080808080808080808085E
:10230000080808080808080808080808080808084D
:10231000080808080808080808080808080808083D
:10232000080808080808080808080808080808082D
:10233000080808080808080808080808080808081D
:10234000080808080808080808080808080808080D
:1023500008080808080808080808080808080808FD
:1023600008080808080808081D1027106A1001004E
:102370000000080000004000000000010000000410
:08238000000001280101280101
:00000001FF
